:100000000C946C000C948B000C948B000C948B0063
:100010000C948B000C948B000C948B000C948B0034
:100020000C948B000C948B000C948B000C948B0024
:100030000C948B000C948B000C94200F0C948B0070
:100040000C948B000C948B000C94212E0C948B0040
:100050000C948B000C948B000C948B000C948B00F4
:100060000C948B000C948B000C948B000C948B00E4
:100070000C948B000C948B000C9421010C948B003D
:100080000C948B000C948B000C948B00084AD73B8B
:100090003BCE016E84BCBFFDC12F3D6C74319ABD57
:1000A00056833DDA3D00C77F11BED9E4BB4C3E917B
:1000B0006BAAAABE000000803F05A84CCDB2D44E6A
:1000C000B93836A9020C50B9918688083CA6AAAA6C
:1000D0002ABE000000803F0011241FBECFEFD0E1F8
:1000E000DEBFCDBF11E0A0E0B1E0E2E2FCE600E05F
:1000F0000BBF02C007900D92A83FB107D9F713E0DC
:10010000A8EFB1E001C01D92AF33B107E1F70E9443
:1001100042020C94C72E0C94000094EA9093740051
:100120009091740097FFFCCF9AE09093730094E84D
:10013000909374009091740097FFFCCF80937300AC
:1001400084E8809374008091740087FFFCCF84E979
:100150008093740084EA809374008091740087FF18
:10016000FCCF8BE08093730084E8809374008091CF
:10017000740087FFFCCF84E8809374008091740042
:1001800087FFFCCF8091730094E9909374000895E9
:1001900094EA909374009091740097FFFCCF9AE0DA
:1001A0009093730094E8909374009091740097FF7B
:1001B000FCCF8093730084E8809374008091740076
:1001C00087FFFCCF6093730084E880937400809174
:1001D000740087FFFCCF84E9809374000895109227
:1001E0009B0088E980939A0086E080939D0010929E
:1001F00098008FE580939900789408951F931FEFDE
:100200001093730081E4809370000E9495070E9410
:100210000D2E0E94EF000E948F061FBC85E08EBD50
:100220001DBD80E78CBD84E087BF78948FE087BBDD
:1002300081B3807F81BB84B3806F84BB18BA1F9168
:1002400008951F920F920FB60F9211248F93DF9390
:10025000CF930F92CDB7DEB780919C0089838091B8
:100260009B00887BE1F381E08093F8018981809392
:10027000F9010F90CF91DF918F910F900FBE0F90EA
:100280001F901895DF93CF930F92CDB7DEB7809173
:10029000F90189831092F901F8941092F801789489
:1002A00089810F90CF91DF91089590919B0095FFE8
:1002B000FCCF80939C000895CF93DF93E4E7F0E0B8
:1002C00094EA9083A1EEB2E01197F1F70000A3E762
:1002D000B0E09EE09C9394E89083C1EED2E0219739
:1002E000F1F700008C93908381EE92E00197F1F793
:1002F000000084E98083DF91CF910895EF92FF920F
:100300000F931F93DF93CF9300D0CDB7DEB7082FA5
:10031000162F843070F5643160F58BE149835A8380
:100320000E945C018CE40E945C01812F0E945C01B0
:10033000802F0E945C0180E791E00197F1F700C0F7
:10034000E12EFF2449815A81042F152F06C00E94F7
:100350005C0194EC9A95F1F700C0E4E1EE16F1042B
:1003600044F4F80181918F010894E11CF11C882369
:1003700071F70F900F90CF91DF911F910F91FF9028
:10038000EF9008951F93DF93CF9300D0CDB7DEB7E2
:10039000182F8430F0F46431E0F48BE12A83698310
:1003A0000E945C018CE40E945C016981862F0E949E
:1003B0005C01812F0E945C0180E791E00197F1F7D9
:1003C00000C02A81822F0E945C0194EC9A95F1F77B
:1003D00000C00F900F90CF91DF911F9108958BE196
:1003E0000E945C0183E40E945C0186E696EEA0E038
:1003F00081509040A040E1F70895EF92FF920F9353
:100400001F93182FF62EE42E842F64E60E94DC350D
:10041000082F282F30E0205D3F4F442737FD4095BF
:10042000542F812F6F2D0E94C2018CE9089F002D4F
:1004300011240E0D802F6AE00E94DC35E82E6F2D0E
:100440006F5F282F30E0205D3F4F442737FD4095F8
:10045000542F812F0E94C2016F2D6E5F26EFE29E06
:10046000202D1124200F30E0205D3F4F442737FD21
:100470004095542F812F0E94C2011F910F91FF9030
:10048000EF9008952F923F924F925F926F927F92DA
:100490008F929F92AF92BF92CF92DF92EF92FF9294
:1004A0000F931F93CF93DF930E94FE008EE161E0D4
:1004B0000E94C8008EE165E00E94C8008EE164E100
:1004C0000E94C8008EE160E10E94C8004FEF5FE724
:1004D00066E1415050406040E1F700C0000080E01C
:1004E00090E0DC0180935A0290935B02A0935C023F
:1004F000B0935D0220915A0230915B0240915C0200
:1005000050915D0220935602309357024093580257
:10051000509359022091560230915702409158024F
:100520005091590220935202309353024093540247
:10053000509355028093660290936702A0936802DD
:10054000B09369028091660290916702A09168025F
:10055000B09169028093620290936302A093640257
:10056000B09365020E94D209C39A6FEF7FE784E0DF
:10057000615070408040E1F700C00000C39805E082
:10058000802E03E0902E10E0612E11E0712EB9E173
:100590004B2EB1E05B2EA9E02A2E312CB49910C06D
:1005A0008091FA019091FB0101979093FB01809358
:1005B000FA0186E696E2A3E081509040A040E1F780
:1005C000B69910C08091FA019091FB010196909329
:1005D000FB018093FA0146E656E263E04150504049
:1005E0006040E1F7B599C8C00E94EF018091FA011F
:1005F0009091FB018230910508F0BEC08CE090E044
:1006000068E070E04AE050E025E030E00EE010E005
:10061000EE24FF24F8E2CF2ED12CE2E3AE2EB12C53
:100620000E94B31B8AE090E068E070E04AE050E08E
:1006300025E030E0AA24BB240E94B31B80E090E0B8
:1006400068E070E048EE53E025E030E0B8E2EB2EE1
:10065000F12C0E94B31B80E090E068E070E040E085
:1006600050E028E230E00EEC1FEF0E9451168AE1C4
:1006700090E06AE570E04AE550E028E230E002E30D
:1006800010E00E94C11F8AE190E06AE570E04AE54F
:1006900050E028E230E00EEC1FEF0E94C11F8CE01A
:1006A00090E061E070E04AE050E025E030E00EE0EC
:1006B00010E0EE24FF24A2E3AA2EB12C0E94B31B6B
:1006C0008AE090E061E070E04BE050E025E030E04F
:1006D000AA24BB240E94B31B8AE190E066EA7FEF64
:1006E00046EA5FEF28E230E006E910E00E94C11F11
:1006F0008CE090E068E070E04AE050E025E030E017
:100700000EE010E0F2E3AF2EB12C0E94B31B8AE0A2
:1007100090E068E070E04AE050E025E030E0AA2494
:10072000BB240E94B31B80E090E068E070E048EEDC
:1007300053E025E030E0EDE2EE2EF12C0E94B31BF9
:1007400080E090E068E070E040E050E028E230E0D7
:100750000EEC1FEF0E9451168AE190E066EA7FEFEF
:1007600046EA5FEF28E230E006E910E00E94C11F90
:10077000B599FECFB59BFECF8091FA019091FB0118
:10078000009709F442C040911A0230911902209159
:1007900018029091200280911F026DB77EB76E50B3
:1007A00070400FB6F8947EBF0FBE6DBFEDB7FEB7B9
:1007B0003196ADB7BEB712969C928E921197738206
:1007C000628244831582368317822087118692873E
:1007D0001386848715860E94CA2ECDB7DEB72E9663
:1007E0000FB6F894DEBF0FBECDBF80E090E060E0B2
:1007F00070E0A4010E947E0130911B0220911C0236
:1008000090911D0280911E023EC040912E023091B7
:100810002D0220912C029091340280913302EDB789
:10082000FEB73E970FB6F894FEBF0FBEEDBF3196F0
:10083000ADB7BEB712969C928E9211977382628268
:100840004483158236831782208711869287138608
:10085000848715860E94CA2ECDB7DEB72E960FB6B6
:10086000F894DEBF0FBECDBF80E090E060E070E0A6
:10087000A4010E947E0130912F02209130029091BC
:10088000310280913202EDB7FEB73C970FB6F89473
:10089000FEBF0FBEEDBF3196ADB7BEB712969C92AC
:1008A0008E92119753824282348315822683178257
:1008B00090871186828713860E94CA2ECDB7DEB735
:1008C0002C960FB6F894DEBF0FBECDBF81E090E04E
:1008D00060E070E0A4010E947E018091FA01909195
:1008E000FB0197FF03C0909581959F4FB1010E9436
:1008F000E83590935102809350020E948D08209118
:100900007B0230917C0240917D0250917E02A0904A
:100910007902B0907A02A0912B03B0912C03009140
:10092000030310910403E0907F02F0908002C090D6
:100930007702D09078026091620270916302809198
:10094000640290916502EDB7FEB774970FB6F89404
:10095000FEBF0FBEEDBFCDB7DEB72196928281827A
:10096000E2E3F1E0FB83EA833D832C835F834E83E4
:10097000B986A886BB87AA871D870C87FF86EE8667
:10098000D98AC88A0E9443307B8B6A8B0E94CA2E08
:100990004DB75EB74C5E5F4F0FB6F8945EBF0FBEAB
:1009A0004DBF83E090E060E070E0A4010E947E0112
:1009B00000D000D000D0EDB7FEB73196ADB7BEB7CE
:1009C00012969C928E921197C8E4D1E0D383C28391
:1009D0008091FA019091FB01958384830E94CA2E35
:1009E000EDB7FEB736960FB6F894FEBF0FBEEDBF5B
:1009F00083E090E060E170E0A4010E947E01CECD32
:100A000090E0FC01B096FE2FEE2720812093760225
:100A100020FDFBCF8896B82FAA278C9190819093C8
:100A2000760290FDFBCF089590E08096F82FEE2798
:100A300080818093760280FDFBCF608380818093EC
:100A4000760280FDFBCF089580E061E00E941405EE
:100A500082E061E00E94140581E061E00E941405DB
:100A60000895A82FB0E0FD01B096FE2FEE278081FB
:100A70008093760280FDFBCF9896BA2FAA27872F06
:100A8000992787FD9A958C9380818093760280FDCB
:100A9000FBCF6C9380818093760280FDFBCF08951D
:100AA0001F93CF93DF93182F80E06FE10E9414050E
:100AB000C1E0D0E002C0CC0FDD1F1A95E2F780E064
:100AC000BE010E94310581E06FE10E94140581E0C2
:100AD000BE010E94310582E06FE10E94140582E0B0
:100AE000BE010E94310580E061E00E94140582E0B1
:100AF00061E00E94140581E061E00E941405DF912D
:100B0000CF911F910895DF92EF92FF920F931F9361
:100B1000D82E7A018B019B01552737FD5095452F23
:100B2000B9010E9431058D2DB7010E9431051F9139
:100B30000F91FF90EF90DF9008951F93182F60E0C2
:100B40000E9414058CEC9CE10197F1F700C00000B5
:100B5000812F6DE10E941405812F60E070E00E94FA
:100B600031051F910895AF92BF92CF92DF92EF921D
:100B7000FF920F931F93CF93DF93F82E6B01EA013F
:100B80008901AA24A3946115710509F4AA24BB2440
:100B9000B394209709F4BB24EE24E39401151105C6
:100BA00009F4EE248F2D6EE10E9414056B2D70E088
:100BB000660F771F660F771F8A2D90E043E0880F3E
:100BC000991F4A95E1F7682B792B8E2D90E0880FBD
:100BD000991F682B792B8F2D0E943105AA2021F0B7
:100BE0008F2DB6010E943105BB2021F08F2DBE0153
:100BF0000E943105EE2021F08F2DB8010E943105B1
:100C00008F2D64E00E941405DF91CF911F910F9109
:100C1000FF90EF90DF90CF90BF90AF9008958F92AC
:100C20009F92AF92BF92CF92DF92EF92FF920F937B
:100C30001F93CF93DF93F82E4B016A01E901AA2499
:100C4000A3946115710509F4AA24BB24B394C114BB
:100C5000D10409F4BB24EE24E394209709F4EE2494
:100C60008F2D6EE10E9414056A2D70E0A3E0660FDF
:100C7000771FAA95E1F761608B2D90E0880F991F8F
:100C8000880F991F682B792B8E2D90E0880F991F64
:100C9000682B792B8F2D0E943105AA2021F08F2DF2
:100CA000B4010E943105BB2021F08F2DB6010E94B6
:100CB0003105EE2021F08F2DBE010E9431058F2DD0
:100CC000B8010E9431058F2D64E00E941405DF9168
:100CD000CF911F910F91FF90EF90DF90CF90BF9039
:100CE000AF909F908F900895DF92EF92FF920F93B5
:100CF0001F93D82E7A018B016FE10E9414058D2D70
:100D000060E270E00E9431058D2DB801A7010E94BC
:100D100083051F910F91FF90EF90DF90089580E081
:100D200060E170E040E050E020E430E00E94B30574
:100D300081E060E170E040E050E020E430E00E94BB
:100D4000B30582E060E170E040E050E020E430E094
:100D50000E94B30580E04FEF5FEF6FEF7FE30E94EB
:100D6000740681E04FEF5FEF6FEF7FE30E94740640
:100D700082E04FEF5FEF6FEF7FE30E94740608950C
:100D8000DF92EF92FF920F931F93DF93CF930F9217
:100D9000CDB7DEB7D82E7A018B0177FF0AC0109548
:100DA0000095F094E094E11CF11C011D111D90E0F0
:100DB00001C091E08D2D6FE199830E941405998106
:100DC000792F7295707F60E0686078608D2D0E9449
:100DD00031058D2DB801A7010E9483050F90CF9199
:100DE000DF911F910F91FF90EF90DF900895AF92E8
:100DF000BF92CF92DF92EF92FF920F931F93DF93F8
:100E0000CF93CDB7DEB72C970FB6F894DEBF0FBEE9
:100E1000CDBF59016A010E94763069837A838B8342
:100E20009C83C601B5010E9476306D837E838F83DB
:100E30009887C801B7010E94763069877A878B87C7
:100E40009C878E010F5F1F4FEE24F8016081718136
:100E50008281938121E73CEA4BE85EE30E9466329F
:100E60009B01AC01F80121933193419351938F0180
:100E700020E030E040E857E40E9466320E944330B0
:100E8000AB01BC018E2D0E94C006E394FE2DF33011
:100E9000E1F60E9424052C960FB6F894DEBF0FBE33
:100EA000CDBFCF91DF911F910F91FF90EF90DF9019
:100EB000CF90BF90AF9008954F925F926F927F92C4
:100EC0008F929F92AF92BF92CF92DF92EF92FF925A
:100ED0000F931F93982E862E29013A016FE10E94ED
:100EE0001405682D70E06A62892D0E943105892DF4
:100EF000B301A2010E948305892DB801A7010E94B8
:100F00008305892DB601A5010E9483051F910F91CC
:100F1000FF90EF90DF90CF90BF90AF909F908F9019
:100F20007F906F905F904F9008958F929F92AF92B5
:100F3000BF92CF92DF92EF92FF920F931F93DF93B6
:100F4000CF9300D00F92CDB7DEB71ABA15BA8FEF94
:100F500084BB1092650083E08093640000E8A02EBB
:100F600012E0B12EB4E89B2E6E010894C11CD11C76
:100F700085B3856085BB83E39BE20197F1F785B379
:100F80008A7F85BBECECFCE13197F1F700C00000F3
:100F9000809165008D7F80936500AB9885B3887FD5
:100FA00085BB99B39983A89A19B385B3887F82606A
:100FB00085BB09B3943C09F4A7C0943809F4A4C0D4
:100FC00015BA80E090E060E070E04FE451E00E94EC
:100FD0007E0181E090E060E070E045E551E00E9434
:100FE0007E01143C09F490C0143809F48DC015BA80
:100FF00080E090E060E070E04FE451E00E947E010C
:1010000082E090E060E070E045E651E00E947E0101
:10101000043C09F479C0043809F476C015BA80E0BC
:1010200090E060E070E04FE451E00E947E0183E0D8
:1010300090E060E070E045E751E02DC08E2C8C1808
:10104000882D6DE10E941405882D60E070E00E94FB
:101050003105F8018081F70181937F0100501F4F16
:10106000F3E200301F0751F78981803CB9F08038E6
:10107000A9F085B78F7385BF15BA80E090E060E076
:1010800070E045E851E00E947E0181E090E060E080
:1010900070E045E551E00E947E016ACF80E090E07B
:1010A00060E070E04BE851E00E947E0180E098B380
:1010B000976098BB2FEF3FEB46E021503040404017
:1010C000E1F700C0000098B3987F98BB2FEF3FEB8B
:1010D00046E0215030404040E1F700C000008F5F03
:1010E000833029F70E94EF010F900F900F90CF915E
:1010F000DF911F910F91FF90EF90DF90CF90BF9005
:10110000AF909F908F900895A5BEB0926D00909281
:101110006C00760100E010E291CF4F925F926F92E7
:101120007F928F929F92AF92BF92CF92DF92EF9277
:10113000FF920F931F93CF93DF9384E6882E912C19
:1011400084E00E948D00982F80E0EC0185E00E94F1
:101150008D0090E08C2B9D2BB4010E94E8358827F0
:1011600077FD8095982F0E947630F62E072F182F46
:10117000E92E462E572E682E792E63015201E894EF
:10118000D7F8C601B50120E030E044E353E40E9403
:10119000C4311816ACF260915E0270915F028091CA
:1011A0006002909161022F2D302F412F5E2D0E9401
:1011B000D42F882309F4E5C06F2D702F812F9E2D29
:1011C00020E030E0A9010E94D42F87FF5DC060912C
:1011D0005E0270915F02809160029091610220E056
:1011E00030E0A9010E94C43118160CF04DC02091C6
:1011F0005E0230915F0240916002509161025F7720
:10120000C601B5010E94FB2E20E030E044E353E428
:101210000E94D42F87FF15C0A0906202B090630295
:10122000C0906402D090650220915E0230915F020E
:1012300040916002509161026F2D702F812F9E2D81
:101240001CC0A0906202B0906302C0906402D09073
:10125000650260915E0270915F02809160029091E0
:1012600061022F2D302F412F5E2D0E94FA2E9B01FF
:10127000AC0160E070E883EB93E40E94FA2E9B01DE
:10128000AC01C601B50169C0C301B20120E030E084
:10129000A9010E94C43118160CF047C060915E028B
:1012A00070915F02809160029091610220E030E0D5
:1012B000A9010E94D42F87FF38C020915E0230918F
:1012C0005F0240916002509161025F77C601B501F3
:1012D0000E94FB2E20E030E044E353E40E94D42F30
:1012E00087FD23C0E0906202F090630200916402E7
:1012F0001091650220915E0230915F024091600280
:1013000050916102C301B2010E94FA2E9B01AC010F
:1013100060E070E883EB93E40E94FA2E9B01AC013D
:10132000C801B7010E94FA2E1AC0E0906202F09044
:101330006302009164021091650220915E02309177
:101340005F024091600250916102C301B2010E94AC
:10135000FA2E9B01AC01C801B7010E94FB2E9B0134
:10136000AC01209362023093630240936402509375
:10137000650240925E0250925F026092600270923B
:101380006102DF91CF911F910F91FF90EF90DF905D
:10139000CF90BF90AF909F908F907F906F905F9015
:1013A0004F90089580E062E00E94140581E062E0C1
:1013B0000E94140582E062E00E94140508959F9245
:1013C000AF92BF92CF92DF92EF92FF920F931F9353
:1013D000CF93DF93E82EE7017E01F92EE70100E0CD
:1013E00010E0188219821A821B82902E802F6AE0E8
:1013F0000E941405EE24FF24A880B980CA80DB80F7
:10140000892D0E940005282F30E040E050E02A2975
:101410003B294C295D29288339834A835B8393E0E8
:10142000E916F10441F0542F432F322F222728834D
:1014300039834A835B830894E11CF11C84E0E8163D
:10144000F104D1F60F5F1F4F24960330110549F6C2
:10145000DF91CF911F910F91FF90EF90DF90CF9090
:10146000BF90AF909F9008952F923F924F925F92BE
:101470006F927F928F929F92AF92BF92CF92DF92A4
:10148000EF92FF920F931F93DF93CF9300D000D082
:10149000CDB7DEB74B015C0129013A011601CA0143
:1014A000B901A50194010E946E2F69837A838B8311
:1014B0009C83C801B70125E33AEF4EE85CE30E9444
:1014C00066329B01AC0169817A818B819C810E948B
:1014D000FA2E8B017C01C501B401A30192010E9487
:1014E000D1315B016C01602F712F8E2D9F2D0E94D9
:1014F000D82F9B01AC01C601B5010E946632F101F3
:101500006083718382839383602F712F8E2D9F2D33
:101510000E94C9329B01AC01C601B5010E9466322E
:10152000F10164837583868397830F900F900F90EA
:101530000F90CF91DF911F910F91FF90EF90DF906F
:10154000CF90BF90AF909F908F907F906F905F9063
:101550004F903F902F9008952F923F924F925F921D
:101560006F927F928F929F92AF92BF92CF92DF92B3
:10157000EF92FF920F931F93DF93CF93CDB7DEB718
:1015800062970FB6F894DEBF0FBECDBF69837A8332
:101590008B839C832D833E834F835887370148017B
:1015A00060E070E084E394E4A60195010E94FA2EC5
:1015B000162F072FF82EE92EC601B50120E030E0E6
:1015C00044E353E40E94D42F181684F0A801970135
:1015D000652F742F832F922F20E030E044EB53E4EB
:1015E0000E94FA2E162F072FF82EE92EA801970138
:1015F000652F702F832F9E2D20E030E044EB52E4C6
:101600000E94FA2E69877A878B879C87C401B30171
:1016100023EF36E64FE55EE30E9466326D877E87F4
:101620008F87988B80E090E036E9432E512C28E696
:10163000222E21E0322E9A8B898BB201882777FDEA
:101640008095982F0E9476305B016C01C20188580A
:101650009F4FB1010E94E8352C01C601B501D801A8
:10166000F7012B2F302F4F2F5E2D0E94FA2E25E3EE
:101670003AEF4EE85CE30E9466320E94D82F3B01AD
:101680004C01C601B501B985AA85AB84DC842B2F3A
:101690003A2F4A2D5D2D0E94FA2E25E33AEF4EE8AF
:1016A0005CE30E9466320E94D82F5B016C016D8161
:1016B0007E818F819885A40193010E9466323B014F
:1016C0004C0169817A818B819C81A60195010E94E0
:1016D00066329B01AC01C401B3010E94FB2EBD85A3
:1016E000AE85DF84A8882B2F3A2F4D2D5A2D0E94CE
:1016F000FA2E2FE632E143E856E40E94663223E3F5
:1017000033E343E250EC0E9466320E944330AB0167
:10171000BC0189890E94C00629893A892F5F3F4F01
:101720003A8B298B2330310509F087CF0E9424059D
:101730000E948D0862960FB6F894DEBF0FBECDBF33
:10174000CF91DF911F910F91FF90EF90DF90CF909D
:10175000BF90AF909F908F907F906F905F904F90D1
:101760003F902F9008952F923F924F925F926F92E9
:101770007F928F929F92AF92BF92CF92DF92EF9221
:10178000FF920F931F93DF93CF93CDB7DEB7AC9744
:101790000FB6F894DEBF0FBECDBF8E01075E1F4FA0
:1017A000C8010E94DF0938014E010894811C911C78
:1017B00000E010E0D301AD90BD90CD90DD903D01F3
:1017C0007801EE0CFF1CEE0CFF1CEAE6F2E0EE0ED8
:1017D000FF1EF70180819181A281B381A60195014D
:1017E000281B390B4A0B5B0BCA01B9010E947630EA
:1017F0002FED37ED47E05AE30E946632D4016D9336
:101800007D938D939D934D01F701A082B182C28299
:10181000D3820F5F1F4F0330110561F620906202E3
:1018200030906302409064025090650220916602FD
:101830003091670240916802509169022DA33EA346
:101840004FA358A78091620290916302A091640215
:10185000B09165028093660290936702A09368023C
:10186000B0936902E980FA800B811C81A984BA8453
:10187000CB84DC84C801B701A60195010E94FB2E30
:1018800020E030E040E05FE30E9466322D813E813F
:101890004F8158850E94FA2E20E030E040EC5FE353
:1018A0000E94DB2F69A77AA78BA79CA760905A029A
:1018B00070905B0280905C0290905D02C201B10169
:1018C0002DA13EA14FA158A50E94FA2E9B01AC016B
:1018D000C401B3010E94FA2E9B01AC0120935A026D
:1018E00030935B0240935C0250935D0260905A0219
:1018F00070905B0280905C0290905D02C801B7011D
:10190000A60195010E94FA2E20E030E040E05FE35E
:101910000E94663227ED33EB4DE55FE30E94DB2F3B
:101920009B01AC018401730117FB109517F9109509
:10193000B9A5AAA5FBA5ECA56B2F7A2F8F2F9E2FFB
:10194000EDE0CE2ED12CCC0EDD1E0E94340A60912B
:1019500052027091530280915402909155022D854C
:101960003E854F8558890E94FB2E9B01AC01209338
:1019700052023093530240935402509355026091A7
:10198000560270915702809158029091590229890C
:101990003A894B895C890E94FB2E9B01AC01209304
:1019A0005602309357024093580250935902AC9616
:1019B0000FB6F894DEBF0FBECDBFCF91DF911F9160
:1019C0000F91FF90EF90DF90CF90BF90AF909F90DE
:1019D0008F907F906F905F904F903F902F900895E1
:1019E0002F923F924F925F926F927F928F929F922F
:1019F000AF92BF92CF92DF92EF92FF920F931F931D
:101A0000DF93CF93CDB7DEB72E970FB6F894DEBF36
:101A10000FBECDBF180187019A8389837C836B83B6
:101A2000509541955F4F5E834D83309521953F4F93
:101A300038872F83CE0101969A87898779E0472ED0
:101A4000512C4C0E5D1E7C0166247724CC24DD24B1
:101A5000D7016D917D917D01882777FD8095982F25
:101A60000E9476304B015C01E894B7F8662D772D23
:101A70008C2D9D2DA50194010E94D42F87FF02C0BB
:101A800034016501E414F50419F7EE24FF24C101C3
:101A9000AA2797FDA095BA2F8B879C87AD87BE8715
:101AA000A985BA85AD90BD90BA87A9876B857C85DD
:101AB0008D859E850E9476301B012C01B5018827FB
:101AC00077FD8095982F0E947630262D372D4C2D4E
:101AD0005D2D0E94DB2FA20191010E9466329B01C5
:101AE000AC01F701EE0FFF1FEE0FFF1FE55EFC4F8D
:101AF00020833183428353830894E11CF11CB4E0BA
:101B0000EB16F10469F6043611052CF401151105E4
:101B100009F051C005C00436110511F004561040FB
:101B200091E0E92EF12C662D772D8C2D9D2D20E056
:101B300030E048EC52E40E946632A20191010E941A
:101B4000DB2F0E94C12F5B016C01970122503040B6
:101B5000C80117FF03C0909581959F4FB7010E9460
:101B6000E835620F731F882777FD8095982F0E94B4
:101B700076309B01AC01C601B5010E94FB2E0E948C
:101B80004330CB012E960FB6F894DEBF0FBECDBF0B
:101B9000CF91DF911F910F91FF90EF90DF90CF9049
:101BA000BF90AF909F908F907F906F905F904F907D
:101BB0003F902F90089582E0E82EF12CB4CF2F9221
:101BC0003F924F925F926F927F928F929F92AF92CD
:101BD000BF92CF92DF92EF92FF920F931F93DF930A
:101BE000CF93CDB7DEB72E970FB6F894DEBF0FBEFA
:101BF000CDBF7A8369836536710514F064567040F1
:101C00004B0177FF04C088249924861A970AE09034
:101C10002402F0902502A7014F5F5F4F9C012E190F
:101C20003F0900E010E05A01CC24B7FCC094DC2C42
:101C3000AB82BC82CD82DE821401442437FC409406
:101C4000542C6C01C818D908D886CF82C901AA279C
:101C500097FDA095BA2F89879A87AB87BC877E8727
:101C60006D873401F7FC34C0AD85BE85B7FD2DC04E
:101C70004801880C991C880C991CF401E55EFC4F06
:101C8000A080B180C280D3806B817C818D819E8158
:101C90000E9476309B01AC01C601B5010E946632FC
:101CA0005B016C01C201B1010E9476309B01AC0165
:101CB000C601B5010E94DB2F9B01AC01F401E35D7D
:101CC000FC4F2083318342835383E614F70424F4CA
:101CD000ED85FE85F7FF13C09801220F331F220FF9
:101CE000331FF901E55EFC4F80819181A281B381B0
:101CF000235D3C4FF90180839183A283B383AF803E
:101D0000B884AE14BF0494F549815A814536510513
:101D100068F14801880C991C880C991CF401E55E57
:101D2000FC4FA080B180C280D38069857A858B8585
:101D30009C850E9476309B01AC01C601B5010E94D2
:101D400066325B016C01C201B1010E9476309B01D9
:101D5000AC01C601B5010E94DB2F9B01AC01F4016F
:101D6000E35DFC4F20833183428353830F5F1F4F1A
:101D70000430110509F076CF2E960FB6F894DEBF29
:101D80000FBECDBFCF91DF911F910F91FF90EF90CC
:101D9000DF90CF90BF90AF909F908F907F906F908B
:101DA0005F904F903F902F90089581E090E00A9BC4
:101DB00002C080E090E090937E0280937D0281E0FB
:101DC00090E00B9B02C080E090E090937A028093B9
:101DD000790281E090E00C9B02C080E090E090935B
:101DE0002C0380932B0381E090E0849B02C080E071
:101DF00090E090937C0280937B0281E090E0869B50
:101E000002C080E090E0909304038093030320914C
:101E1000630081E090E023FF02C080E090E09093B7
:101E2000800280937F022091630081E090E024FF94
:101E300002C080E090E0909378028093770208954A
:101E40001F920F920FB60F920BB60F921124EF92C2
:101E5000FF920F931F932F933F934F935F936F9333
:101E60007F938F939F93AF93BF93EF93FF938FEFE6
:101E70008DBD80E78CBD60910E0270910F02809144
:101E80001002909111022AE037ED43EA5CE30E94D0
:101E9000FB2E7B018C017F2D912F20E030E040E86C
:101EA0005FE30E94C431181624F4EE24FF2400E8F6
:101EB0001FE38E2D9F2DA02FB12F80930E029093A4
:101EC0000F02A0931002B09311026091280270914A
:101ED000290280912A0290912B022AE037ED43EAF1
:101EE0005CE30E94FB2E7B018C017F2D912F20E073
:101EF00030E040E85FE30E94C431181624F4EE2479
:101F0000FF2400E81FE38E2D9F2DA02FB12F80937B
:101F1000280290932902A0932A02B0932B02609189
:101F200012027091130280911402909115022DEC0F
:101F30003CEC4CE45DE30E94FB2E7B018C017F2D89
:101F4000912F20E030E040E85FE30E94C431181692
:101F500024F4EE24FF2400E81FE38E2D9F2DA02FF4
:101F6000B12F8093120290931302A0931402B093A6
:101F700015020E94D50E80917D0290917E020097FD
:101F8000B1F080910C0290910D02009781F4809144
:101F900016029091170201969093170280931602F1
:101FA00081E090E090930D0280930C0210C080912C
:101FB0007D0290917E02009751F480910C029091E5
:101FC0000D02009721F010920D0210920C028091E8
:101FD000790290917A02009731F1809142029091BA
:101FE0004302009701F580914C0290914D020196B9
:101FF00090934D0280934C0221E030E030934302F5
:10200000209342028091190390911A03FC01EE0F74
:10201000FF1FE552FD4F31832083019690931A03F1
:102020008093190310C08091790290917A020097F1
:1020300051F48091420290914302009721F0109256
:1020400043021092420280912B0390912C0300973F
:10205000B1F080913E0290913F02009781F480910F
:102060003C0290913D02019690933D0280933C0288
:1020700081E090E090933F0280933E0210C08091F7
:102080002B0390912C03009751F480913E02909184
:102090003F02009721F010923F0210923E02809181
:1020A0007B0290917C020097B1F080913A0290916E
:1020B0003B02009781F48091440290914502019681
:1020C000909345028093440281E090E090933B021C
:1020D00080933A0210C080917B0290917C0200971D
:1020E00051F480913A0290913B02009721F01092B6
:1020F0003B0210923A0280910303909104030097EF
:10210000B1F08091260290912702009781F480918E
:1021100046029091470201969093470280934602AF
:1021200081E090E0909327028093260210C0809176
:10213000030390910403009751F48091260290913B
:102140002702009721F01092270210922602809118
:102150007F0290918002009741F18091400290911E
:102160004102009711F58091380290913902019651
:10217000909339028093380281E090E0909341027D
:10218000809340028091190390911A03FC01EE0F95
:10219000FF1FE552FD4F22E030E03183208301969E
:1021A00090931A038093190310C080917F0290913D
:1021B0008002009751F48091400290914102009773
:1021C00021F010924102109240028091770290918A
:1021D00078020097B1F0809122029091230200973B
:1021E00081F480914E0290914F02019690934F029C
:1021F00080934E0281E090E090932302809322022C
:1022000010C08091770290917802009751F48091EC
:10221000220290912302009721F010922302109243
:1022200022028091240290912502009729F00196C4
:1022300090932502809324028091FC019091FD01EE
:10224000009749F08091FC019091FD0101979093D6
:10225000FD018093FC018091360290913702009736
:1022600029F00196909337028093360280911903EA
:1022700090911A038431910524F010921A03109260
:1022800019038091480290914902009749F080918A
:102290004802909149020196909349028093480226
:1022A0000E94B30BFF91EF91BF91AF919F918F91DE
:1022B0007F916F915F914F913F912F911F910F915E
:1022C000FF90EF900F900BBE0F900FBE0F901F90DE
:1022D0001895AF92BF92CF92DF92EF92FF920F9339
:1022E0001F9360E070E0CB019B01AC017B018C018E
:1022F0005B016C010E94AC0A1F910F91FF90EF905F
:10230000DF90CF90BF90AF900895FC01E85EFD4F45
:10231000808190E0861797076CF480913602909147
:102320003702009759F481E090E090933702809350
:10233000360204C0109237021092360221E030E0DB
:1023400080913602909137028A30910514F420E092
:1023500030E0C90108951F93182F81E10E945501B3
:10236000812F0E9455018091F8018823E1F30E949A
:102370004201882391F31F9108954F925F926F92CB
:102380007F928F929F92AF92BF92CF92DF92EF9205
:10239000FF920F931F93CF93DF938C013B01C1E01A
:1023A000D0E0CC24DD248FEFA82EB12C88249924F2
:1023B000EE24FF2444245524401A510A14C0602FEF
:1023C00017FD642D8C2F0E94D22D90E0C816D906DF
:1023D00014F46C017E018A159B0524F4009711F01A
:1023E0005C014E0121966C167D064CF71016110605
:1023F0000CF07401C701DF91CF911F910F91FF90F5
:10240000EF90DF90CF90BF90AF909F908F907F9094
:102410006F905F904F9008956F927F928F929F92EE
:10242000AF92BF92CF92DF92EF92FF920F931F93E2
:10243000D62EC72EB82EA92E922E832E742E652E40
:102440006E2D7F2D802F912FD601F5012B2F3A2F46
:102450004F2F5E2F0E94C4311816ACF06E2D7F2DC9
:10246000802F912FD401F3012B2F3A2F4F2F5E2F66
:102470000E94D42F87FF03C06401530104C0DE2CE7
:10248000CF2CB02EA12EA6019501652F7C2D832F78
:102490009A2D1F910F91FF90EF90DF90CF90BF90FA
:1024A000AF909F908F907F906F9008952F923F9262
:1024B0004F925F926F927F929F92AF92BF92CF9214
:1024C000DF92EF92FF920F931F93DF93CF93CDB7DD
:1024D000DEB728970FB6F894DEBF0FBECDBF982E9B
:1024E0005B015A8349831092370210923602109290
:1024F000FD011092FC018091FC019091FD019093EF
:102500003E0380933D0380913D0390913E03909361
:1025100025028093240260E070E080E090E0DC011E
:102520008B01000F111F000F111F9801235D3C4FFD
:10253000F90180839183A283B38320813181428119
:102540005381F801E55EFC4F20833183428353833E
:102550006F5F7F4F6430710519F700D000D000D055
:10256000EDB7FEB7319605E013E0ADB7BEB71296F2
:102570001C930E9311978FE991E09383828384EAF1
:1025800091E0958384830E94CA2EEDB7FEB73696FC
:102590000FB6F894FEBF0FBEEDBF80E090E067E09D
:1025A00070E0A8010E947E01109249021092480238
:1025B000892D66E60E94D22DD82EE0905A02F09026
:1025C0005B0200915C0210915D02B501882777FDE6
:1025D0008095982F0E947630A80197010E94FB2ECB
:1025E0000E9443303B016D187108882777FD809564
:1025F000982F0E9476305B016C01B301882777FD2C
:102600008095982F0E9476307B018C01C30168E58C
:1026100072E00E94E835882777FD8095982F0E9408
:1026200076302FE832EC45E75EE30E94FB2E9B01FB
:10263000AC01C801B7010E9466329B01AC01C60122
:10264000B5010E94FB2E0E9443301B0191E0692ED0
:10265000712C8091FC019091FD010097D1F770924F
:10266000FD016092FC01892D66E60E94D22DE82EC4
:10267000FF24892D67E60E94D22D38C00E9469117F
:10268000892D66E60E94D22DE82E892D67E60E94EC
:10269000D22D20914802309149022115310521F4B3
:1026A000709249026092480220914802309149029A
:1026B000F1E02F353F071CF00E946911D5C0FF24BF
:1026C000E114F10499F020E030E0A9012093280200
:1026D0003093290240932A0250932B0220930E023A
:1026E00030930F024093100250931102A82EBB2486
:1026F000E114F10421F4A114B10409F4BFCFE218EC
:10270000F308B701882777FD8095982F0E947630CF
:102710002DEC3CEC4CE45FE30E9466320E944330B7
:10272000882777FD8095982F0E9476307B018C0159
:1027300060E070E088E492E420E030E048E452ECAD
:102740000E940C120E9443302B0169817A816A1920
:102750007B09882777FD8095982F0E9476307B0132
:102760008C0160E070E080E792E420E030E040E738
:1027700052EC0E940C120E94433078876F83A09025
:102780005A02B0905B02C0905C02D0905D02AB0137
:10279000BA01882777FD8095982F0E947630209186
:1027A00028023091290240912A0250912B020E9466
:1027B00066322DEC3CEC4CE45FE30E9466326B83A6
:1027C0007C838D839E83B201882777FD8095982F27
:1027D0000E94763020910E0230910F02409110023B
:1027E000509111020E9466327B018C0160914A0275
:1027F00070914B02882777FD8095982F0E94763044
:10280000A60195010E94FB2E5B016C0160E070E067
:10281000CB012B813C814D815E810E94AC0A80916D
:10282000240290912502009721F470922502609273
:102830002402809124029091250251E08F35950762
:102840005CF44114510409F004CF8F8198850196FE
:102850008330910508F0FDCE1092370210923602B7
:10286000109225021092240228960FB6F894DEBF2B
:102870000FBECDBFCF91DF911F910F91FF90EF90D1
:10288000DF90CF90BF90AF909F907F906F905F90C0
:102890004F903F902F9008952F923F925F926F92AA
:1028A0007F928F929F92AF92BF92CF92DF92EF92E0
:1028B000FF920F931F93DF93CF93CDB7DEB760974F
:1028C0000FB6F894DEBF0FBECDBF582E7A83698352
:1028D0005C834B833E832D83109237021092360225
:1028E0001092FD011092FC018091FC019091FD017C
:1028F00090933E0380933D0380913D0390913E036E
:10290000909325028093240260E070E080E090E0E4
:10291000DC018B01000F111F000F111F9801235DB7
:102920003C4FF90180839183A283B383208131815D
:1029300042815381F801E55EFC4F2083318342835D
:1029400053836F5F7F4F6430710519F700D000D05B
:1029500000D0EDB7FEB7319605E013E0ADB7BEB7D6
:1029600012961C930E9311978FE991E093838283C3
:1029700088EA91E0958384830E94CA2EEDB7FEB762
:1029800036960FB6F894FEBF0FBEEDBF80E090E024
:1029900067E070E0A8010E947E0110924902109247
:1029A00048028824992480E090E06624772431E06E
:1029B000232E312C988B8F878091FC019091FD0103
:1029C0000097D1F73092FD012092FC01852D66E63B
:1029D0000E94D22DE82EFF24852D67E60E94D22D7D
:1029E000082F10E0B701CF84D8883BC00E9469113E
:1029F000852D66E60E94D22DA82E852D67E60E94C1
:102A0000D22D20914802309149022115310521F43F
:102A100030924902209248022091480230914902A6
:102A2000F1E02F353F071CF00E94691122C16A2D89
:102A300070E06115710599F020E030E0A901209364
:102A400028023093290240932A0250932B022093AC
:102A50000E0230930F024093100250931102082F80
:102A600010E06115710521F40115110509F4BECFBF
:102A7000D88ACF864B815C814115510589F0641B52
:102A8000750B882777FD8095982F0E9476302DEC66
:102A90003CEC4CE45FE30E9466320E9443303B0111
:102AA00089819A81009791F0E81AF90AB70188277D
:102AB00077FD8095982F0E9476302AE939E949E11F
:102AC0005FE30E9466320E9443304B01AD81BE81BC
:102AD000109721F0A01BB10BB88BAF87B3018827EB
:102AE00077FD8095982F0E9476307B018C0160E005
:102AF00070E080EF91E420E030E040EF51EC0E9484
:102B00000C120E9443303B01EF85F889BF018827F2
:102B100077FD8095982F0E9476307B018C0160E0D4
:102B200070E08CE592E420E030E04CE552EC0E944D
:102B30000C120E944330788B6F87B401882777FD91
:102B40008095982F0E9476307B018C0160E070E0C8
:102B500088E492E420E030E048E452EC0E940C1259
:102B60000E9443304B01E0900E02F0900F02009162
:102B7000100210911102B301882777FD8095982FDC
:102B80000E947630A80197010E9466322DEC3CEC41
:102B90004CE45FE30E9466326F83788789879A8767
:102BA0002F853889B901882777FD8095982F0E9455
:102BB0007630209128023091290240912A025091CA
:102BC0002B020E9466322DEC3CEC4CE45FE30E9449
:102BD00066326B877C878D879E87B401882777FD57
:102BE0008095982F0E947630A80197010E94663246
:102BF0007B018C0160914A0270914B02882777FD1E
:102C00008095982F0E9476305B016C016F817885EA
:102C100089859A852B853C854D855E850E94AC0A09
:102C20008091240290912502009721F43092250290
:102C300020922402809124029091250231E08F3568
:102C400093077CF46114710409F0B6CE8F859889DE
:102C500001968330910508F0AFCE8114910409F0FC
:102C6000ABCE1092370210923602109225021092CB
:102C7000240260960FB6F894DEBF0FBECDBFCF9191
:102C8000DF911F910F91FF90EF90DF90CF90BF9059
:102C9000AF909F908F907F906F905F903F902F901C
:102CA00008952F923F924F925F926F927F928F92F0
:102CB0009F92AF92BF92CF92DF92EF92FF920F93CB
:102CC0001F93DF93CF93CDB7DEB72C970FB6F89451
:102CD000DEBF0FBECDBF5C013B015C834B8319019E
:102CE0001A83098310923702109236021092FD0166
:102CF0001092FC018091FC019091FD0190933E03A4
:102D000080933D0380913D0390913E039093250273
:102D10008093240260E070E080E090E0DC018B01B1
:102D2000000F111F000F111F9801235D3C4FF90187
:102D300080839183A283B383208131814281538137
:102D4000F801E55EFC4F20833183428353836F5F3C
:102D50007F4F6430710519F700D000D000D0EDB777
:102D6000FEB7319605E013E0ADB7BEB712961C93DF
:102D70000E9311978FE991E0938382838BEA91E020
:102D8000958384830E94CA2EEDB7FEB736960FB6A0
:102D9000F894FEBF0FBEEDBF80E090E067E070E00A
:102DA000A8010E947E018091620290916302A0912D
:102DB0006402B09165028D839E83AF83B887C5019D
:102DC000B30140E050E020E030E08101E980FA808A
:102DD0000E94F00CA114B10471F16114710459F155
:102DE000B101882777FD8095982F0E9476307B016E
:102DF0008C0160911B0370911C0380911D039091C5
:102E00001E0320911F033091200340912103509114
:102E100022030E94D1319B01AC01C801B7010E947D
:102E2000DB2F9B01AC015F77C801B7010E946632BE
:102E30000E9443301B01C501B3014B815C8120E03E
:102E400030E08101E980FA800E94F00C90933E030B
:102E500080933D03C1010A966AE070E00E94E83564
:102E6000CB01AA2797FDA095BA2F89879A87AB87B0
:102E7000BC878091FC019091FD010097D1F7A1E002
:102E8000B0E0B093FD01A093FC0180913D039091CF
:102E90003E0369817A810E94DF0DEB81FC813097CE
:102EA00009F041C0209162023091630240916402B6
:102EB000509165026D817E818F8198850E94FA2EE6
:102EC000662EA72EE82E092F69857A858B859C852D
:102ED0000E9476309B01AC01662D7A2D8E2D902FAD
:102EE0000E946632E62EF72E082F192FC801B7016F
:102EF0009F7720E030E040EF51E40E94C431181683
:102F000054F40F2EF0E0EF2EF0E0FF2EF0E00F2F44
:102F1000F0E01F2FF02DE0923503F092360300937E
:102F20003703109338038091240290912502009773
:102F300031F481E090E09093250280932402809107
:102F40003D0390913E032091240230912502821787
:102F500093070CF510923702109236021092250258
:102F6000109224022C960FB6F894DEBF0FBECDBF90
:102F7000CF91DF911F910F91FF90EF90DF90CF9055
:102F8000BF90AF909F908F907F906F905F904F9089
:102F90003F902F90089560902D0370902E038090A5
:102FA0002F039090300320903103309032034090F3
:102FB000330350903403E0903503F09036030091D2
:102FC00037031091380360914A0270914B028827B1
:102FD00077FD8095982F0E9476305B016C01C401CB
:102FE000B301A20191010E94AC0A43CFEF92FF927C
:102FF0000F931F937B01FA0189019C01220F331F5C
:10300000280F391F4E2D5F2D57FF03C05095419556
:103010005F4F249FC001259F900D349F900D112478
:1030200064EB70E00E94E83580E090E0A7019F012A
:103030000E9451161F910F91FF90EF9008952F92CB
:103040003F924F925F926F927F928F929F92AF9238
:10305000BF92CF92DF92EF92FF920F931F93DF9375
:10306000CF93CDB7DEB762970FB6F894DEBF0FBE31
:10307000CDBF9A8789877C876B873A0119011C83AA
:103080000B83FE86ED86BA82A982109237021092D7
:1030900036021092FD011092FC018091FC0190918A
:1030A000FD0190933E0380933D0380913D039091F9
:1030B0003E03909325028093240260E070E080E05C
:1030C00090E0DC019B01220F331F220F331FF90117
:1030D000E35DFC4F80839183A283B383E080F18022
:1030E00002811381255E3C4FF901E082F182028367
:1030F00013836F5F7F4F6430710521F700D000D0DC
:1031000000D0EDB7FEB7319605E013E0ADB7BEB71E
:1031100012961C930E9311978FE991E0938382830B
:1031200080EB91E0958384830E94CA2EEDB7FEB7B1
:1031300036960FB6F894FEBF0FBEEDBF80E090E06C
:1031400067E070E0A8010E947E0180916202909188
:103150006302A0916402B09165028D839E83AF8368
:10316000B887C301B10140E050E020E030E08601C3
:10317000E980FA800E94F00C6114710471F121144D
:10318000310459F1B601882777FD8095982F0E9468
:1031900076307B018C0160911B0370911C03809140
:1031A0001D0390911E0320911F0330912003409135
:1031B0002103509122030E94D1319B01AC01C8012F
:1031C000B7010E94DB2F9B01AC015F77C801B701FB
:1031D0000E9466320E9443306B01C301B1014B81F2
:1031E0005C8120E030E08601E980FA800E94F00CEA
:1031F00090933E0380933D03C6010A966AE070E017
:103200000E94E835CB01AA2797FDA095BA2F8F879A
:10321000988BA98BBA8B8091FC019091FD0100974E
:10322000D1F7A1E0B0E0B093FD01A093FC01809143
:103230003D0390913E0369817A810E94DF0DEB810D
:10324000FC81309709F041C0209162023091630205
:1032500040916402509165026D817E818F819885D5
:103260000E94FA2E662EA72EE82E092F6F857889E8
:1032700089899A890E9476309B01AC01662D7A2D4E
:103280008E2D902F0E946632E62EF72E082F192FD2
:10329000C801B7019F7720E030E040EF51E40E9481
:1032A000C431181654F40F2EF0E0EF2EF0E0FF2E8C
:1032B000F0E00F2FF0E01F2FF02DE0923503F09299
:1032C00036030093370310933803809124029091C2
:1032D0002502009731F481E090E0909325028093DD
:1032E000240280913D0390913E032091240230916D
:1032F00025028217930764F0A985BA85109749F5CE
:103300008B859C856D857E850E948511009709F1CE
:103310001092370210923602109225021092240267
:1033200062960FB6F894DEBF0FBECDBFCF91DF918E
:103330001F910F91FF90EF90DF90CF90BF90AF90D3
:103340009F908F907F906F905F904F903F902F90C5
:10335000089560902D0370902E0380902F0390901D
:10336000300320903103309032034090330350906B
:103370003403E0903503F090360300913703109149
:10338000380360914A0270914B02882777FD80953F
:10339000982F0E9476305B016C01C401B301A20139
:1033A00091010E94AC0A37CF2F923F924F925F92C9
:1033B0006F927F928F929F92AF92BF92CF92DF9245
:1033C000EF92FF920F931F93DF93CF93CDB7DEB7AA
:1033D0002E970FB6F894DEBF0FBECDBF9A838983B8
:1033E0005B013A013E832D831801FC82EB8210922F
:1033F0003702109236021092FD011092FC0180916A
:10340000FC019091FD0190933E0380933D038091D8
:103410003D0390913E03909325028093240260E047
:1034200070E080E090E0DC019B01220F331F220F4F
:10343000331FF901E35DFC4F80839183A283B38343
:10344000E080F18002811381255E3C4FF901E0822A
:10345000F182028313836F5F7F4F6430710521F720
:1034600000D000D000D0EDB7FEB7319605E013E0F4
:10347000ADB7BEB712961C930E9311978FE991E0EA
:103480009383828387EB91E0958384830E94CA2E85
:10349000EDB7FEB736960FB6F894FEBF0FBEEDBF80
:1034A00080E090E067E070E0A8010E947E018091DA
:1034B000620290916302A0916402B09165028F83D1
:1034C0009887A987BA87C501B30140E050E020E0A2
:1034D00030E08101EB80FC800E94F00CA114B1046B
:1034E00071F16114710459F1B101882777FD80955C
:1034F000982F0E9476307B018C0160911B037091A4
:103500001C0380911D0390911E0320911F03309195
:10351000200340912103509122030E94D1319B014D
:10352000AC01C801B7010E94DB2F9B01AC015F77A2
:10353000C801B7010E9466320E9443301B01C501D9
:10354000B3014D815E8120E030E08101EB80FC80A1
:103550000E94F00C90933E0380933D03C1010A96B4
:103560006AE070E00E94E835CB01AA2797FDA0959C
:10357000BA2F8B879C87AD87BE878091FC01909185
:10358000FD010097D1F7A1E0B0E0B093FD01A09359
:10359000FC0180913D0390913E036B817C810E94F0
:1035A000DF0DED81FE81309709F041C0209162026C
:1035B0003091630240916402509165026F81788579
:1035C00089859A850E94FA2E662EA72EE82E092F4D
:1035D0006B857C858D859E850E9476309B01AC0134
:1035E000662D7A2D8E2D902F0E946632E62EF72EB4
:1035F000082F192FC801B7019F7720E030E040EF76
:1036000051E40E94C431181654F40F2EF0E0EF2E4E
:10361000F0E0FF2EF0E00F2FF0E01F2FF02DE092F2
:103620003503F092360300933703109338038091EB
:10363000240290912502009731F481E090E090936C
:1036400025028093240280913D0390913E032091B6
:10365000240230912502821793074CF4109237020E
:1036600010923602109225021092240263C0A981A2
:10367000BA81109739F48091790290917A0200977B
:1036800069F110C0E981FA81E130F105B1F0898179
:103690009A818230910511F58091790290917A0298
:1036A000009759F0109237021092360210922502BC
:1036B0001092240221E030E03CC080917F02909182
:1036C0008002009759F01092370210923602109241
:1036D00025021092240222E030E02BC060902D03DE
:1036E00070902E0380902F03909030032090310330
:1036F000309032034090330350903403E090350310
:10370000F0903603009137031091380360914A021C
:1037100070914B02882777FD8095982F0E94763014
:103720005B016C01C401B301A20191010E94AC0ACA
:1037300024CFC9012E960FB6F894DEBF0FBECDBFC1
:10374000CF91DF911F910F91FF90EF90DF90CF907D
:10375000BF90AF909F908F907F906F905F904F90B1
:103760003F902F9008952F923F924F925F926F92C9
:103770007F928F929F92AF92BF92CF92DF92EF9201
:10378000FF920F931F93DF93CF93CDB7DEB7AA9726
:103790000FB6F894DEBF0FBECDBF4C017A836983AC
:1037A0005C834B8339011C870B87FE82ED82B886D0
:1037B000AF8210923702109236021092FD011092E1
:1037C000FC018091FC019091FD0190933E03809358
:1037D0003D0380913D0390913E0390932502809399
:1037E000240220E030E00F2EF0E0EF2EF0E0FF2E7C
:1037F000F0E00F2FF0E01F2FF02DC901880F991F67
:10380000880F991FFC01E35DFC4FE082F182028387
:1038100013834081518162817381855E9C4FDC01FD
:103820004D935D936D937C9313972F5F3F4F24309F
:10383000310519F700D000D000D0EDB7FEB73196B2
:1038400005E013E0ADB7BEB712961C930E93119727
:103850008FE991E09383828385EC91E09583848363
:103860000E94CA2EEDB7FEB736960FB6F894FEBF8B
:103870000FBEEDBF80E090E067E070E0A8010E941D
:103880007E0128E230E049815A81429FC001439F76
:10389000900D529F900D112420914A0230914B02BD
:1038A000820F931F68E671E00E94E835843B910522
:1038B00024F411E0212E312C03C022242A94322C2E
:1038C00080E090E06B817C8140E050E020E030E0DF
:1038D0008601EF80F8840E94F00C90933E03809361
:1038E0003D03C301880F991F880F991F860D971DEF
:1038F0004BEF5FEF649E9001659E300D749E300D1E
:103900001124269CB001279C700D369C700D11244B
:103910007A876987D4011896BA8BA98BE981FA81D5
:10392000E85EFD4FFC8BEB8BA601662757FD60958B
:10393000762F4D8B5E8B6F8B788FD094C194D1088E
:10394000D394A601662757FD6095762F498F5A8F2D
:103950006B8F7C8FAC01662757FD6095762F4D8F5E
:103960005E8F6F8F78A3B901882777FD8095982F98
:1039700069A37AA38BA39CA38827992788199909FF
:103980009EA38DA380913D0390913E036F81788526
:103990000E94DF0D8091FC019091FD01009791F74D
:1039A000A1E0B0E0B093FD01A093FC01E989FA89A0
:1039B000E131F10508F04AC080911902882309F429
:1039C0006BC0C40197FE02C08DA19EA118141904FA
:1039D00044F06D817E810E948511009709F45CC0DE
:1039E00036C1885E9D4FDC018C9190E0ED81FE81B7
:1039F0008E179F070CF450C029813A81281539058C
:103A000009F025C1C0903103D0903203E090330318
:103A1000F090340360914A0270914B02882777FD41
:103A20008095982F0E9476304B015C0160E070E039
:103A3000CB01A70196017B018C01650154010E9415
:103A4000AC0A31E33A95F1F7000001C14DE084166C
:103A5000910411F58091790290917A02009759F0C2
:103A60001092370210923602109225021092240210
:103A700021E030E0F5C080917F02909180020097B4
:103A800059F01092370210923602109225021092CD
:103A9000240222E030E0E4C0AB89BC898C91E82F9D
:103AA000F0E02B853C85E21BF30BFE87ED87CF0111
:103AB000F7FF03C0909581959F4F853091052CF1BC
:103AC0006D8D7E8D8F8D98A10E9476305B016C018B
:103AD00069A17AA18BA19CA10E9476302B013C01A7
:103AE0004D855E85BA01882777FD8095982F0E94C5
:103AF00076307B018C01C601B501A30192010E94C1
:103B00000C120E9443306B0102C0CD84DE846B81B5
:103B10007C8177FF04C0D094C194D108D3947CE019
:103B20008716910449F4ED84FE84EE0CFF1CEE0C24
:103B3000FF1CCC24DD2402C0ED84FE846D897E89C7
:103B40008F89988D0E9476302B013C01698D7A8D8A
:103B50008B8D9C8D0E9476306D877E878F87988BAA
:103B6000C70162E070E00E94E835882777FD809504
:103B7000982F0E9476307B018C01C301B2012D8504
:103B80003E854F8558890E940C1220913103309157
:103B9000320340913303509134032FA338A749A730
:103BA0005AA70E94433088279927861B970B829D2E
:103BB000B001839D700D929D700D1124882777FDB3
:103BC0008095982F0E9476302B013C01D094C194AF
:103BD000D108D39489859A85C89EB001C99E700D7D
:103BE000D89E700D1124882777FD8095982F0E940C
:103BF00076307B018C0160914A0270914B028827DC
:103C000077FD8095982F0E9476305B016C01C3018F
:103C1000B2012FA138A549A55AA50E94AC0A8091EE
:103C2000240290912502009731F4A1E0B0E0B09316
:103C30002502A093240280913D0390913E032091A0
:103C4000240230912502821793070CF09BCE10922C
:103C5000370210923602109225021092240201C0FF
:103C6000C901AA960FB6F894DEBF0FBECDBFCF91A3
:103C7000DF911F910F91FF90EF90DF90CF90BF9059
:103C8000AF909F908F907F906F905F904F903F90FC
:103C90002F9008952F923F924F925F926F927F9252
:103CA0008F929F92AF92BF92CF92DF92EF92FF924C
:103CB0000F931F93DF93CF93CDB7DEB762970FB605
:103CC000F894DEBF0FBECDBF5C014B013A01690124
:103CD0001E870D8710923702109236021092FD0156
:103CE0001092FC018091FC019091FD0190933E03A4
:103CF00080933D0380913D0390913E039093250274
:103D00008093240260E070E080E090E0DC018B01B1
:103D1000000F111F000F111F9801235D3C4FF90187
:103D200080839183A283B383208131814281538137
:103D3000F801E55EFC4F20833183428353836F5F3C
:103D40007F4F6430710519F700D000D000D0EDB777
:103D5000FEB7319605E013E0ADB7BEB712961C93DF
:103D60000E9311978FE991E0938382838AEC91E01F
:103D7000958384830E94CA2EEDB7FEB736960FB6A0
:103D8000F894FEBF0FBEEDBF80E090E067E070E00A
:103D9000A8010E947E01C501B401A30120E030E02A
:103DA0008601ED84FE840E94F00CB601882777FD21
:103DB0008095982F0E9476307B018C0160911B03C7
:103DC00070911C0380911D0390911E0320911F038D
:103DD0003091200340912103509122030E94D13160
:103DE0009B01AC01C801B7010E94DB2F9B01AC0114
:103DF0005F77C801B7010E9466320E9443307B01A1
:103E00008C01C501B401A30120E030E08701ED84FD
:103E1000FE840E94F00C90933E0380933D0399240E
:103E20008824772466248091FC019091FD010097FD
:103E3000D1F781E090E09093FD018093FC018091A7
:103E40003D0390913E036D857E850E94DF0D60915C
:103E50003503709136038091370390913803905861
:103E600020E030E048EC52E40E94DB2F9B01AC01E3
:103E7000D401F3016B2F782D8F2F962D0E94FB2EEE
:103E8000962E872E782E692E60912D0370912E0329
:103E900080912F03909130032091310330913203B0
:103EA0004091330350913403D401F301EB2EFA2EE9
:103EB0000F2F1E2F6E010894C11CD11C0E94340AC2
:103EC0008091240290912502009731F4A1E0B0E0A6
:103ED000B0932502A093240280913D0390913E036C
:103EE0002091240230912502821793070CF510923D
:103EF0003702109236021092250210922402629626
:103F00000FB6F894DEBF0FBECDBFCF91DF911F91EA
:103F10000F91FF90EF90DF90CF90BF90AF909F9068
:103F20008F907F906F905F904F903F902F9008956B
:103F3000E0903503F0903603009137031091380379
:103F400029803A804B805C802D813E814F8158854D
:103F500060914A0270914B02882777FD8095982FD7
:103F60002F87388B498B5A8B0E9476305B016C010E
:103F7000C201B1012F85388949895A890E94AC0A4A
:103F800052CF2F923F924F925F926F927F928F9279
:103F90009F92AF92BF92CF92DF92EF92FF920F93D8
:103FA0001F93DF93CF93CDB7DEB769970FB6F89421
:103FB000DEBF0FBECDBF7C01662E272E6A015901E0
:103FC0001A8B098B10923702109236021092FD0163
:103FD0001092FC018091FC019091FD0190933E03B1
:103FE00080933D0380913D0390913E039093250281
:103FF0008093240260E070E080E090E0DC01462DD8
:104000009B01220F331F220F331FF901E35DFC4F89
:1040100080839183A283B3834080518062807380C8
:10402000255E3C4FF90140825182628273826F5F4C
:104030007F4F6430710521F7642E00D000D000D08E
:10404000EDB7FEB7319605E013E0ADB7BEB71296F7
:104050001C930E9311978FE991E09383828380EDF7
:1040600091E0958384830E94CA2EEDB7FEB7369601
:104070000FB6F894FEBF0FBEEDBF80E090E067E0A2
:1040800070E0A8010E947E01B701882777FD809526
:10409000982F0E9476302BED3FE049E450E40E94D7
:1040A00066327B018C01662D722D77FF03C07095FF
:1040B00061957F4F882777FD8095982F0E947630F5
:1040C0009B01AC01C801B7010E94663220E030E0DC
:1040D00044E353E40E94DB2F0E9443306D877E87C8
:1040E0008F87988B80E090E06D857E85462D522DE0
:1040F00096018501E988FA880E94F00CB5018827AD
:1041000077FD8095982F0E9476307B018C0120915D
:104110001F033091200340912103509122030E94FC
:10412000DB2F9B01AC015F77C801B7010E946632AB
:104130000E9443307B018C0180E090E06D857E859C
:10414000462D522D96018701E988FA880E94F00CCD
:1041500090933E0380933D031E8A1F8A188E198E0A
:104160001D861B8A1C8A1D8A8091FC019091FD018D
:104170000097D1F781E090E09093FD018093FC01DE
:1041800080913D0390913E0369897A890E94DF0DF9
:104190006091350370913603809137039091380315
:1041A00020E030E048EC52E40E94DB2F9B01AC01A0
:1041B000BD85AB89FC89ED896B2F7A2F8F2F9E2FC0
:1041C0000E94FB2E6D877B8B8C8B9D8B60913903BE
:1041D00070913A0380913B0390913C03905820E00A
:1041E00030E048EC52E40E94DB2F9B01AC01BE8919
:1041F000AF89F88DE98D6B2F7A2F8F2F9E2F0E941C
:10420000FB2E6E8B7F8B888F998FA0902D03B090A3
:104210002E03C0902F03D090300360903103709034
:10422000320380903303909034035D854B893C8941
:104230002D89652F742F832F922FBE89AF89F88D1A
:10424000E98D2B2F3A2F4F2F5E2F0E94FB2E7B01E3
:104250008C01C601B501A40193016E010894C11C33
:10426000D11C0E94340A809124029091250200976B
:1042700031F4A1E0B0E0B0932502A0932402809134
:104280003D0390913E032091240230912502821734
:1042900093070CF510923702109236021092250205
:1042A0001092240269960FB6F894DEBF0FBECDBF00
:1042B000CF91DF911F910F91FF90EF90DF90CF9002
:1042C000BF90AF909F908F907F906F905F904F9036
:1042D0003F902F900895E0903903F0903A030091B9
:1042E0003B0310913C0369807A808B809C802D80F9
:1042F0003E804F80588460914A0270914B0288271B
:1043000077FD8095982F0E9476305B016C01C40187
:10431000B301A20191010E94AC0A26CF2F923F92D5
:104320004F925F926F927F928F929F92AF92BF92C5
:10433000CF92DF92EF92FF920F931F93DF93CF9371
:10434000CDB7DEB728970FB6F894DEBF0FBECDBF4E
:104350006D837E838F8398877A0110923702109243
:1043600036021092FD011092FC018091FC019091A7
:10437000FD0190933E0380933D0380913D03909116
:104380003E03909325028093240260E070E080E079
:1043900090E0DC018B01000F111F000F111F98012D
:1043A000235D3C4FF90180839183A283B3832081F5
:1043B000318142815381F801E55EFC4F20833183D6
:1043C000428353836F5F7F4F6430710519F700D0CC
:1043D00000D000D0EDB7FEB7319605E013E0ADB7E1
:1043E000BEB712961C930E9311978FE991E09383B9
:1043F000828383ED91E0958384830E94CA2EEDB77A
:10440000FEB736960FB6F894FEBF0FBEEDBF80E044
:1044100090E067E070E0A8010E947E018091620256
:1044200090916302A0916402B091650289839A839E
:10443000AB83BC838DEC9CECACE4BEE380931202B6
:1044400090931302A0931402B093150237018824AD
:1044500077FC8094982CF094E194F108F394170180
:10446000442437FC4094542C8091FC019091FD0130
:104470000097D1F7A1E0B0E0B093FD01A093FC015B
:104480002091620230916302409164025091650272
:1044900069817A818B819C810E94FA2E2D813E81D7
:1044A0004F8158850E94FA2E20E030E040EA50E427
:1044B0000E946632D62EC72EB82EA92EC401B30193
:1044C0000E9476307B018C01C201B1010E947630DE
:1044D0009B01AC01C801B701ED2CFC2C0B2D1A2D52
:1044E0000E940C127B018C019F772DEC3CEC4CEC74
:1044F0005DE30E94D42F18160CF11092370210922F
:104500003602109225021092240228960FB6F894D3
:10451000DEBF0FBECDBFCF91DF911F910F91FF90F6
:10452000EF90DF90CF90BF90AF909F908F907F9053
:104530006F905F904F903F902F900895C801B70102
:1045400020911202309113024091140250911502F1
:104550000E9466327B018C0160E070E0CB019B0120
:10456000AC015B016C010E94AC0A7ECF2F923F929E
:104570004F925F926F927F928F929F92AF92BF9273
:10458000CF92DF92EF92FF920F931F93DF93CF931F
:10459000CDB7DEB7A3970FB6F894DEBF0FBECDBF81
:1045A0005C013B011A0169011E870D8747011092CA
:1045B0003702109236021092FD011092FC01809198
:1045C000FC019091FD0190933E0380933D03809107
:1045D0003D0390913E03909325028093240220E0B6
:1045E00030E00F2EF0E0EF2EF0E0FF2EF0E00F2F86
:1045F000F0E01F2FF02DC901880F991F880F991F18
:10460000FC01E35DFC4FE082F18202831383408171
:10461000518162817381FC01E55EFC4F40835183CF
:10462000628373832F5F3F4F2430310521F700D021
:1046300000D000D0EDB7FEB7319605E013E0ADB77E
:10464000BEB712961C930E9311978FE991E0938356
:10465000828386ED91E0958384830E94CA2E8DB774
:104660009EB706960FB6F8949EBF0FBE8DBF80E032
:1046700090E067E070E0A8010E947E0180916202F4
:1046800090916302A0916402B09165028C8B9D8B26
:10469000AE8BBF8B8114910409F45DC08DEC9CEC52
:1046A000ACE4BEE38093120290931302A093140231
:1046B000B093150292E0891691040CF44CC0C50128
:1046C000B30140E050E020E030E08601ED84FE845C
:1046D0000E94F00CA114B10471F16114710459F13C
:1046E000B601882777FD8095982F0E9476307B0150
:1046F0008C0160911B0370911C0380911D039091AC
:104700001E0320911F0330912003409121035091FB
:1047100022030E94D1319B01AC01C801B7010E9464
:10472000DB2F9B01AC015F77C801B7010E946632A5
:104730000E9443306B01C501B30140E050E020E02E
:1047400030E08601ED84FE840E94F00C90933E03DD
:1047500080933D035BC0C501B301A10120E030E0BF
:104760008601ED84FE840E94F00CA114B10471F165
:104770006114710459F1B601882777FD8095982F4F
:104780000E9476307B018C0160911B0370911C03A9
:1047900080911D0390911E0320911F0330912003EF
:1047A00040912103509122030E94D1319B01AC0121
:1047B000C801B7010E94DB2F9B01AC015F77C801E4
:1047C000B7010E9466320E9443306B01C501B301FC
:1047D000A10120E030E08601ED84FE840E94F00C0F
:1047E00090933E0380933D036091230370912403D3
:1047F00080912503909126030E944330862E972EA8
:1048000097FE04C090948194910893941F86188A0F
:10481000198A1A8AC101AA2797FDA095BA2F888FF5
:10482000998FAA8FBB8FC401AA2797FDA095BA2F95
:104830008C8F9D8FAE8FBF8F9094819491089394AD
:10484000C401AA2797FDA095BA2F88A399A3AAA36C
:10485000BBA38091FC019091FD010097D1F7A1E0ED
:10486000B0E0B093FD01A093FC0180913D039091D5
:104870003E036D857E850E94DF0D2091620230919E
:10488000630240916402509165026C897D898E8932
:104890009F890E94FA2E7B018C01688D798D8A8D0B
:1048A0009B8D0E9476309B01AC01C801B7010E942C
:1048B000FA2E20E030E040EA50E40E946632C62E34
:1048C000A72E882E692E6C8D7D8D8E8D9F8D0E94DA
:1048D00076307B018C0168A179A18AA19BA10E94FD
:1048E00076309B01AC01C801B701EC2CFA2C082DE5
:1048F000162D0E940C124B015C0120911202309186
:10490000130240911402509115020E9466329B01DD
:10491000AC01209335033093360340933703509313
:10492000380360913503709136038091370390917D
:104930003803905820E030E048EC52E40E94DB2F2E
:104940009B01AC01BF85A889F989EA896B2F7A2F71
:104950008F2F9E2F0E94FB2E6F87788B898B9A8BCF
:1049600060912D0370912E0380912F03909130035D
:10497000209131033091320340913303509134033D
:10498000BF85A889F989EA89EB2EFA2E0F2F1E2FF1
:104990006E010894C11CD11C0E94340A809124022B
:1049A00090912502009731F481E090E090932502E8
:1049B0008093240280913D0390913E032091240234
:1049C00030912502821793075CF480E090E0DC01CF
:1049D0008D839E83AF83B88789839A83AB83BC839F
:1049E000C501B4019F77A1E0AB8B2DEC3CEC4CEC06
:1049F0005DE30E94D42F181614F41B8A0BC080E0CC
:104A000090E0DC018093350390933603A093370345
:104A1000B0933803E0903503F090360300913703EC
:104A20001091380369807A808B809C802D803E8035
:104A30004F80588460914A0270914B02882777FD1D
:104A40008095982F0E9476305B016C01C401B30100
:104A5000A20191010E94AC0A80913D0390913E0316
:104A60002091240230912502821793070CF0F1CE99
:104A70009B89992309F4EDCE1092370210923602E9
:104A80001092250210922402A3960FB6F894DEBF6E
:104A90000FBECDBFCF91DF911F910F91FF90EF908F
:104AA000DF90CF90BF90AF909F908F907F906F904E
:104AB0005F904F903F902F9008952F923F924F928A
:104AC0005F926F927F928F929F92AF92BF92CF929E
:104AD000DF92EF92FF920F931F93DF93CF93CDB7A7
:104AE000DEB768970FB6F894DEBF0FBECDBF9A83CE
:104AF00089837E836D8358874F833A87298757013F
:104B0000DC86CB8610923702109236021092FD019D
:104B10001092FC018091FC019091FD0190933E0365
:104B200080933D0380913D0390913E039093250235
:104B30008093240260E070E080E090E0DC019B0163
:104B4000220F331F220F331FF901E35DFC4F8083D7
:104B50009183A283B3836080718082809380255E7D
:104B60003C4FF90160827182828293826F5F7F4F36
:104B70006430710521F700D000D000D0EDB7FEB74A
:104B80003196B5E0EB2EB3E0FB2EADB7BEB7129673
:104B9000FC92EE9211978FE991E09383828389EDE5
:104BA00091E0958384830E94CA2EEDB7FEB73696B6
:104BB0000FB6F894FEBF0FBEEDBF80E090E067E057
:104BC00070E0A7010E947E0189819A81019629E007
:104BD00030E0B9010E94E8353C0189819A8108964C
:104BE000B9010E94E8351C01809162029091630234
:104BF000A0916402B0916502898B9A8BAB8BBC8BC0
:104C000017FD05C0A1E0B0E0BC83AB8304C0EFEFAB
:104C1000FFEFFC83EB8380E090E0B80140E050E0E0
:104C200020E030E08501EB84FC840E94F00C90933E
:104C30003E0380933D03C5010A966AE070E00E943E
:104C4000E835CB01AA2797FDA095BA2F8D8B9E8BB7
:104C5000AF8BB88FD301A85EBD4FBE87AD87F10182
:104C6000E85EFD4FF88BEF878091FC019091FD018C
:104C70000097D1F721E030E03093FD012093FC0153
:104C800080913D0390913E036B857C850E94DF0DF2
:104C9000209162023091630240916402509165025A
:104CA00069897A898B899C890E94FA2E662EA72EA3
:104CB000E82E092F6D897E898F89988D0E94763024
:104CC0009B01AC01662D7A2D8E2D902F0E946632AD
:104CD000E62EF72E082F192FC801B7019F7720E085
:104CE00030E040EF51E40E94C431181654F40F2E06
:104CF000F0E0EF2EF0E0FF2EF0E00F2FF0E01F2F9E
:104D0000F02DAD85BE858C9190E0ED81FE81E81798
:104D1000F907CCF06C9170E06E1B7F0B882777FD54
:104D20008095982F0E94763020E030E040E650E4F5
:104D30000E94663220E030E0A9010E94FB2E0E9412
:104D400043305B0102C0AA24BB24AF85B8898C9193
:104D500090E0EF81F885E817F9072CF16C90B50128
:104D6000882777FD8095982F0E9476305B016C0133
:104D7000662D70E02F813885621B730B882777FDC5
:104D80008095982F0E94763020E030E040E650EC8D
:104D90000E9466329B01AC01C601B5010E94FB2E48
:104DA0000E9443305B0189859A85009741F0898193
:104DB0009A8169857A850E9485110097B9F480915E
:104DC000240290912502009731F4A1E0B0E0B09365
:104DD0002502A093240280913D0390913E032091EF
:104DE000240230912502821793070CF510923702A6
:104DF00010923602109225021092240268960FB685
:104E0000F894DEBF0FBECDBFCF91DF911F910F9100
:104E1000FF90EF90DF90CF90BF90AF909F908F90DA
:104E20007F906F905F904F903F902F9008952090CB
:104E30003103309032034090330350903403B094E8
:104E4000A194B108B394EB81FC81AE9EB001AF9EFA
:104E5000700DBE9E700D1124882777FD8095982FC8
:104E60000E9476303B014C0160914A0270914B02E6
:104E7000882777FD8095982F0E9476305B016C0122
:104E8000C401B301A20191010E94AC0AEDCE2F92A0
:104E90003F924F925F926F927F928F929F92AF92CA
:104EA000BF92CF92DF92EF92FF920F931F93DF9307
:104EB000CF93CDB7DEB7C054D0400FB6F894DEBF65
:104EC0000FBECDBF9A8389837A8B698B1A013C8789
:104ED0002B873801FE8AED8ABE82AD82109237029E
:104EE000109236021092FD011092FC018091FC019B
:104EF0009091FD0190933E0380933D0380913D038B
:104F000090913E03909325028093240260E070E02C
:104F100080E090E0DC019B01220F331F220F331F42
:104F2000F901E35DFC4F80839183A283B383E0802A
:104F3000F18002811381255E3C4FF901E082F1820C
:104F4000028313836F5F7F4F6430710521F700D0B8
:104F500000D000D0EDB7FEB7319605E013E0ADB755
:104F6000BEB712961C930E9311978FE991E093832D
:104F700082838FED91E0958384830E94CA2EEDB7E2
:104F8000FEB736960FB6F894FEBF0FBEEDBF80E0B9
:104F900090E067E070E0A8010E947E01209162022B
:104FA0003091630240916402509165022F8B388FDB
:104FB000498F5A8FB301620D731D2114310441F0E2
:104FC0006114710429F0CB0162E070E00E94E835C1
:104FD00088E290E049815A81489F9001499F300DB5
:104FE000589F300D1124C90188569140FC0197FF4C
:104FF00004C0EE27FF27E81BF90BA90137FF04C007
:1050000044275527421B530B4E175F070CF4C90169
:1050100040914A0250914B02E8E2F0E06E9F90010D
:105020006F9F300D7E9F300D1124240F351F253BBF
:1050300031052CF461E070E078876F8304C0AFEF36
:10504000BFEFB887AF83840F951F875A9F4F833B6D
:10505000910528F0E1E0F0E0FC8BEB8B04C04FEF12
:105060005FEF5C8B4B8B253B31055CF06F81788566
:105070008FEF6F3F780781F4A1E0B0E0BA87A9878E
:1050800014C0EF81F8852FEFEF3FF20751F44FEF97
:105090005FEF5A87498709C06FEF7FEF7A8769878B
:1050A00004C081E090E09A8789878B859C850A9768
:1050B000B6010E94E835882777FD8095982F0E94D9
:1050C00076306BA37CA38DA39EA389899A890A97C6
:1050D0006D817E810E94E835882777FD8095982F25
:1050E0000E9476306FA378A789A79AA7C6010A966F
:1050F0002AE030E0B9010E94E83578A36F8F8D81F6
:105100009E810A96B9010E94E8357AA369A34424D6
:105110005524882499249601442737FD4095542F1F
:105120002BA73CA74DA75EA7D094C194D108D394D8
:10513000A601662757FD6095762F4FA758AB69AB40
:105140007AAB6D817E81882777FD8095982F6BAB38
:105150007CAB8DAB9EAB8D819E81909581959F4F51
:105160009C01442737FD4095542F2FAB38AF49AFF2
:105170005AAF4CE252E0240E351EB301640F751F86
:105180007CAF6BAF69807A80640E751E7EAE6DAEAB
:105190008091FC019091FD010097D1F781E090E0B2
:1051A0009093FD018093FC01A989BA89109711F1B0
:1051B000EDADFEAD808190E08A1B9B0B2B893C8975
:1051C000289FB001299F700D389F700D11248827EA
:1051D00077FD8095982F0E947630BFA1A8A509A5DC
:1051E000EAA42B2F3A2F402F5E2D0E94DB2F0E9426
:1051F00043302B014B855C854115510509F1D101E7
:105200008C9190E0841B950BEF81F885E89FB001AD
:10521000E99F700DF89F700D1124882777FD809508
:10522000982F0E947630BBA1ACA10DA1EEA02B2F30
:105230003A2F402F5E2D0E94DB2F0E9443304B01FE
:105240002D893E892115310561F1D1018C91EBAD9C
:10525000FCAD208190E04B855C85841B950B6D89AE
:105260007E89860F971F821B9109A985BA85A89F01
:10527000B001A99F700DB89F700D1124882777FD8C
:105280008095982F0E9476302AE939E949E95FE351
:105290000E9466320E94433021967FAF6EAF219705
:1052A00047C02091620230916302409164025091A4
:1052B00065026F89788D898D9A8D0E94FA2E0E94E1
:1052C0004330ED81FE81309771F049A15AA1469F8C
:1052D0009001479F300D569F300D112421963FAF0E
:1052E0002EAF21970DC0AF8DB8A1A69FC001A79F7B
:1052F000900DB69F900D112421969FAF8EAF2197F0
:105300002196EEADFFAD2197BF01882777FD8095EF
:10531000982F0E9476309F7720E030E040EF51E4F4
:105320000E94C431181624F421961FAE1EAE219798
:105330006BA57CA58DA59EA50E94763069837A8396
:105340008B839C836FA578A989A99AA90E9476303E
:105350006D877E878F87988BB401882777FD80952E
:10536000982F0E9476307B018C0169817A818B8134
:105370009C812D853E854F8558890E940C126B8F2C
:105380007C8F8D8F9E8F6BA97CA98DA99EA90E9471
:1053900076305B016C016FA978AD89AD9AAD0E9442
:1053A00076303B014C01B201882777FD8095982F1C
:1053B0000E9476307B018C01C601B501A4019301E6
:1053C0000E940C125B016C0121962EAD3FAD21971E
:1053D000B901882777FD8095982F0E9476307B0150
:1053E0008C0169817A818B819C812D853E854F85D9
:1053F00058890E940C127B018C01809124029091AB
:105400002502009731F441E050E05093250240938B
:105410002402809124029091250251E0853F950756
:10542000D4F46B8D7C8D8D8D9E8D0E9443304B010D
:10543000C601B5010E9443302B01C801B7010E948B
:1054400043306B014114510441F58114910429F555
:105450006115710511F51092370210923602109203
:10546000250210922402C05CDF4F0FB6F894DEBF15
:105470000FBECDBFCF91DF911F910F91FF90EF90A5
:10548000DF90CF90BF90AF909F908F907F906F9064
:105490005F904F903F902F900895E0900E02F09013
:1054A0000F020091100210911102B401882777FDBC
:1054B0008095982F0E9476309B01AC01C801B701FE
:1054C0000E94663269837A838B839C83B20188272A
:1054D00077FD8095982F0E94763020912802309198
:1054E000290240912A0250912B020E9466326D8758
:1054F0007E878F87988BB601882777FD8095982FB8
:105500000E9476309B01AC01C801B7010E9466324F
:105510007B018C0160914A0270914B02882777FDD4
:105520008095982F0E9476305B016C0169817A81A9
:105530008B819C812D853E854F8558890E94AC0AC0
:1055400027CE80917D0290917E02009769F4809130
:10555000790290917A02009739F480912B0390910F
:105560002C03009709F47AC080917D0290917E020D
:105570008130910569F48091790290917A020097C7
:1055800039F480912B0390912C03009709F469C0A2
:1055900080917D0290917E028130910571F480911D
:1055A000790290917A028130910539F480912B0330
:1055B00090912C03009709F457C080917D0290913F
:1055C0007E02009771F48091790290917A02813085
:1055D000910539F480912B0390912C03009709F4E5
:1055E00046C080917D0290917E02009771F4809177
:1055F000790290917A028130910539F480912B03E0
:1056000090912C0381309105A9F180917D029091B8
:105610007E02009769F48091790290917A02009756
:1056200039F480912B0390912C038130910529F15D
:1056300080917D0290917E028130910571F480917C
:10564000790290917A028130910539F480912B038F
:1056500090912C038130910599F0089520E030E07D
:1056600011C021E030E00EC022E030E00BC023E0AA
:1056700030E008C024E030E005C025E030E002C0A2
:105680002AE030E0C9010895DF93CF93CDB7DEB7AC
:105690002C970FB6F894DEBF0FBECDBFFE0131963A
:1056A000ABEEB1E02CE00D9001922150E1F7FC014E
:1056B000EE0FFF1FEC0FFD1F61817281882777FDC0
:1056C0008095982F0E94763020E030E040E85EE33D
:1056D0000E9466320E944330CB012C960FB6F8949C
:1056E000DEBF0FBECDBFCF91DF9108952F923F92C5
:1056F0004F925F926F927F928F929F92AF92BF92E2
:10570000CF92DF92EF92FF920F931F93CF93DF938D
:105710001C015A01790128011092370210923602B9
:105720001092FD011092FC018091FC019091FD010D
:1057300090933E0380933D0380913D0390913E03FF
:10574000909325028093240260E070E080E090E076
:10575000DC01FB01EE0FFF1FEE0FFF1FEF01C35D2A
:10576000DC4F88839983AA83BB83288139814A814E
:105770005B81E55EFC4F20833183428353836F5FFF
:105780007F4F6430710529F700D000D000D0EDB70D
:10579000FEB73196C5E0D3E0ADB7BEB71296DC9345
:1057A000CE9311978FE991E09383828382EE91E00B
:1057B000958384830E94CA2E8DB79EB706960FB636
:1057C000F8949EBF0FBE8DBF80E090E067E070E070
:1057D000AE010E947E0180E090E0B50140E050E023
:1057E00020E030E0870172010E94F00C90933E03AC
:1057F00080933D03C1E0D0E080913D0390913E0352
:10580000B2010E94DF0D8091FC019091FD01009793
:1058100099F7D093FD01C093FC010E94A12A7C015D
:1058200096E0E916F10421F0C7010E94442B02C062
:1058300080E090E0A1E02A16310429F4BAE0EB16EA
:10584000F10439F443C02114310419F4E114F104D2
:10585000E9F16090310370903203809033039090AF
:10586000340366277727681B790B882777FD809597
:10587000982F0E9476307B018C0160914A027091D2
:105880004B02882777FD8095982F0E9476305B0128
:105890006C0160E070E0CB01A40193010E94AC0AAE
:1058A0008091240290912502009721F4D093250243
:1058B000C093240280913D0390913E0320912402E5
:1058C00030912502821793070CF096CF1092370281
:1058D000109236021092250210922402DF91CF918D
:1058E0001F910F91FF90EF90DF90CF90BF90AF90FE
:1058F0009F908F907F906F905F904F903F902F90F0
:105900000895AF92BF92CF92DF92EF92FF920F93E2
:105910001F93DF93CF93CDB7DEB7C059D1400FB6F9
:10592000F894DEBF0FBECDBF80E090E0FC01EE0F2B
:10593000FF1F9C0143E0220F331F4A95E1F7E20F5E
:10594000F31FEF57FD4F11821082138212821582CE
:10595000148217821682118610860196893091056D
:1059600029F708EC10E01092F8011093FD01009364
:10597000FC0107C08091FC019091FD01009709F4A2
:10598000E2C08091F8018823A9F30E944201863584
:1059900051F71092F8018091F8018823E1F30E94F9
:1059A0004201A82EBB2480ED9FEFA80EB91E750101
:1059B00084E0EE0CFF1C8A95E1F7EA18FB086E0103
:1059C0000894C11CD11C00E010E010C01092F80136
:1059D0008091F8018823E1F30E94420190E0C09792
:1059E000F601819391936F010F5F1F4F0E151F05F5
:1059F0006CF3FE01319680E090E044E650E094C004
:105A000022813381DC01AA0FBB1FBC0113E0660FAA
:105A1000771F1A95E1F7A60FB71FAF57BD4F119625
:105A20003C932E9366817781649F9001659F300D32
:105A3000749F300D1124608571858B01000F111F3B
:105A4000660F771F660F771F660F771F060F171FEA
:105A5000200F311F62857385260F371F13963C93E5
:105A60002E93129764857585649F9001659F300D14
:105A7000749F300D1124668577858B01000F111FEF
:105A8000660F771F660F771F660F771F060F171FAA
:105A9000200F311F60897189260F371F15963C939F
:105AA0002E93149762897389649F9001659F300DCE
:105AB000749F300D1124648975898B01000F111FAB
:105AC000660F771F660F771F660F771F060F171F6A
:105AD000200F311F66897789260F371F17963C9351
