:100000000C9455000C9474000C9474000C947400BF
:100010000C9474000C9474000C9474000C94740090
:100020000C9474000C9474000C9474000C94740080
:100030000C9474000C9474000C9455060C94740089
:100040000C9474000C9474000C9405080C947400C7
:100050000C9474000C9474000C9474000C94740050
:100060000C9474000C9474000C9474000C94740040
:100070000C9474000C9474000C9406010C9474009D
:100080000C9474000C9474000C94740005A84CCD6E
:10009000B2D44EB93836A9020C50B9918688083CC2
:1000A000A6AAAA2ABE000000803F11241FBECFEFDF
:1000B000D0E1DEBFCDBF11E0A0E0B1E0E2E8FBE1BE
:1000C00000E00BBF02C007900D92A435B107D9F72D
:1000D00011E0A4E5B1E001C01D92A137B107E1F73D
:1000E0000E944C020C9470080C94000094EA9093C7
:1000F00074009091740097FFFCCF9AE09093730086
:1001000094E8909374009091740097FFFCCF8093D3
:10011000730084E8809374008091740087FFFCCFA3
:1001200084E98093740084EA809374008091740061
:1001300087FFFCCF8BE08093730084E8809374008A
:100140008091740087FFFCCF84E8809374008091D5
:10015000740087FFFCCF8091730094E99093740042
:10016000089594EA909374009091740097FFFCCFE7
:100170009AE09093730094E89093740090917400C7
:1001800097FFFCCF8093730084E880937400809184
:10019000740087FFFCCF6093730084E88093740041
:1001A0008091740087FFFCCF84E9809374000895E8
:1001B00010929B0088E980939A0086E080939D00CE
:1001C000109298008FE580939900789408951F937A
:1001D0001FEF1093730088E4809370000E947205F3
:1001E0000E94F1070E94D8000E946C041FBC85E0A9
:1001F0008EBD1DBD80E78CBD84E087BF78948FE005
:1002000087BB81B3807F81BB1F9108951F920F929E
:100210000FB60F9211248F93DF93CF930F92CDB728
:10022000DEB780919C00898380919B00887BE1F3FD
:1002300081E0809354018981809355010F90CF9183
:10024000DF918F910F900FBE0F901F901895DF9345
:10025000CF930F92CDB7DEB780915501898310926D
:100260005501F89410925401789489810F90CF91A0
:10027000DF91089590919B0095FFFCCF80939C00A7
:10028000089594EA9093740020E030E00BC0E0E71A
:10029000F1E03197F1F700C02F5F3F4FF1E0253FCC
:1002A0003F0721F09091740097FFF1CF9EE090936B
:1002B000730094E89093740020E030E00BC0E0E716
:1002C000F1E03197F1F700C02F5F3F4FF1E0253F9C
:1002D0003F0721F09091740097FFF1CF8093730056
:1002E00084E88093740080E090E00AC0E0E7F1E0E9
:1002F0003197F1F700C00196F1E0853F9F0721F0AB
:100300002091740027FFF2CF84E980937400089550
:10031000EF92FF920F931F93DF93CF9300D0CDB74F
:10032000DEB7082F162F843070F5643160F58BE14D
:1003300049835A830E9441018CE40E944101812F2C
:100340000E944101802F0E94410180E791E00197C6
:10035000F1F700C0E12EFF2449815A81042F152FA7
:1003600006C00E94410194EC9A95F1F700C0E4E1C7
:10037000EE16F10444F4F80181918F010894E11C18
:10038000F11C882371F70F900F90CF91DF911F918F
:100390000F91FF90EF9008951F93DF93CF9300D0BC
:1003A000CDB7DEB7182F8430F0F46431E0F48BE180
:1003B0002A8369830E9441018CE40E944101698182
:1003C000862F0E944101812F0E94410180E791E028
:1003D0000197F1F700C02A81822F0E94410194EC1D
:1003E0009A95F1F700C00F900F90CF91DF911F9178
:1003F00008958BE10E94410183E40E94410186E659
:1004000096EEA0E081509040A040E1F70895EF9271
:10041000FF920F931F93182FF62EE42E842F64E67D
:100420000E948C0D082F282F30E0205D3F4F44277D
:1004300037FD4095542F812F6F2D0E94CC018CE900
:10044000089F002D11240E0D802F6AE00E948C0D54
:10045000E82E6F2D6F5F282F30E0205D3F4F44273F
:1004600037FD4095542F812F0E94CC016F2D6E5F78
:1004700026EFE29E202D1124200F30E0205D3F4F1B
:10048000442737FD4095542F812F0E94CC011F91A6
:100490000F91FF90EF900895AF92BF92CF92DF92AD
:1004A000EF92FF920F931F93DF93CF93CDB7DEB7F9
:1004B00067970FB6F894DEBF0FBECDBF1A821982C0
:1004C0000E94E70084E00E94760090E0909357013C
:1004D000809356018091560190915701982F88275B
:1004E0009093570180935601009156011091570146
:1004F00085E00E94760090E0802B912B909357012D
:10050000809356018E010D5F1F4F40E0E42E41E0C5
:10051000F42E34E6A32EB12C84E00E94760090E005
:100520009A83898389819A81982F88279A838983DE
:10053000C980DA8085E00E94760090E08C299D29B0
:100540009A8389838EE10E9476008823D9F70E94DE
:10055000F90189819A81209156013091570100D08B
:1005600000D000D0EDB7FEB73196ADB7BEB712964A
:100570001C930E931197F382E282821B930BB501B9
:100580000E94980D758364830E9473088DB79EB78F
:1005900006960FB6F8949EBF0FBE8DBF80E060E058
:1005A000A8010E9488018FEF9FE7A6E1815090404B
:1005B000A040E1F700C00000AFCF90E0FC01B09692
:1005C000FE2FEE2720812093700120FDFBCF88961F
:1005D000B82FAA278C9190819093700190FDFBCF4A
:1005E000089590E08096F82FEE2780818093700127
:1005F00080FDFBCF608380818093700180FDFBCF05
:10060000089580E061E00E94F10282E061E00E94D2
:10061000F10281E061E00E94F1020895A82FB0E0AC
:10062000FD01B096FE2FEE2780818093700180FD42
:10063000FBCF9896BA2FAA27872F992787FD9A95DF
:100640008C9380818093700180FDFBCF6C938081BF
:100650008093700180FDFBCF08951F93CF93DF93AC
:10066000182F80E06FE10E94F102C1E0D0E002C0EB
:10067000CC0FDD1F1A95E2F780E0BE010E940E0349
:1006800081E06FE10E94F10281E0BE010E940E0351
:1006900082E06FE10E94F10282E0BE010E940E033F
:1006A00080E061E00E94F10282E061E00E94F102DC
:1006B00081E061E00E94F102DF91CF911F910895E6
:1006C000DF92EF92FF920F931F93D82E7A018B0146
:1006D0009B01552737FD5095452FB9010E940E0308
:1006E0008D2DB7010E940E031F910F91FF90EF9087
:1006F000DF9008951F93182F60E00E94F1028CECA8
:100700009CE10197F1F700C00000812F6DE10E948C
:10071000F102812F60E070E00E940E031F910895A6
:10072000AF92BF92CF92DF92EF92FF920F931F93FF
:10073000CF93DF93F82E6B01EA018901AA24A394D9
:100740006115710509F4AA24BB24B394209709F418
:10075000BB24EE24E3940115110509F4EE248F2D3A
:100760006EE10E94F1026B2D70E0660F771F660F3D
:10077000771F8A2D90E043E0880F991F4A95E1F793
:10078000682B792B8E2D90E0880F991F682B792B81
:100790008F2D0E940E03AA2021F08F2DB6010E94FA
:1007A0000E03BB2021F08F2DBE010E940E03EE2010
:1007B00021F08F2DB8010E940E038F2D64E00E945E
:1007C000F102DF91CF911F910F91FF90EF90DF9099
:1007D000CF90BF90AF9008958F929F92AF92BF92AB
:1007E000CF92DF92EF92FF920F931F93CF93DF93FD
:1007F000F82E4B016A01E901AA24A3946115710541
:1008000009F4AA24BB24B394C114D10409F4BB2471
:10081000EE24E394209709F4EE248F2D6EE10E94DC
:10082000F1026A2D70E0A3E0660F771FAA95E1F749
:1008300061608B2D90E0880F991F880F991F682B9E
:10084000792B8E2D90E0880F991F682B792B8F2D97
:100850000E940E03AA2021F08F2DB4010E940E03E6
:10086000BB2021F08F2DB6010E940E03EE2021F057
:100870008F2DBE010E940E038F2DB8010E940E0322
:100880008F2D64E00E94F102DF91CF911F910F91B3
:10089000FF90EF90DF90CF90BF90AF909F908F90A0
:1008A0000895DF92EF92FF920F931F93D82E7A0153
:1008B0008B016FE10E94F1028D2D60E270E00E94D9
:1008C0000E038D2DB801A7010E9460031F910F91A7
:1008D000FF90EF90DF90089580E067E070E043E0E4
:1008E00050E021E030E00E94900381E067E070E09A
:1008F00043E050E021E030E00E94900382E067E0B6
:1009000070E043E050E021E030E00E94900380E09E
:100910004FEF5FEF6FEF7FE30E94510481E04FEFF5
:100920005FEF6FEF7FE30E94510482E04FEF5FEFD4
:100930006FEF7FE30E9451040895DF92EF92FF92E0
:100940000F931F93DF93CF930F92CDB7DEB7D82EBF
:100950007A018B0177FF0AC010950095F094E0941E
:10096000E11CF11C011D111D90E001C091E08D2DD5
:100970006FE199830E94F1029981792F7295707FBE
:1009800060E0686078608D2D0E940E038D2DB801A7
:10099000A7010E9460030F90CF91DF911F910F91EB
:1009A000FF90EF90DF900895AF92BF92CF92DF92C9
:1009B000EF92FF920F931F93DF93CF93CDB7DEB7E4
:1009C0002C970FB6F894DEBF0FBECDBF59016A0158
:1009D0000E94420969837A838B839C83C601B50197
:1009E0000E9442096D837E838F839887C801B70177
:1009F0000E94420969877A878B879C878E010F5FE7
:100A00001F4FEE24F801608171818281938121E77B
:100A10003CEA4BE85EE30E942F0A9B01AC01F8011F
:100A200021933193419351938F0120E030E040E8CE
:100A300057E40E942F0A0E940F09AB01BC018E2DC2
:100A40000E949D04E394FE2DF330E1F60E94010321
:100A50002C960FB6F894DEBF0FBECDBFCF91DF91BD
:100A60001F910F91FF90EF90DF90CF90BF90AF90CC
:100A700008954F925F926F927F928F929F92AF9262
:100A8000BF92CF92DF92EF92FF920F931F93982E17
:100A9000862E29013A016FE10E94F102682D70E073
:100AA0006A62892D0E940E03892DB301A2010E9462
:100AB0006003892DB801A7010E946003892DB6014A
:100AC000A5010E9460031F910F91FF90EF90DF90AE
:100AD000CF90BF90AF909F908F907F906F905F90DE
:100AE0004F9008959F92AF92BF92CF92DF92EF9274
:100AF000FF920F931F93DF93CF9300D00F92CDB748
:100B0000DEB71ABA15BA8FEF84BB1092650083E086
:100B10008093640010E8A12EB4E8BB2E6E01089407
:100B2000C11CD11C85B3856085BB83E39BE2019723
:100B3000F1F785B38A7F85BBECECFCE13197F1F7E7
:100B400000C00000809165008D7F80936500AB98A8
:100B500085B3887F85BB99B39983A89A19B385B368
:100B6000887F826085BB09B3943C09F494C09438B3
:100B700009F491C015BA80E060E044E051E00E94C1
:100B8000880181E060E04AE051E00E948801143C65
:100B900009F481C0143809F47EC015BA80E060E021
:100BA00044E051E00E94880182E060E04AE151E0C7
:100BB0000E948801043C09F46EC0043809F46BC03B
:100BC00015BA80E060E044E051E00E94880183E0D3
:100BD00060E04AE251E029C09E2C9C18892D6DE10D
:100BE0000E94F102892D60E070E00E940E03F8017E
:100BF0008081F70181937F0100501F4FF3E20030A5
:100C00001F0751F78981803C99F0803889F085B7BA
:100C10008F7385BF15BA80E060E04AE351E00E941F
:100C2000880181E060E04AE051E00E9488017ACFCB
:100C300080E060E040E451E00E94880180E098B3E9
:100C4000976098BB2FEF3FEB46E02150304040408B
:100C5000E1F700C0000098B3987F98BB2FEF3FEBFF
:100C600046E0215030404040E1F700C000008F5F77
:100C7000833029F70E94F9010F900F900F90CF91C8
:100C8000DF911F910F91FF90EF90DF90CF90BF9079
:100C9000AF909F900895A5BE82E080936D00B092C2
:100CA0006C00760100E010E297CF1F920F920FB612
:100CB0000F9211248F938FEF8DBD80E78CBD8F91A4
:100CC0000F900FBE0F901F9018952F923F924F924A
:100CD0005F926F927F928F929F92AF92BF92CF92CC
:100CE000DF92EF92FF920F931F931B012C0159018A
:100CF0006A01CA01B90122E03BE247E05DE30E94DC
:100D00002F0A962E872E782E692EC801B70129E268
:100D10003CE54FE05EE30E942F0A8B017C01C2019B
:100D2000B10122E430E645E65DE30E942F0AD401DA
:100D3000F3012B2F3A2F4F2F5E2F0E94A408202F54
:100D4000312F4E2D5F2D0E94A40820E030E040E8B6
:100D500057E40E942F0A0E940F09AB01BC0180E0FA
:100D60000E949D04C601B50128EB3EE145E85DEB1C
:100D70000E942F0A202F312F4E2D5F2D0E94A40894
:100D800020E030E040E857E40E942F0A0E940F095B
:100D9000AB01BC0181E00E949D04C201B10122E4CB
:100DA00030E645E65DEB0E942F0AD401F3012B2FBC
:100DB0003A2F4F2F5E2F0E94A408202F312F4E2D47
:100DC0005F2D0E94A40820E030E040E857E40E9434
:100DD0002F0A0E940F09AB01BC0182E00E949D0412
:100DE0000E9401031F910F91FF90EF90DF90CF9031
:100DF000BF90AF909F908F907F906F905F904F903B
:100E00003F902F9008952F923F924F925F926F9252
:100E10007F928F929F92AF92BF92CF92DF92EF928A
:100E2000FF920F931F93DF93CF9300D000D0CDB7E5
:100E3000DEB75B016C0139014A01E982FA820B835A
:100E40001C8328E939EF4EE85CE30E942F0AE62E66
:100E5000172F082FF92E0E940C091B012C016E2D53
:100E6000712F802F9F2D0E94920A7B018C01C60159
:100E7000B50120E030E044EB53E40E942B0A87FFE9
:100E80002CC0C601B50120E030E0A9010E9408098C
:100E900087FD23C0C401B301A20191010E942F0A62
:100EA0000E940F09A62EB72EC82ED92EC401B30159
:100EB000A80197010E942F0A0E940F09E62EF72E23
:100EC000082F192F69817A818B819C810E940F09DB
:100ED000762E872E982E692E1BC0C601B50120E004
:100EE00030E0A9010E94080987FD03C0C401B301D5
:100EF00003C0C401B30190580E940F09762E872EBB
:100F0000982E692EEE24FF248701AA24BB246501B4
:100F1000C601B5010E9442091B012C01C801B7019D
:100F20000E9442095B016C01672D782D892D962D59
:100F30000E9442097B018C01C201B101A601950109
:100F40000E9465060F900F900F900F90CF91DF9148
:100F50001F910F91FF90EF90DF90CF90BF90AF90D7
:100F60009F908F907F906F905F904F903F902F90C9
:100F700008958BE00E943A01809154018823E1F3A7
:100F80000E9427018823A9F381E10E943A018FEF93
:100F90000E943A01809154018823E1F30E942701C5
:100FA000882391F30895DF93CF9300D0CDB7DEB7B8
:100FB00019821A82880F982F990F990F980F690F2D
:100FC0006A838A810E943A01809154018823E1F367
:100FD0000E942701898389810F900F90CF91DF9123
:100FE000089582B1837E82B9E4E6F0E08081877E55
:100FF00080831BB888E98AB986E0809395001092B7
:1010000090008FE089B9789408951F920F920FB6DF
:101010000F920BB60F9211242F933F938F939F93B0
:10102000EF93FF939CB18BB1887BE9F39F3F21F451
:1010300081E08093650147C080916501813009F0AE
:1010400042C080916401E82FF0E0E85AFE4F90839F
:101050008F5F80936401809164018B30A0F11092C6
:101060006401809164018093650180E090E030919B
:101070006301FC01E85AFE4F2081230F2093630196
:1010800001968A30910599F7809163018F3F29F489
:10109000809163018F5F80936301909163018091E0
:1010A0006201981771F480E090E0FC01E85AFE4F6D
:1010B0002081FC01EA59FE4F208301968A30910578
:1010C000A1F710926301FF91EF919F918F913F9152
:1010D0002F910F900BBE0F900FBE0F901F90189581
:1010E000F8940C94BF0D0F931F93DF93CF93CDB75C
:1010F000DEB72E970FB6F894DEBF0FBECDBF0D89B9
:101100001E8986E08C831A8309838FEF9FE79E8375
:101110008D839E01275E3F4FCE0101966F89788DAA
:10112000A9010E94980AEF81F885E00FF11F108253
:101130002E960FB6F894DEBF0FBECDBFCF91DF91D4
:101140001F910F9108955058BB27AA270ED038C180
:1011500001D130F006D120F031F49F3F11F41EF49C
:10116000F6C00EF4E095E7FBECC0E92F4BD180F31D
:10117000BA17620773078407950718F071F49EF594
:1011800063C10EF4E0950B2EBA2FA02D0B01B9010F
:1011900090010C01CA01A0011124FF27591B99F0ED
:1011A000593F50F4503E68F11A16F040A22F232FF9
:1011B000342F4427585FF3CF469537952795A79549
:1011C000F0405395C9F77EF41F16BA0B620B730BF0
:1011D000840BBAF09150A1F0FF0FBB1F661F771F61
:1011E000881FC2F70EC0BA0F621F731F841F48F416
:1011F000879577956795B795F7959E3F08F0B3CF9C
:101200009395880F08F09927EE0F97958795089585
:1012100074D008F481E00895ACD0E395E2C004D026
:101220006894B11112C10895F5D088F09F5790F0DD
:10123000B92F9927B751A0F0D1F0660F771F881FFB
:10124000991F1AF0BA95C9F712C0B13081F0FCD0DD
:10125000B1E00895F9C0672F782F8827B85F39F07B
:10126000B93FCCF3869577956795B395D9F73EF45A
:1012700090958095709561957F4F8F4F9F4F089502
:10128000E89409C097FB3EF4909580957095619520
:101290007F4F8F4F9F4F9923A9F0F92F96E9BB27D6
:1012A0009395F695879577956795B795F111F8CF52
:1012B000FAF4BB0F11F460FF1BC06F5F7F4F8F4FBD
:1012C0009F4F16C0882311F096E911C0772321F0B3
:1012D0009EE8872F762F05C0662371F096E8862F4B
:1012E00070E060E02AF09A95660F771F881FDAF7A2
:1012F000880F9695879597F90895990F0008550FCF
:10130000AA0BE0E8FEEF16161706E807F907C0F08B
:1013100012161306E407F50798F0621B730B840B93
:10132000950B39F40A2661F0232B242B252B21F46D
:1013300008950A2609F4A140A6958FEF811D811D0D
:10134000089597F99F6780E870E060E008959FEF47
:1013500080EC089500240A9416161706180609064C
:10136000089500240A94121613061406050608951B
:10137000EECF50D0E8F3E894E0E0BB279F57F0F0C1
:101380002AED3FE049EC06C0EE0FBB0F661F771F4A
:10139000881F28F0B23A62077307840728F0B25A10
:1013A000620B730B840BE3959A9572F7803830F4D7
:1013B0009A95BB0F661F771F881FD2F790486AC3A4
:1013C000092E0394000C11F4882352F0BB0F40F453
:1013D000BF2B11F460FF04C06F5F7F4F8F4F9F4F93
:1013E0000895EF93E0FF06C0A2EA2AED3FE049EC42
:1013F0005FEBBBDEE5DF0F90039401FC9058ECE857
:10140000F0E054C357FD9058440F551F59F05F3F0B
:1014100071F04795880F97FB991F61F09F3F79F016
:1014200087950895121613061406551FF2CF469598
:10143000F1DF08C0161617061806991FF1CF86951A
:101440007105610508940895E894BB2766277727FE
:10145000CB0197F9089551DF08F48FEF08950BD071
:10146000AFCF78DF28F07DDF18F0952309F069CF42
:101470006ECF1124EACFC6DFA0F3959FD1F3950F6D
:1014800050E0551F629FF001729FBB27F00DB11D08
:10149000639FAA27F00DB11DAA1F649F6627B00D98
:1014A000A11D661F829F2227B00DA11D621F739F81
:1014B000B00DA11D621F839FA00D611D221F749F8F
:1014C0003327A00D611D231F849F600D211D822FD6
:1014D000762F6A2F11249F5750408AF0E1F088231D
:1014E0004AF0EE0FFF1FBB1F661F771F881F91502A
:1014F0005040A9F79E3F510570F023CFA6CF5F3F24
:10150000ECF3983EDCF3869577956795B795F7955C
:10151000E7959F5FC1F7FE2B880F911D96958795E4
:1015200097F908959F9325DF0F9007FCEE5F59CF41
:101530002F923F924F925F926F927F928F929F92E3
:10154000AF92BF92CF92DF92EF92FF920F931F93D1
:10155000DF93CF93CDB7DEB72C970FB6F894DEBFED
:101560000FBECDBF6C011B018A01FC0117821682E0
:10157000838181FFD1C12E010894411C511CF601C9
:101580009381F10193FD859193FF81911F01882340
:1015900009F4BEC1853239F493FD859193FF8191A1
:1015A0001F01853229F490E0B6010E94BE0CE7CFFE
:1015B000EE24FF2420E02032B0F48B3269F08C322C
:1015C00028F4803251F0833271F40BC08D3239F03F
:1015D000803349F421602CC02260246029C0286037
:1015E00027C0206125C027FD2CC0382F30533A304A
:1015F00098F426FF08C08E2D880FE82EEE0CEE0C16
:10160000E80EE30E15C08F2D880FF82EFF0CFF0C8F
:10161000F80EF30E20620CC08E3221F426FD78C144
:10162000206406C08C3611F4206802C0883649F464
:10163000F10193FD859193FF81911F01882309F0AA
:10164000BACF982F9554933018F09052933028F4D5
:101650000C5F1F4FFFE3F9830DC0833631F08337F2
:1016600071F0833509F060C022C0F8018081898360
:101670000E5F1F4F420171E0A72EB12C16C062E031
:10168000662E712C600E711EF8018080918026FFFD
:1016900003C06E2D70E002C06FEF7FEFC4012C8796
:1016A0000E94B30C5C0183012C852F7717C052E098
:1016B000652E712C600E711EF8018080918026FFCE
:1016C00003C06E2D70E002C06FEF7FEFC4012C8766
:1016D0000E94A80C5C012C852068830123FD20C09A
:1016E00008C080E290E0B6012C870E94BE0CFA94FC
:1016F0002C858F2D90E0A816B90698F311C0F4013F
:1017000027FD859127FF81914F0190E0B6012C873D
:101710000E94BE0C2C85F110FA940894A108B1081F
:10172000A114B10461F7F1C0843611F0893649F58E
:1017300027FF08C0F80160817181828193810C5F6D
:101740001F4F09C0F80160817181882777FD80955E
:10175000982F0E5F1F4F4FE6B42EB22297FF09C09D
:1017600090958095709561957F4F8F4F9F4FF0E8D2
:10177000BF2AA2012AE030E00E94EA0C782E7418F9
:1017800045C0853731F43FEEB32EB2222AE030E077
:1017900025C099EFB92EB2228F36C1F0803720F4E0
:1017A000883509F0B5C00DC0803721F0883709F0C1
:1017B000AFC002C020E1B22AB4FE0BC084E0B82A58
:1017C00008C0B4FE09C0E6E0BE2A06C028E030E04A
:1017D00005C020E130E002C020E132E0B7FE08C0E1
:1017E000F80160817181828193810C5F1F4F07C076
:1017F000F8016081718180E090E00E5F1F4FA201CF
:101800000E94EA0C782E7418FFE7BF22B6FE0BC0C8
:101810002EEFB2227E1438F4B4FE07C0B2FC05C02D
:101820008FEEB82202C0A72C01C0AE2C8B2D90E009
:10183000B4FE0DC0FE01E70DF11D2081203319F427
:10184000E9EEBE2209C0A394B2FE06C004C08678A9
:101850009070009709F0A3948B2C9924B3FC14C0CA
:10186000B0FE0FC0AF1428F4E72CEF0CEA18AF2C31
:1018700008C0E72C06C080E290E0B6010E94BE0CD2
:10188000A394AF14C0F304C0AF1410F4FA1801C04D
:10189000FF2484FE0FC080E390E0B6010E94BE0CDE
:1018A00082FE1FC081FE03C088E590E010C088E77B
:1018B00090E00DC0C40186789070009791F081FC93
:1018C00002C080E201C08BE2B7FC8DE290E0B6017D
:1018D0000E94BE0C06C080E390E0B6010E94BE0CE0
:1018E000EA947E14C0F37A94F201E70DF11D808131
:1018F00090E0B6010E94BE0C7720A9F706C080E2F6
:1019000090E0B6010E94BE0CFA94FF20C1F737CEDA
:10191000F6012681378102C02FEF3FEFC9012C96D7
:101920000FB6F894DEBF0FBECDBFCF91DF911F91F0
:101930000F91FF90EF90DF90CF90BF90AF909F906E
:101940008F907F906F905F904F903F902F90089571
:10195000FC010590615070400110D8F7809590957A
:101960008E0F9F1F0895FC0161507040019001107F
:10197000D8F7809590958E0F9F1F08950F931F9312
:10198000CF93DF938C01EB018B8181FF1BC082FF22
:101990000DC02E813F818C819D812817390764F409
:1019A000E881F9810193F983E88306C0E885F98528
:1019B000802F0995009731F48E819F8101969F8336
:1019C0008E8302C00FEF1FEFC801DF91CF911F91EF
:1019D0000F910895FA01AA27283051F1203181F1A1
:1019E000E8946F936E7F6E5F7F4F8F4F9F4FAF4F27
:1019F000B1E03ED0B4E03CD0670F781F891F9A1F3A
:101A0000A11D680F791F8A1F911DA11D6A0F711DED
:101A1000811D911DA11D20D009F468943F912AE0F9
:101A2000269F11243019305D3193DEF6CF010895E1
:101A3000462F4770405D4193B3E00FD0C9F7F6CF12
:101A4000462F4F70405D4A3318F0495D31FD4052DA
:101A5000419302D0A9F7EACFB4E0A6959795879570
:101A600077956795BA95C9F700976105710508954F
:101A70009B01AC010A2E06945795479537952795FB
:101A8000BA95C9F7620F731F841F951FA01D089593
:101A90009F3F31F0915020F4879577956795B795E2
:101AA000880F911D9695879597F908959F938F9329
:101AB0007F936F93FF93EF939B01AC01D0DCEF9189
:101AC000FF9105D02F913F914F915F91C8CCDF934B
:101AD000CF931F930F93FF92EF92DF927B018C01C4
:101AE000689405C0DA2EEF01C6DCFE01E894A591EA
:101AF0002591359145915591AEF3EF0136DBFE010D
:101B00009701A801DA9479F7DF90EF90FF900F9199
:101B10001F91CF91DF910895991B79E004C0991F1F
:101B2000961708F0961B881F7A95C9F78095089537
:101B300097FB092E07260AD077FD04D00CD006D0DB
:101B400000201AF4709561957F4F0895F6F79095EF
:101B500081959F4F0895AA1BBB1B51E107C0AA1F87
:101B6000BB1FA617B70710F0A61BB70B881F991F3E
:101B70005A95A9F780959095BC01CD010895F894E8
:021B8000FFCF95
:101B8200253564005354455031004572726F7231ED
:101B92002E2052657374617274004572726F7232D4
:101BA2002E2052657374617274004572726F7233C3
:101BB2002E20526573746172740053544550320082
:101BC200496E697469616C697A65207375636365CE
:041BD20073732E00FB
:00000001FF
