:100000000C946C000C948B000C948B000C948B0063
:100010000C948B000C948B000C948B000C948B0034
:100020000C948B000C948B000C948B000C948B0024
:100030000C948B000C948B000C94E80E0C948B00A9
:100040000C948B000C948B000C94E92D0C948B0079
:100050000C948B000C948B000C948B000C948B00F4
:100060000C948B000C948B000C948B000C948B00E4
:100070000C948B000C948B000C9421010C948B003D
:100080000C948B000C948B000C948B00084AD73B8B
:100090003BCE016E84BCBFFDC12F3D6C74319ABD57
:1000A00056833DDA3D00C77F11BED9E4BB4C3E917B
:1000B0006BAAAABE000000803F05A84CCDB2D44E6A
:1000C000B93836A9020C50B9918688083CA6AAAA6C
:1000D0002ABE000000803F0011241FBECFEFD0E1F8
:1000E000DEBFCDBF12E0A0E0B1E0E2EBFBE600E056
:1000F0000BBF02C007900D92AA30B107D9F713E0E9
:10010000AAE0B2E001C01D92A135B107E1F70E945B
:1001100042020C948F2E0C94000094EA9093740089
:100120009091740097FFFCCF9AE09093730094E84D
:10013000909374009091740097FFFCCF80937300AC
:1001400084E8809374008091740087FFFCCF84E979
:100150008093740084EA809374008091740087FF18
:10016000FCCF8BE08093730084E8809374008091CF
:10017000740087FFFCCF84E8809374008091740042
:1001800087FFFCCF8091730094E9909374000895E9
:1001900094EA909374009091740097FFFCCF9AE0DA
:1001A0009093730094E8909374009091740097FF7B
:1001B000FCCF8093730084E8809374008091740076
:1001C00087FFFCCF6093730084E880937400809174
:1001D000740087FFFCCF84E9809374000895109227
:1001E0009B0088E980939A0086E080939D0010929E
:1001F00098008FE580939900789408951F931FEFDE
:100200001093730081E4809370000E945D070E9448
:10021000D52D0E94EF000E9457061FBC85E08EBDC1
:100220001DBD80E78CBD84E087BF78948FE087BBDD
:1002300081B3807F81BB84B3806F84BB18BA1F9168
:1002400008951F920F920FB60F9211248F93DF9390
:10025000CF930F92CDB7DEB780919C0089838091B8
:100260009B00887BE1F381E080930A02898180937F
:100270000B020F90CF91DF918F910F900FBE0F90D7
:100280001F901895DF93CF930F92CDB7DEB7809173
:100290000B02898310920B02F89410920A02789450
:1002A00089810F90CF91DF91089590919B0095FFE8
:1002B000FCCF80939C000895CF93DF93E4E7F0E0B8
:1002C00094EA9083A1EEB2E01197F1F70000A3E762
:1002D000B0E09EE09C9394E89083C1EED2E0219739
:1002E000F1F700008C93908381EE92E00197F1F793
:1002F000000084E98083DF91CF910895EF92FF920F
:100300000F931F93DF93CF9300D0CDB7DEB7082FA5
:10031000162F843070F5643160F58BE149835A8380
:100320000E945C018CE40E945C01812F0E945C01B0
:10033000802F0E945C0180E791E00197F1F700C0F7
:10034000E12EFF2449815A81042F152F06C00E94F7
:100350005C0194EC9A95F1F700C0E4E1EE16F1042B
:1003600044F4F80181918F010894E11CF11C882369
:1003700071F70F900F90CF91DF911F910F91FF9028
:10038000EF9008951F93DF93CF9300D0CDB7DEB7E2
:10039000182F8430F0F46431E0F48BE12A83698310
:1003A0000E945C018CE40E945C016981862F0E949E
:1003B0005C01812F0E945C0180E791E00197F1F7D9
:1003C00000C02A81822F0E945C0194EC9A95F1F77B
:1003D00000C00F900F90CF91DF911F9108958BE196
:1003E0000E945C0183E40E945C0186E696EEA0E038
:1003F00081509040A040E1F70895EF92FF920F9353
:100400001F93182FF62EE42E842F64E60E94A43545
:10041000082F282F30E0205D3F4F442737FD4095BF
:10042000542F812F6F2D0E94C2018CE9089F002D4F
:1004300011240E0D802F6AE00E94A435E82E6F2D46
:100440006F5F282F30E0205D3F4F442737FD4095F8
:10045000542F812F0E94C2016F2D6E5F26EFE29E06
:10046000202D1124200F30E0205D3F4F442737FD21
:100470004095542F812F0E94C2011F910F91FF9030
:10048000EF9008952F923F924F925F926F927F92DA
:100490008F929F92AF92BF92CF92DF92EF92FF9294
:1004A0000F931F93CF93DF930E94FE008EE161E0D4
:1004B0000E94C8008EE165E00E94C8008EE164E100
:1004C0000E94C8008EE160E10E94C8000E94802D59
:1004D0008BE00E94B82D80E50E94731180E063E1FB
:1004E0000E949A2D8823D1F32FEF3FE746E1215058
:1004F00030404040E1F700C0000080E090E0DC01C7
:1005000080936C0290936D02A0936E02B0936F0281
:1005100020916C0230916D0240916E0250916F02F9
:10052000209368023093690240936A0250936B02F1
:10053000209168023091690240916A0250916B02E9
:1005400020936402309365024093660250936702E1
:100550008093780290937902A0937A02B0937B0201
:100560008091780290917902A0917A02B0917B02F9
:100570008093740290937502A0937602B0937702F1
:100580000E949A09C39A4FEF5FE764E041505040E0
:100590006040E1F700C00000C39887E1882E83E047
:1005A000982E00E0602E01E0702E19E1412E11E03E
:1005B000512EB9E02B2E312CB49910C080910C0231
:1005C00090910D02019790930D0280930C0266E6C4
:1005D00076E283E0615070408040E1F7B69910C048
:1005E00080910C0290910D02019690930D028093E0
:1005F0000C0286E696E2A3E081509040A040E1F72D
:10060000B5993AC00E94EF0180910C0290910D02C1
:100610008230910588F58CE090E061E070E04AE07E
:1006200050E023E030E00CE010E0EE24FF24A2E3F1
:10063000CA2ED12CFCE3AF2EB12C0E947B1B8AE08A
:1006400090E061E070E04AE050E023E030E0AA246E
:10065000BB240E947B1B80E090E061E070E048EEEC
:1006600053E023E030E0E2E3EE2EF12C0E947B1B0E
:10067000B599FECFB59BFECF80910C0290910D02F3
:10068000009709F44AC040912C0230912B0220912E
:100690002A029091320280913102ADB7BEB71E9707
:1006A0000FB6F894BEBF0FBEADBFEDB7FEB7319623
:1006B000CDB7DEB79A8289827382628244831582C3
:1006C0003683178220871186928713868487158642
:1006D0000E94922EEDB7FEB73E960FB6F894FEBF7D
:1006E0000FBEEDBF80E090E060E070E0A4010E94EA
:1006F0007E0130912D0220912E0290912F02809147
:1007000030024DB75EB74C5050400FB6F8945EBF04
:100710000FBE4DBFEDB7FEB746C0409140023091CD
:100720003F0220913E029091460280914502EDB732
:10073000FEB73E970FB6F894FEBF0FBEEDBF3196E1
:10074000ADB7BEB712969C928E9211977382628259
:1007500044831582368317822087118692871386F9
:10076000848715860E94922ECDB7DEB72E960FB6DF
:10077000F894DEBF0FBECDBF80E090E060E070E097
:10078000A4010E947E013091410220914202909189
:10079000430280914402EDB7FEB73C970FB6F89440
:1007A000FEBF0FBEEDBF3196ADB7BEB712969C929D
:1007B0008E92119753824282348315822683178248
:1007C00090871186828713860E94922ECDB7DEB75E
:1007D0002C960FB6F894DEBF0FBECDBF81E090E03F
:1007E00060E070E0A4010E947E0180910C02909173
:1007F0000D0297FF03C0909581959F4FB1010E9414
:10080000B03590936302809362020E9455088091F4
:10081000620266E60E949A2DE82E8091620267E6E7
:100820000E949A2D082F10916202C0906302812FBE
:1008300068E60E949A2DEDB7FEB73C970FB6F89484
:10084000FEBF0FBEEDBF3196ADB7BEB712969C92FC
:100850008E921197C2E3D1E0D383C2831483C58201
:10086000E682178200871186828713860E94922E65
:10087000EDB7FEB73C960FB6F894FEBF0FBEEDBFC6
:1008800082E090E060E070E0A4010E947E0120918F
:100890008D0230918E0240918F0250919002A09073
:1008A0008B02B0908C02A0913D03B0913E03009169
:1008B000150310911603E0909102F0909202C090FF
:1008C0008902D0908A0260917402709175028091C1
:1008D000760290917702CDB7DEB764970FB6F894A1
:1008E000DEBF0FBECDBF2196EDB7FEB792828182EB
:1008F000E5E4F1E0FB83EA833D832C835F834E8351
:10090000B986A886BB87AA871D870C87FF86EE86D7
:10091000D98AC88A0E940B307B8B6A8B0E94922EE8
:100920002DB73EB72C5E3F4F0FB6F8943EBF0FBEBB
:100930002DBF83E090E060E070E0A4010E947E01A2
:1009400000D000D000D0EDB7FEB73196ADB7BEB73E
:1009500012969C928E921197CBE5D1E0D383C283FD
:1009600080910C0290910D02958384830E94922EB7
:10097000EDB7FEB736960FB6F894FEBF0FBEEDBFCB
:1009800083E090E060E170E0A4010E947E0114CE5B
:1009900090E0FC01B096FE2FEE2720812093880284
:1009A00020FDFBCF8896B82FAA278C919081909339
:1009B000880290FDFBCF089590E08096F82FEE27F7
:1009C00080818093880280FDFBCF6083808180934B
:1009D000880280FDFBCF089580E061E00E94DC0486
:1009E00082E061E00E94DC0481E061E00E94DC04BE
:1009F0000895A82FB0E0FD01B096FE2FEE2780816C
:100A00008093880280FDFBCF9896BA2FAA27872F64
:100A1000992787FD9A958C9380818093880280FD29
:100A2000FBCF6C9380818093880280FDFBCF08957B
:100A30001F93CF93DF93182F80E06FE10E94DC04B7
:100A4000C1E0D0E002C0CC0FDD1F1A95E2F780E0D4
:100A5000BE010E94F90481E06FE10E94DC0481E0A4
:100A6000BE010E94F90482E06FE10E94DC0482E092
:100A7000BE010E94F90480E061E00E94DC0482E093
:100A800061E00E94DC0481E061E00E94DC04DF910F
:100A9000CF911F910895DF92EF92FF920F931F93D2
:100AA000D82E7A018B019B01552737FD5095452F94
:100AB000B9010E94F9048D2DB7010E94F9041F911C
:100AC0000F91FF90EF90DF9008951F93182F60E033
:100AD0000E94DC048CEC9CE10197F1F700C000005F
:100AE000812F6DE10E94DC04812F60E070E00E94A4
:100AF000F9041F910895AF92BF92CF92DF92EF92C7
:100B0000FF920F931F93CF93DF93F82E6B01EA01AF
:100B10008901AA24A3946115710509F4AA24BB24B0
:100B2000B394209709F4BB24EE24E3940115110536
:100B300009F4EE248F2D6EE10E94DC046B2D70E031
:100B4000660F771F660F771F8A2D90E043E0880FAE
:100B5000991F4A95E1F7682B792B8E2D90E0880F2D
:100B6000991F682B792B8F2D0E94F904AA2021F060
:100B70008F2DB6010E94F904BB2021F08F2DBE01FC
:100B80000E94F904EE2021F08F2DB8010E94F90493
:100B90008F2D64E00E94DC04DF91CF911F910F91B3
:100BA000FF90EF90DF90CF90BF90AF9008958F921D
:100BB0009F92AF92BF92CF92DF92EF92FF920F93EC
:100BC0001F93CF93DF93F82E4B016A01E901AA240A
:100BD000A3946115710509F4AA24BB24B394C1142C
:100BE000D10409F4BB24EE24E394209709F4EE2405
:100BF0008F2D6EE10E94DC046A2D70E0A3E0660F89
:100C0000771FAA95E1F761608B2D90E0880F991FFF
:100C1000880F991F682B792B8E2D90E0880F991FD4
:100C2000682B792B8F2D0E94F904AA2021F08F2D9B
:100C3000B4010E94F904BB2021F08F2DB6010E945F
:100C4000F904EE2021F08F2DBE010E94F9048F2DB2
:100C5000B8010E94F9048F2D64E00E94DC04DF914A
:100C6000CF911F910F91FF90EF90DF90CF90BF90A9
:100C7000AF909F908F900895DF92EF92FF920F9325
:100C80001F93D82E7A018B016FE10E94DC048D2D19
:100C900060E270E00E94F9048D2DB801A7010E9466
:100CA0004B051F910F91FF90EF90DF90089580E02A
:100CB00060E170E040E050E020E430E00E947B051D
:100CC00081E060E170E040E050E020E430E00E942C
:100CD0007B0582E060E170E040E050E020E430E03D
:100CE0000E947B0580E04FEF5FEF6FEF7FE30E9494
:100CF0003C0681E04FEF5FEF6FEF7FE30E943C0621
:100D000082E04FEF5FEF6FEF7FE30E943C060895B4
:100D1000DF92EF92FF920F931F93DF93CF930F9287
:100D2000CDB7DEB7D82E7A018B0177FF0AC01095B8
:100D30000095F094E094E11CF11C011D111D90E060
:100D400001C091E08D2D6FE199830E94DC049981AF
:100D5000792F7295707F60E0686078608D2D0E94B9
:100D6000F9048D2DB801A7010E944B050F90CF917A
:100D7000DF911F910F91FF90EF90DF900895AF9258
:100D8000BF92CF92DF92EF92FF920F931F93DF9368
:100D9000CF93CDB7DEB72C970FB6F894DEBF0FBE5A
:100DA000CDBF59016A010E943E3069837A838B83EB
:100DB0009C83C601B5010E943E306D837E838F8384
:100DC0009887C801B7010E943E3069877A878B8770
:100DD0009C878E010F5F1F4FEE24F80160817181A7
:100DE0008281938121E73CEA4BE85EE30E942E3248
:100DF0009B01AC01F80121933193419351938F01F1
:100E000020E030E040E857E40E942E320E940B3090
:100E1000AB01BC018E2D0E948806E394FE2DF330B9
:100E2000E1F60E94EC042C960FB6F894DEBF0FBEDC
:100E3000CDBFCF91DF911F910F91FF90EF90DF9089
:100E4000CF90BF90AF9008954F925F926F927F9234
:100E50008F929F92AF92BF92CF92DF92EF92FF92CA
:100E60000F931F93982E862E29013A016FE10E945D
:100E7000DC04682D70E06A62892D0E94F904892DD6
:100E8000B301A2010E944B05892DB801A7010E9460
:100E90004B05892DB601A5010E944B051F910F91AD
:100EA000FF90EF90DF90CF90BF90AF909F908F908A
:100EB0007F906F905F904F9008958F929F92AF9226
:100EC000BF92CF92DF92EF92FF920F931F93DF9327
:100ED000CF9300D00F92CDB7DEB71ABA15BA8FEF05
:100EE00084BB1092650083E08093640000E8A02E2C
:100EF00012E0B12EB4E89B2E6E010894C11CD11CE7
:100F000085B3856085BB83E39BE20197F1F785B3E9
:100F10008A7F85BBECECFCE13197F1F700C0000063
:100F2000809165008D7F80936500AB9885B3887F45
:100F300085BB99B39983A89A19B385B3887F8260DA
:100F400085BB09B3943C09F4A7C0943809F4A4C044
:100F500015BA80E090E060E070E042E651E00E9467
:100F60007E0181E090E060E070E048E651E00E94A0
:100F70007E01143C09F490C0143809F48DC015BAF0
:100F800080E090E060E070E042E651E00E947E0187
:100F900082E090E060E070E048E751E00E947E016E
:100FA000043C09F479C0043809F476C015BA80E02D
:100FB00090E060E070E042E651E00E947E0183E054
:100FC00090E060E070E048E851E02DC08E2C8C1875
:100FD000882D6DE10E94DC04882D60E070E00E94A5
:100FE000F904F8018081F70181937F0100501F4FC0
:100FF000F3E200301F0751F78981803CB9F0803857
:10100000A9F085B78F7385BF15BA80E090E060E0E6
:1010100070E048E951E00E947E0181E090E060E0EC
:1010200070E048E651E00E947E016ACF80E090E0E7
:1010300060E070E04EE951E00E947E0180E098B3EC
:10104000976098BB2FEF3FEB46E021503040404087
:10105000E1F700C0000098B3987F98BB2FEF3FEBFB
:1010600046E0215030404040E1F700C000008F5F73
:10107000833029F70E94EF010F900F900F90CF91CE
:10108000DF911F910F91FF90EF90DF90CF90BF9075
:10109000AF909F908F900895A5BEB0926D009092F2
:1010A0006C00760100E010E291CF4F925F926F9258
:1010B0007F928F929F92AF92BF92CF92DF92EF92E8
:1010C000FF920F931F93CF93DF9384E6882E912C8A
:1010D00084E00E948D00982F80E0EC0185E00E9462
:1010E0008D0090E08C2B9D2BB4010E94B035882799
:1010F00077FD8095982F0E943E30F62E072F182FEF
:10110000E92E462E572E682E792E63015201E8945F
:10111000D7F8C601B50120E030E044E353E40E9473
:101120008C311816ACF2609170027091710280914E
:101130007202909173022F2D302F412F5E2D0E944D
:101140009C2F882309F4E5C06F2D702F812F9E2DD1
:1011500020E030E0A9010E949C2F87FF5DC06091D4
:10116000700270917102809172029091730220E07E
:1011700030E0A9010E948C3118160CF04DC020916E
:1011800070023091710240917202509173025F7748
:10119000C601B5010E94C32E20E030E044E353E4D1
:1011A0000E949C2F87FF15C0A0907402B09075021A
:1011B000C0907602D0907702209170023091710237
:1011C00040917202509173026F2D702F812F9E2DCE
:1011D0001CC0A0907402B0907502C0907602D090AE
:1011E0007702609170027091710280917202909109
:1011F00073022F2D302F412F5E2D0E94C22E9B0196
:10120000AC0160E070E883EB93E40E94C22E9B0186
:10121000AC01C601B50169C0C301B20120E030E0F4
:10122000A9010E948C3118160CF047C06091700221
:1012300070917102809172029091730220E030E00F
:10124000A9010E949C2F87FF38C020917002309125
:10125000710240917202509173025F77C601B5012D
:101260000E94C32E20E030E044E353E40E949C2F10
:1012700087FD23C0E0907402F09075020091760221
:1012800010917702209170023091710240917202A8
:1012900050917302C301B2010E94C22E9B01AC01A6
:1012A00060E070E883EB93E40E94C22E9B01AC01E6
:1012B000C801B7010E94C22E1AC0E0907402F090DB
:1012C00075020091760210917702209170023091A0
:1012D00071024091720250917302C301B2010E94E7
:1012E000C22E9B01AC01C801B7010E94C32E9B0115
:1012F000AC012093740230937502409376025093B0
:101300007702409270025092710260927202709263
:101310007302DF91CF911F910F91FF90EF90DF90BB
:10132000CF90BF90AF909F908F907F906F905F9085
:101330004F90089580E062E00E94DC0481E062E06A
:101340000E94DC0482E062E00E94DC0408959F9227
:10135000AF92BF92CF92DF92EF92FF920F931F93C3
:10136000CF93DF93E82EE7017E01F92EE70100E03D
:1013700010E0188219821A821B82902E802F6AE058
:101380000E94DC04EE24FF24A880B980CA80DB80A0
:10139000892D0E94C804282F30E040E050E02A291F
:1013A0003B294C295D29288339834A835B8393E059
:1013B000E916F10441F0542F432F322F22272883BE
:1013C00039834A835B830894E11CF11C84E0E816AE
:1013D000F104D1F60F5F1F4F24960330110549F633
:1013E000DF91CF911F910F91FF90EF90DF90CF9001
:1013F000BF90AF909F9008952F923F924F925F922F
:101400006F927F928F929F92AF92BF92CF92DF9214
:10141000EF92FF920F931F93DF93CF9300D000D0F2
:10142000CDB7DEB74B015C0129013A011601CA01B3
:10143000B901A50194010E94362F69837A838B83B9
:101440009C83C801B70125E33AEF4EE85CE30E94B4
:101450002E329B01AC0169817A818B819C810E9433
:10146000C22E8B017C01C501B401A30192010E942F
:1014700099315B016C01602F712F8E2D9F2D0E9481
:10148000A02F9B01AC01C601B5010E942E32F101D3
:101490006083718382839383602F712F8E2D9F2DA4
:1014A0000E9491329B01AC01C601B5010E942E320F
:1014B000F10164837583868397830F900F900F905B
:1014C0000F90CF91DF911F910F91FF90EF90DF90E0
:1014D000CF90BF90AF909F908F907F906F905F90D4
:1014E0004F903F902F9008952F923F924F925F928E
:1014F0006F927F928F929F92AF92BF92CF92DF9224
:10150000EF92FF920F931F93DF93CF93CDB7DEB788
:1015100062970FB6F894DEBF0FBECDBF69837A83A2
:101520008B839C832D833E834F83588737014801EB
:1015300060E070E084E394E4A60195010E94C22E6D
:10154000162F072FF82EE92EC601B50120E030E056
:1015500044E353E40E949C2F181684F0A8019701DD
:10156000652F742F832F922F20E030E044EB53E45B
:101570000E94C22E162F072FF82EE92EA8019701E0
:10158000652F702F832F9E2D20E030E044EB52E436
:101590000E94C22E69877A878B879C87C401B3011A
:1015A00023EF36E64FE55EE30E942E326D877E879D
:1015B0008F87988B80E090E036E9432E512C28E607
:1015C000222E21E0322E9A8B898BB201882777FD5B
:1015D0008095982F0E943E305B016C01C2018858B3
:1015E0009F4FB1010E94B0352C01C601B501D80151
:1015F000F7012B2F302F4F2F5E2D0E94C22E25E397
:101600003AEF4EE85CE30E942E320E94A02F3B018D
:101610004C01C601B501B985AA85AB84DC842B2FAA
:101620003A2F4A2D5D2D0E94C22E25E33AEF4EE857
:101630005CE30E942E320E94A02F5B016C016D8141
:101640007E818F819885A40193010E942E323B01F7
:101650004C0169817A818B819C81A60195010E9450
:101660002E329B01AC01C401B3010E94C32EBD8583
:10167000AE85DF84A8882B2F3A2F4D2D5A2D0E943E
:10168000C22E2FE632E143E856E40E942E3223E3D5
:1016900033E343E250EC0E942E320E940B30AB0148
:1016A000BC0189890E94880629893A892F5F3F4FAA
:1016B0003A8B298B2330310509F087CF0E94EC0447
:1016C0000E94550862960FB6F894DEBF0FBECDBFDC
:1016D000CF91DF911F910F91FF90EF90DF90CF900E
:1016E000BF90AF909F908F907F906F905F904F9042
:1016F0003F902F9008952F923F924F925F926F925A
:101700007F928F929F92AF92BF92CF92DF92EF9291
:10171000FF920F931F93DF93CF93CDB7DEB7AC97B4
:101720000FB6F894DEBF0FBECDBF8E01075E1F4F10
:10173000C8010E94A70938014E010894811C911C20
:1017400000E010E0D301AD90BD90CD90DD903D0163
:101750007801EE0CFF1CEE0CFF1CECE7F2E0EE0E45
:10176000FF1EF70180819181A281B381A6019501BD
:10177000281B390B4A0B5B0BCA01B9010E943E3092
:101780002FED37ED47E05AE30E942E32D4016D93DE
:101790007D938D939D934D01F701A082B182C2820A
:1017A000D3820F5F1F4F0330110561F62090740242
:1017B0003090750240907602509077022091780226
:1017C0003091790240917A0250917B022DA33EA381
:1017D0004FA358A78091740290917502A091760250
:1017E000B09177028093780290937902A0937A0265
:1017F000B0937B02E980FA800B811C81A984BA84B2
:10180000CB84DC84C801B701A60195010E94C32ED8
:1018100020E030E040E05FE30E942E322D813E81E7
:101820004F8158850E94C22E20E030E040EC5FE3FB
:101830000E94A32F69A77AA78BA79CA760906C0230
:1018400070906D0280906E0290906F02C201B101A3
:101850002DA13EA14FA158A50E94C22E9B01AC0113
:10186000C401B3010E94C22E9B01AC0120936C0203
:1018700030936D0240936E0250936F0260906C0241
:1018800070906D0280906E0290906F02C801B70157
:10189000A60195010E94C22E20E030E040E05FE307
:1018A0000E942E3227ED33EB4DE55FE30E94A32F1C
:1018B0009B01AC018401730117FB109517F910957A
:1018C000B9A5AAA5FBA5ECA56B2F7A2F8F2F9E2F6C
:1018D000EDE0CE2ED12CCC0EDD1E0E94FC096091D5
:1018E00064027091650280916602909167022D8575
:1018F0003E854F8558890E94C32E9B01AC012093E1
:1019000064023093650240936602509367026091CF
:1019100068027091690280916A0290916B02298934
:101920003A894B895C890E94C32E9B01AC012093AC
:1019300068023093690240936A0250936B02AC963E
:101940000FB6F894DEBF0FBECDBFCF91DF911F91D0
:101950000F91FF90EF90DF90CF90BF90AF909F904E
:101960008F907F906F905F904F903F902F90089551
:101970002F923F924F925F926F927F928F929F929F
:10198000AF92BF92CF92DF92EF92FF920F931F938D
:10199000DF93CF93CDB7DEB72E970FB6F894DEBFA7
:1019A0000FBECDBF180187019A8389837C836B8327
:1019B000509541955F4F5E834D83309521953F4F04
:1019C00038872F83CE0101969A87898779E0472E41
:1019D000512C4C0E5D1E7C0166247724CC24DD2422
:1019E000D7016D917D917D01882777FD8095982F96
:1019F0000E943E304B015C01E894B7F8662D772DCC
:101A00008C2D9D2DA50194010E949C2F87FF02C063
:101A100034016501E414F50419F7EE24FF24C10133
:101A2000AA2797FDA095BA2F8B879C87AD87BE8785
:101A3000A985BA85AD90BD90BA87A9876B857C854D
:101A40008D859E850E943E301B012C01B5018827A3
:101A500077FD8095982F0E943E30262D372D4C2DF6
:101A60005D2D0E94A32FA20191010E942E329B01A5
:101A7000AC01F701EE0FFF1FEE0FFF1FE35DFC4F00
:101A800020833183428353830894E11CF11CB4E02A
:101A9000EB16F10469F6043611052CF40115110555
:101AA00009F051C005C00436110511F0045610406C
:101AB00091E0E92EF12C662D772D8C2D9D2D20E0C7
:101AC00030E048EC52E40E942E32A20191010E94C3
:101AD000A32F0E94892F5B016C0197012250304097
:101AE000C80117FF03C0909581959F4FB7010E94D1
:101AF000B035620F731F882777FD8095982F0E945D
:101B00003E309B01AC01C601B5010E94C32E0E946C
:101B10000B30CB012E960FB6F894DEBF0FBECDBFB3
:101B2000CF91DF911F910F91FF90EF90DF90CF90B9
:101B3000BF90AF909F908F907F906F905F904F90ED
:101B40003F902F90089582E0E82EF12CB4CF2F9291
:101B50003F924F925F926F927F928F929F92AF923D
:101B6000BF92CF92DF92EF92FF920F931F93DF937A
:101B7000CF93CDB7DEB72E970FB6F894DEBF0FBE6A
:101B8000CDBF7A8369836536710514F06456704061
:101B90004B0177FF04C088249924861A970AE090A5
:101BA0003602F0903702A7014F5F5F4F9C012E195C
:101BB0003F0900E010E05A01CC24B7FCC094DC2CB3
:101BC000AB82BC82CD82DE821401442437FC409477
:101BD000542C6C01C818D908D886CF82C901AA270D
:101BE00097FDA095BA2F89879A87AB87BC877E8798
:101BF0006D873401F7FC34C0AD85BE85B7FD2DC0BF
:101C00004801880C991C880C991CF401E35DFC4F79
:101C1000A080B180C280D3806B817C818D819E81C8
:101C20000E943E309B01AC01C601B5010E942E32DC
:101C30005B016C01C201B1010E943E309B01AC010D
:101C4000C601B5010E94A32F9B01AC01F401E15C28
:101C5000FC4F2083318342835383E614F70424F43A
:101C6000ED85FE85F7FF13C09801220F331F220F69
:101C7000331FF901E35DFC4F80819181A281B38123
:101C8000215C3C4FF90180839183A283B383AF80B1
:101C9000B884AE14BF0494F549815A814536510584
:101CA00068F14801880C991C880C991CF401E35DCB
:101CB000FC4FA080B180C280D38069857A858B85F6
:101CC0009C850E943E309B01AC01C601B5010E947B
:101CD0002E325B016C01C201B1010E943E309B01BA
:101CE000AC01C601B5010E94A32F9B01AC01F40118
:101CF000E15CFC4F20833183428353830F5F1F4F8E
:101D00000430110509F076CF2E960FB6F894DEBF99
:101D10000FBECDBFCF91DF911F910F91FF90EF903C
:101D2000DF90CF90BF90AF909F908F907F906F90FB
:101D30005F904F903F902F90089581E090E00A9B34
:101D400002C080E090E09093900280938F0281E047
:101D500090E00B9B02C080E090E090938C02809317
:101D60008B0281E090E00C9B02C080E090E09093B9
:101D70003E0380933D0381E090E0849B02C080E0BD
:101D800090E090938E0280938D0281E090E0869B9C
:101D900002C080E090E09093160380931503209199
:101DA000630081E090E023FF02C080E090E0909328
:101DB0009202809391022091630081E090E024FFE1
:101DC00002C080E090E090938A0280938902089597
:101DD0001F920F920FB60F920BB60F921124EF9233
:101DE000FF920F931F932F933F934F935F936F93A4
:101DF0007F938F939F93AF93BF93EF93FF938FEF57
:101E00008DBD80E78CBD6091200270912102809190
:101E10002202909123022AE037ED43EA5CE30E941C
:101E2000C32E7B018C017F2D912F20E030E040E814
:101E30005FE30E948C31181624F4EE24FF2400E89E
:101E40001FE38E2D9F2DA02FB12F80932002909302
:101E50002102A0932202B093230260913A02709172
:101E60003B0280913C0290913D022AE037ED43EA2B
:101E70005CE30E94C32E7B018C017F2D912F20E01B
:101E800030E040E85FE30E948C31181624F4EE2421
:101E9000FF2400E81FE38E2D9F2DA02FB12F8093EC
:101EA0003A0290933B02A0933C02B0933D026091B2
:101EB00024027091250280912602909127022DEC38
:101EC0003CEC4CE45DE30E94C32E7B018C017F2D32
:101ED000912F20E030E040E85FE30E948C3118163B
:101EE00024F4EE24FF2400E81FE38E2D9F2DA02F65
:101EF000B12F8093240290932502A0932602B093E1
:101F000027020E949D0E80918F029091900200976F
:101F1000B1F080911E0290911F02009781F4809190
:101F20002802909129020196909329028093280219
:101F300081E090E090931F0280931E0210C0809178
:101F40008F0290919002009751F480911E0290911F
:101F50001F02009721F010921F0210921E02809122
:101F60008B0290918C02009731F1809154029091F4
:101F70005502009701F580915E0290915F020196F3
:101F800090935F0280935E0221E030E0309355022F
:101F90002093540280912B0390912C03FC01EE0FAF
:101FA000FF1FE351FD4F31832083019690932C0353
:101FB00080932B0310C080918B0290918C0200972C
:101FC00051F48091540290915502009721F01092A3
:101FD00055021092540280913D0390913E03009768
:101FE000B1F08091500290915102009781F480915C
:101FF0004E0290914F02019690934F0280934E02B1
:1020000081E090E0909351028093500210C0809143
:102010003D0390913E03009751F4809150029091BE
:102020005102009721F010925102109250028091BB
:102030008D0290918E020097B1F080914C029091A8
:102040004D02009781F480915602909157020196BB
:10205000909357028093560281E090E090934D0256
:1020600080934C0210C080918D0290918E02009757
:1020700051F480914C0290914D02009721F0109202
:102080004D0210924C028091150390911603009717
:10209000B1F08091380290913902009781F48091DB
:1020A00058029091590201969093590280935802D8
:1020B00081E090E0909339028093380210C08091C3
:1020C000150390911603009751F480913802909176
:1020D0003902009721F01092390210923802809153
:1020E000910290919202009741F180915202909159
:1020F0005302009711F580914A0290914B0201968C
:1021000090934B0280934A0281E090E090935302B7
:102110008093520280912B0390912C03FC01EE0FCF
:10212000FF1FE351FD4F22E030E031832083019611
:1021300090932C0380932B0310C080919102909177
:102140009202009751F480915202909153020097AD
:1021500021F01092530210925202809189029091C4
:102160008A020097B1F08091340290913502009775
:1021700081F48091600290916102019690936102D6
:102180008093600281E090E0909335028093340266
:1021900010C08091890290918A02009751F4809139
:1021A000340290913502009721F01092350210927E
:1021B00034028091360290913702009729F00196FF
:1021C000909337028093360280910E0290910F0215
:1021D000009749F080910E0290910F020197909321
:1021E0000F0280930E02809148029091490200975D
:1021F00029F00196909349028093480280912B0325
:1022000090912C038431910524F010922C031092AC
:102210002B0380915A0290915B02009749F08091C4
:102220005A0290915B02019690935B0280935A024E
:102230000E947B0BFF91EF91BF91AF919F918F9186
:102240007F916F915F914F913F912F911F910F91CE
:10225000FF90EF900F900BBE0F900FBE0F901F904E
:102260001895AF92BF92CF92DF92EF92FF920F93A9
:102270001F9360E070E0CB019B01AC017B018C01FE
:102280005B016C010E94740A1F910F91FF90EF9007
:10229000DF90CF90BF90AF900895FC01E65DFD4FB9
:1022A000808190E0861797076CF4809148029091A6
:1022B0004902009759F481E090E09093490280939D
:1022C000480204C0109249021092480221E030E016
:1022D00080914802909149028A30910514F420E0DF
:1022E00030E0C90108951F93182F81E10E94550124
:1022F000812F0E94550180910A028823E1F30E94F8
:102300004201882391F31F9108954F925F926F923B
:102310007F928F929F92AF92BF92CF92DF92EF9275
:10232000FF920F931F93CF93DF938C013B01C1E08A
:10233000D0E0CC24DD248FEFA82EB12C8824992462
:10234000EE24FF2444245524401A510A14C0602F5F
:1023500017FD642D8C2F0E949A2D90E0C816D90687
:1023600014F46C017E018A159B0524F4009711F08A
:102370005C014E0121966C167D064CF71016110675
:102380000CF07401C701DF91CF911F910F91FF9065
:10239000EF90DF90CF90BF90AF909F908F907F9005
:1023A0006F905F904F9008956F927F928F929F925F
:1023B000AF92BF92CF92DF92EF92FF920F931F9353
:1023C000D62EC72EB82EA92E922E832E742E652EB1
:1023D0006E2D7F2D802F912FD601F5012B2F3A2FB7
:1023E0004F2F5E2F0E948C311816ACF06E2D7F2D72
:1023F000802F912FD401F3012B2F3A2F4F2F5E2FD7
:102400000E949C2F87FF03C06401530104C0DE2C8F
:10241000CF2CB02EA12EA6019501652F7C2D832FE8
:102420009A2D1F910F91FF90EF90DF90CF90BF906A
:10243000AF909F908F907F906F9008952F923F92D2
:102440004F925F926F927F929F92AF92BF92CF9284
:10245000DF92EF92FF920F931F93DF93CF93CDB74D
:10246000DEB728970FB6F894DEBF0FBECDBF982E0B
:102470005B015A83498310924902109248021092DC
:102480000F0210920E0280910E0290910F02909313
:10249000500380934F0380914F039091500390938A
:1024A00037028093360260E070E080E090E0DC016B
:1024B0008B01000F111F000F111F9801215C3C4F71
:1024C000F90180839183A283B3832081318142818A
:1024D0005381F801E35DFC4F2083318342835383B2
:1024E0006F5F7F4F6430710519F700D000D000D0C6
:1024F000EDB7FEB7319607E113E0ADB7BEB7129660
:102500001C930E93119782EB91E09383828387EB68
:1025100091E0958384830E94922EEDB7FEB73696A4
:102520000FB6F894FEBF0FBEEDBF80E090E067E00D
:1025300070E0A8010E947E0110925B0210925A0284
:10254000892D66E60E949A2DD82EE0906C02F090BC
:102550006D0200916E0210916F02B501882777FD20
:102560008095982F0E943E30A80197010E94C32EAB
:102570000E940B303B016D187108882777FD80950C
:10258000982F0E943E305B016C01B301882777FDD4
:102590008095982F0E943E307B018C01C30168E535
:1025A00072E00E94B035882777FD8095982F0E94B1
:1025B0003E302FE832EC45E75EE30E94C32E9B01DC
:1025C000AC01C801B7010E942E329B01AC01C601CB
:1025D000B5010E94C32E0E940B301B0191E0692EB1
:1025E000712C80910E0290910F020097D1F770929A
:1025F0000F0260920E02892D66E60E949A2DE82E47
:10260000FF24892D67E60E949A2D38C00E9431115F
:10261000892D66E60E949A2DE82E892D67E60E9494
:102620009A2D20915A0230915B022115310521F437
:1026300070925B0260925A0220915A0230915B02C2
:10264000F1E02F353F071CF00E943111D5C0FF2467
:10265000E114F10499F020E030E0A90120933A025E
:1026600030933B0240933C0250933D022093200262
:10267000309321024093220250932302A82EBB24C0
:10268000E114F10421F4A114B10409F4BFCFE2185C
:10269000F308B701882777FD8095982F0E943E3078
:1026A0002DEC3CEC4CE45FE30E942E320E940B3098
:1026B000882777FD8095982F0E943E307B018C0102
:1026C00060E070E088E492E420E030E048E452EC1E
:1026D0000E94D4110E940B302B0169817A816A1902
:1026E0007B09882777FD8095982F0E943E307B01DB
:1026F0008C0160E070E080E792E420E030E040E7A9
:1027000052EC0E94D4110E940B3078876F83A09006
:102710006C02B0906D02C0906E02D0906F02AB015F
:10272000BA01882777FD8095982F0E943E3020912E
:102730003A0230913B0240913C0250913D020E948E
:102740002E322DEC3CEC4CE45FE30E942E326B8386
:102750007C838D839E83B201882777FD8095982F97
:102760000E943E30209120023091210240912202AD
:10277000509123020E942E327B018C0160915C02F9
:1027800070915D02882777FD8095982F0E943E30DA
:10279000A60195010E94C32E5B016C0160E070E010
:1027A000CB012B813C814D815E810E94740A809116
:1027B000360290913702009721F4709237026092AE
:1027C0003602809136029091370251E08F3595079D
:1027D0005CF44114510409F004CF8F81988501966F
:1027E0008330910508F0FDCE109249021092480204
:1027F000109237021092360228960FB6F894DEBF78
:102800000FBECDBFCF91DF911F910F91FF90EF9041
:10281000DF90CF90BF90AF909F907F906F905F9030
:102820004F903F902F9008952F923F925F926F921A
:102830007F928F929F92AF92BF92CF92DF92EF9250
:10284000FF920F931F93DF93CF93CDB7DEB76097BF
:102850000FB6F894DEBF0FBECDBF582E7A836983C2
:102860005C834B833E832D83109249021092480271
:1028700010920F0210920E0280910E0290910F02A0
:102880009093500380934F0380914F039091500396
:10289000909337028093360260E070E080E090E031
:1028A000DC018B01000F111F000F111F9801215C2B
:1028B0003C4FF90180839183A283B38320813181CE
:1028C00042815381F801E35DFC4F208331834283D1
:1028D00053836F5F7F4F6430710519F700D000D0CC
:1028E00000D0EDB7FEB7319607E113E0ADB7BEB744
:1028F00012961C930E93119782EB91E0938382833F
:102900008BEB91E0958384830E94922EEDB7FEB706
:1029100036960FB6F894FEBF0FBEEDBF80E090E094
:1029200067E070E0A8010E947E0110925B021092A5
:102930005A028824992480E090E06624772431E0CC
:10294000232E312C988B8F8780910E0290910F024D
:102950000097D1F730920F0220920E02852D66E685
:102960000E949A2DE82EFF24852D67E60E949A2D5D
:10297000082F10E0B701CF84D8883BC00E943111E6
:10298000852D66E60E949A2DA82E852D67E60E9469
:102990009A2D20915A0230915B022115310521F4C4
:1029A00030925B0220925A0220915A0230915B02CF
:1029B000F1E02F353F071CF00E94311122C16A2D32
:1029C00070E06115710599F020E030E0A9012093D5
:1029D0003A0230933B0240933C0250933D022093D5
:1029E0002002309321024093220250932302082FA9
:1029F00010E06115710521F40115110509F4BECF30
:102A0000D88ACF864B815C814115510589F0641BC2
:102A1000750B882777FD8095982F0E943E302DEC0E
:102A20003CEC4CE45FE30E942E320E940B303B01F1
:102A300089819A81009791F0E81AF90AB7018827ED
:102A400077FD8095982F0E943E302AE939E949E1C7
:102A50005FE30E942E320E940B304B01AD81BE819C
:102A6000109721F0A01BB10BB88BAF87B30188275B
:102A700077FD8095982F0E943E307B018C0160E0AD
:102A800070E080EF91E420E030E040EF51EC0E94F4
:102A9000D4110E940B303B01EF85F889BF018827D4
:102AA00077FD8095982F0E943E307B018C0160E07D
:102AB00070E08CE592E420E030E04CE552EC0E94BE
:102AC000D4110E940B30788B6F87B401882777FD73
:102AD0008095982F0E943E307B018C0160E070E071
:102AE00088E492E420E030E048E452EC0E94D41103
:102AF0000E940B304B01E0902002F09021020091E7
:102B0000220210912302B301882777FD8095982F28
:102B10000E943E30A80197010E942E322DEC3CEC21
:102B20004CE45FE30E942E326F83788789879A870F
:102B30002F853889B901882777FD8095982F0E94C5
:102B40003E3020913A0230913B0240913C0250913C
:102B50003D020E942E322DEC3CEC4CE45FE30E94DF
:102B60002E326B877C878D879E87B401882777FDFF
:102B70008095982F0E943E30A80197010E942E3226
:102B80007B018C0160915C0270915D02882777FD6A
:102B90008095982F0E943E305B016C016F81788593
:102BA00089859A852B853C854D855E850E94740AB2
:102BB0008091360290913702009721F430923702CB
:102BC00020923602809136029091370231E08F35A3
:102BD00093077CF46114710409F0B6CE8F8598894F
:102BE00001968330910508F0AFCE8114910409F06D
:102BF000ABCE109249021092480210923702109206
:102C0000360260960FB6F894DEBF0FBECDBFCF91EF
:102C1000DF911F910F91FF90EF90DF90CF90BF90C9
:102C2000AF909F908F907F906F905F903F902F908C
:102C300008952F923F924F925F926F927F928F9260
:102C40009F92AF92BF92CF92DF92EF92FF920F933B
:102C50001F93DF93CF93CDB7DEB72C970FB6F894C1
:102C6000DEBF0FBECDBF5C013B015C834B8319010E
:102C70001A830983109249021092480210920F029F
:102C800010920E0280910E0290910F0290935003C9
:102C900080934F0380914F0390915003909337029C
:102CA0008093360260E070E080E090E0DC018B0110
:102CB000000F111F000F111F9801215C3C4FF901FB
:102CC00080839183A283B3832081318142815381A8
:102CD000F801E35DFC4F20833183428353836F5FB0
:102CE0007F4F6430710519F700D000D000D0EDB7E8
:102CF000FEB7319607E113E0ADB7BEB712961C934D
:102D00000E93119782EB91E0938382838EEB91E097
:102D1000958384830E94922EEDB7FEB736960FB648
:102D2000F894FEBF0FBEEDBF80E090E067E070E07A
:102D3000A8010E947E018091740290917502A09179
:102D40007602B09177028D839E83AF83B887C501E9
:102D5000B30140E050E020E030E08101E980FA80FA
:102D60000E94B80CA114B10471F16114710459F1FD
:102D7000B101882777FD8095982F0E943E307B0116
:102D80008C0160912D0370912E0380912F039091FF
:102D9000300320913103309132034091330350913D
:102DA00034030E9499319B01AC01C801B7010E9414
:102DB000A32F9B01AC015F77C801B7010E942E329F
:102DC0000E940B301B01C501B3014B815C8120E0E7
:102DD00030E08101E980FA800E94B80C90935003A2
:102DE00080934F03C1010A966AE070E00E94B035FB
:102DF000CB01AA2797FDA095BA2F89879A87AB8721
:102E0000BC8780910E0290910F020097D1F7A1E04C
:102E1000B0E0B0930F02A0930E0280914F03909107
:102E2000500369817A810E94A70DEB81FC81309764
:102E300009F041C0209174023091750240917602F0
:102E4000509177026D817E818F8198850E94C22E7C
:102E5000662EA72EE82E092F69857A858B859C859D
:102E60000E943E309B01AC01662D7A2D8E2D902F55
:102E70000E942E32E62EF72E082F192FC801B70117
:102E80009F7720E030E040EF51E40E948C3118162B
:102E900054F40F2EF0E0EF2EF0E0FF2EF0E00F2FB5
:102EA000F0E01F2FF02DE0924703F09248030093CB
:102EB000490310934A03809136029091370200979C
:102EC00031F481E090E09093370280933602809154
:102ED0004F039091500320913602309137028217B0
:102EE00093070CF510924902109248021092370293
:102EF000109236022C960FB6F894DEBF0FBECDBFEF
:102F0000CF91DF911F910F91FF90EF90DF90CF90C5
:102F1000BF90AF909F908F907F906F905F904F90F9
:102F20003F902F90089560903F03709040038090F1
:102F3000410390904203209043033090440340901B
:102F4000450350904603E0904703F09048030091FA
:102F5000490310914A0360915C0270915D028827D9
:102F600077FD8095982F0E943E305B016C01C40173
:102F7000B301A20191010E94740A43CFEF92FF9224
:102F80000F931F937B01FA0189019C01220F331FCC
:102F9000280F391F4E2D5F2D57FF03C050954195C7
:102FA0005F4F249FC001259F900D349F900D1124E9
:102FB00064EB70E00E94B03580E090E0A7019F01D3
:102FC0000E9419161F910F91FF90EF9008952F9274
:102FD0003F924F925F926F927F928F929F92AF92A9
:102FE000BF92CF92DF92EF92FF920F931F93DF93E6
:102FF000CF93CDB7DEB762970FB6F894DEBF0FBEA2
:10300000CDBF9A8789877C876B873A0119011C831A
:103010000B83FE86ED86BA82A98210924902109235
:10302000480210920F0210920E0280910E029091AF
:103030000F029093500380934F0380914F03909120
:103040005003909337028093360260E070E080E096
:1030500090E0DC019B01220F331F220F331FF90187
:10306000E15CFC4F80839183A283B383E080F18095
:1030700002811381235D3C4FF901E082F1820283DA
:1030800013836F5F7F4F6430710521F700D000D04C
:1030900000D0EDB7FEB7319607E113E0ADB7BEB78C
:1030A00012961C930E93119782EB91E09383828387
:1030B00083EC91E0958384830E94922EEDB7FEB756
:1030C00036960FB6F894FEBF0FBEEDBF80E090E0DD
:1030D00067E070E0A8010E947E01809174029091E7
:1030E0007502A0917602B09177028D839E83AF83A3
:1030F000B887C301B10140E050E020E030E0860134
:10310000E980FA800E94B80C6114710471F12114F5
:10311000310459F1B601882777FD8095982F0E94D8
:103120003E307B018C0160912D0370912E038091C4
:103130002F0390913003209131033091320340915D
:103140003303509134030E9499319B01AC01C801B3
:10315000B7010E94A32F9B01AC015F77C801B701A3
:103160000E942E320E940B306B01C301B1014B81D2
:103170005C8120E030E08601E980FA800E94B80C92
:103180009093500380934F03C6010A966AE070E063
:103190000E94B035CB01AA2797FDA095BA2F8F8743
:1031A000988BA98BBA8B80910E0290910F02009799
:1031B000D1F7A1E0B0E0B0930F02A0930E0280918E
:1031C0004F039091500369817A810E94A70DEB8192
:1031D000FC81309709F041C0209174023091750252
:1031E00040917602509177026D817E818F81988522
:1031F0000E94C22E662EA72EE82E092F6F85788991
:1032000089899A890E943E309B01AC01662D7A2DF6
:103210008E2D902F0E942E32E62EF72E082F192F7A
:10322000C801B7019F7720E030E040EF51E40E94F1
:103230008C31181654F40F2EF0E0EF2EF0E0FF2E34
:10324000F0E00F2FF0E01F2FF02DE0924703F092F7
:1032500048030093490310934A03809136029091EA
:103260003702009731F481E090E090933702809329
:10327000360280914F039091500320913602309195
:1032800037028217930764F0A985BA85109749F52C
:103290008B859C856D857E850E944D11009709F177
:1032A0001092490210924802109237021092360290
:1032B00062960FB6F894DEBF0FBECDBFCF91DF91FF
:1032C0001F910F91FF90EF90DF90CF90BF90AF9044
:1032D0009F908F907F906F905F904F903F902F9036
:1032E000089560903F037090400380904103909058
:1032F0004203209043033090440340904503509094
:103300004603E0904703F090480300914903109171
:103310004A0360915C0270915D02882777FD809579
:10332000982F0E943E305B016C01C401B301A201E1
:1033300091010E94740A37CF2F923F924F925F9271
:103340006F927F928F929F92AF92BF92CF92DF92B5
:10335000EF92FF920F931F93DF93CF93CDB7DEB71A
:103360002E970FB6F894DEBF0FBECDBF9A83898328
:103370005B013A013E832D831801FC82EB8210929F
:1033800049021092480210920F0210920E02809190
:103390000E0290910F029093500380934F038091FF
:1033A0004F0390915003909337028093360260E070
:1033B00070E080E090E0DC019B01220F331F220FC0
:1033C000331FF901E15CFC4F80839183A283B383B7
:1033D000E080F18002811381235D3C4FF901E0829E
:1033E000F182028313836F5F7F4F6430710521F791
:1033F00000D000D000D0EDB7FEB7319607E113E062
:10340000ADB7BEB712961C930E93119782EB91E065
:10341000938382838AEC91E0958384830E94922E29
:10342000EDB7FEB736960FB6F894FEBF0FBEEDBFF0
:1034300080E090E067E070E0A8010E947E0180914A
:10344000740290917502A0917602B09177028F83F9
:103450009887A987BA87C501B30140E050E020E012
:1034600030E08101EB80FC800E94B80CA114B10413
:1034700071F16114710459F1B101882777FD8095CC
:10348000982F0E943E307B018C0160912D0370913A
:103490002E0380912F0390913003209131033091BE
:1034A000320340913303509134030E9499319B01C0
:1034B000AC01C801B7010E94A32F9B01AC015F774B
:1034C000C801B7010E942E320E940B301B01C501BA
:1034D000B3014D815E8120E030E08101EB80FC8012
:1034E0000E94B80C9093500380934F03C1010A9639
:1034F0006AE070E00E94B035CB01AA2797FDA09545
:10350000BA2F8B879C87AD87BE8780910E029091E2
:103510000F020097D1F7A1E0B0E0B0930F02A093A3
:103520000E0280914F03909150036B817C810E9429
:10353000A70DED81FE81309709F041C02091740202
:103540003091750240917602509177026F817885B3
:1035500089859A850E94C22E662EA72EE82E092FF5
:103560006B857C858D859E850E943E309B01AC01DC
:10357000662D7A2D8E2D902F0E942E32E62EF72E5C
:10358000082F192FC801B7019F7720E030E040EFE6
:1035900051E40E948C31181654F40F2EF0E0EF2EF7
:1035A000F0E0FF2EF0E00F2FF0E01F2FF02DE09263
:1035B0004703F09248030093490310934A03809114
:1035C000360290913702009731F481E090E09093B9
:1035D00037028093360280914F03909150032091DF
:1035E000360230913702821793074CF41092490249
:1035F00010924802109237021092360263C0A981DD
:10360000BA81109739F480918B0290918C020097C7
:1036100069F110C0E981FA81E130F105B1F08981E9
:103620009A818230910511F580918B0290918C02E4
:10363000009759F0109249021092480210923702F6
:103640001092360221E030E03CC0809191029091CE
:103650009202009759F0109249021092480210927B
:1036600037021092360222E030E02BC060903F0318
:103670007090400380904103909042032090430358
:10368000309044034090450350904603E090470338
:10369000F09048030091490310914A0360915C0245
:1036A00070915D02882777FD8095982F0E943E30AB
:1036B0005B016C01C401B301A20191010E94740A73
:1036C00024CFC9012E960FB6F894DEBF0FBECDBF32
:1036D000CF91DF911F910F91FF90EF90DF90CF90EE
:1036E000BF90AF909F908F907F906F905F904F9022
:1036F0003F902F9008952F923F924F925F926F923A
:103700007F928F929F92AF92BF92CF92DF92EF9271
:10371000FF920F931F93DF93CF93CDB7DEB7AA9796
:103720000FB6F894DEBF0FBECDBF4C017A8369831C
:103730005C834B8339011C870B87FE82ED82B88640
:10374000AF82109249021092480210920F0210921A
:103750000E0280910E0290910F029093500380937D
:103760004F0380914F0390915003909337028093C1
:10377000360220E030E00F2EF0E0EF2EF0E0FF2EDA
:10378000F0E00F2FF0E01F2FF02DC901880F991FD7
:10379000880F991FFC01E15CFC4FE082F1820283FB
:1037A00013834081518162817381835D9C4FDC0171
:1037B0004D935D936D937C9313972F5F3F4F243010
:1037C000310519F700D000D000D0EDB7FEB7319623
:1037D00007E113E0ADB7BEB712961C930E93119795
:1037E00082EB91E09383828388ED91E095838483DB
:1037F0000E94922EEDB7FEB736960FB6F894FEBF34
:103800000FBEEDBF80E090E067E070E0A8010E948D
:103810007E0128E230E049815A81429FC001439FE6
:10382000900D529F900D112420915C0230915D0209
:10383000820F931F68E671E00E94B035843B9105CA
:1038400024F411E0212E312C03C022242A94322C9E
:1038500080E090E06B817C8140E050E020E030E04F
:103860008601EF80F8840E94B80C909350038093F7
:103870004F03C301880F991F880F991F860D971D4D
:103880004BEF5FEF649E9001659E300D749E300D8E
:103890001124269CB001279C700D369C700D1124BC
:1038A0007A876987D4011896BA8BA98BE981FA8146
:1038B000E65DFD4FFC8BEB8BA601662757FD6095FF
:1038C000762F4D8B5E8B6F8B788FD094C194D108FF
:1038D000D394A601662757FD6095762F498F5A8F9E
:1038E0006B8F7C8FAC01662757FD6095762F4D8FCF
:1038F0005E8F6F8F78A3B901882777FD8095982F09
:1039000069A37AA38BA39CA388279927881999096F
:103910009EA38DA380914F03909150036F81788572
:103920000E94A70D80910E0290910F02009791F7CF
:10393000A1E0B0E0B0930F02A0930E02E989FA89EA
:10394000E131F10508F04AC080912B02882309F487
:103950006BC0C40197FE02C08DA19EA1181419046A
:1039600044F06D817E810E944D11009709F45CC086
:1039700036C1865D9D4FDC018C9190E0ED81FE812A
:103980008E179F070CF450C029813A8128153905FC
:1039900009F025C1C0904303D0904403E090450353
:1039A000F090460360915C0270915D02882777FD7C
:1039B0008095982F0E943E304B015C0160E070E0E2
:1039C000CB01A70196017B018C01650154010E9486
:1039D000740A31E33A95F1F7000001C14DE0841615
:1039E000910411F580918B0290918C02009759F00F
:1039F0001092490210924802109237021092360239
:103A000021E030E0F5C08091910290919202009700
:103A100059F0109249021092480210923702109207
:103A2000360222E030E0E4C0AB89BC898C91E82FFB
:103A3000F0E02B853C85E21BF30BFE87ED87CF0181
:103A4000F7FF03C0909581959F4F853091052CF12C
:103A50006D8D7E8D8F8D98A10E943E305B016C0133
:103A600069A17AA18BA19CA10E943E302B013C014F
:103A70004D855E85BA01882777FD8095982F0E9435
:103A80003E307B018C01C601B501A30192010E9469
:103A9000D4110E940B306B0102C0CD84DE846B8197
:103AA0007C8177FF04C0D094C194D108D3947CE08A
:103AB0008716910449F4ED84FE84EE0CFF1CEE0C95
:103AC000FF1CCC24DD2402C0ED84FE846D897E8938
:103AD0008F89988D0E943E302B013C01698D7A8D33
:103AE0008B8D9C8D0E943E306D877E878F87988B53
:103AF000C70162E070E00E94B035882777FD8095AD
:103B0000982F0E943E307B018C01C301B2012D85AC
:103B10003E854F8558890E94D411209143033091EE
:103B2000440340914503509146032FA338A749A76A
:103B30005AA70E940B3088279927861B970B829DD6
:103B4000B001839D700D929D700D1124882777FD23
:103B50008095982F0E943E302B013C01D094C19457
:103B6000D108D39489859A85C89EB001C99E700DED
:103B7000D89E700D1124882777FD8095982F0E947C
:103B80003E307B018C0160915C0270915D02882760
:103B900077FD8095982F0E943E305B016C01C30138
:103BA000B2012FA138A549A55AA50E94740A809197
:103BB000360290913702009731F4A1E0B0E0B09363
:103BC0003702A093360280914F03909150032091C9
:103BD000360230913702821793070CF09BCE109279
:103BE000490210924802109237021092360201C028
:103BF000C901AA960FB6F894DEBF0FBECDBFCF9114
:103C0000DF911F910F91FF90EF90DF90CF90BF90C9
:103C1000AF909F908F907F906F905F904F903F906C
:103C20002F9008952F923F924F925F926F927F92C2
:103C30008F929F92AF92BF92CF92DF92EF92FF92BC
:103C40000F931F93DF93CF93CDB7DEB762970FB675
:103C5000F894DEBF0FBECDBF5C014B013A01690194
:103C60001E870D87109249021092480210920F028F
:103C700010920E0280910E0290910F0290935003C9
:103C800080934F0380914F0390915003909337029C
:103C90008093360260E070E080E090E0DC018B0110
:103CA000000F111F000F111F9801215C3C4FF901FB
:103CB00080839183A283B3832081318142815381A8
:103CC000F801E35DFC4F20833183428353836F5FB0
:103CD0007F4F6430710519F700D000D000D0EDB7E8
:103CE000FEB7319607E113E0ADB7BEB712961C934D
:103CF0000E93119782EB91E0938382838DED91E097
:103D0000958384830E94922EEDB7FEB736960FB648
:103D1000F894FEBF0FBEEDBF80E090E067E070E07A
:103D2000A8010E947E01C501B401A30120E030E09A
:103D30008601ED84FE840E94B80CB601882777FDC9
:103D40008095982F0E943E307B018C0160912D035D
:103D500070912E0380912F039091300320913103B5
:103D60003091320340913303509134030E949931D2
:103D70009B01AC01C801B7010E94A32F9B01AC01BC
:103D80005F77C801B7010E942E320E940B307B0181
:103D90008C01C501B401A30120E030E08701ED846E
:103DA000FE840E94B80C9093500380934F03992493
:103DB00088247724662480910E0290910F02009748
:103DC000D1F781E090E090930F0280930E028091F2
:103DD0004F03909150036D857E850E94A70D6091E1
:103DE0004703709148038091490390914A0390588A
:103DF00020E030E048EC52E40E94A32F9B01AC018C
:103E0000D401F3016B2F782D8F2F962D0E94C32E96
:103E1000962E872E782E692E60913F037091400375
:103E200080914103909142032091430330914403D8
:103E30004091450350914603D401F301EB2EFA2E35
:103E40000F2F1E2F6E010894C11CD11C0E94FC096B
:103E50008091360290913702009731F4A1E0B0E0F2
:103E6000B0933702A093360280914F039091500394
:103E70002091360230913702821793070CF5109289
:103E8000490210924802109237021092360262964E
:103E90000FB6F894DEBF0FBECDBFCF91DF911F915B
:103EA0000F91FF90EF90DF90CF90BF90AF909F90D9
:103EB0008F907F906F905F904F903F902F900895DC
:103EC000E0904703F09048030091490310914A03A2
:103ED00029803A804B805C802D813E814F815885BE
:103EE00060915C0270915D02882777FD8095982F24
:103EF0002F87388B498B5A8B0E943E305B016C01B7
:103F0000C201B1012F85388949895A890E94740AF2
:103F100052CF2F923F924F925F926F927F928F92E9
:103F20009F92AF92BF92CF92DF92EF92FF920F9348
:103F30001F93DF93CF93CDB7DEB769970FB6F89491
:103F4000DEBF0FBECDBF7C01662E272E6A01590150
:103F50001A8B098B109249021092480210920F029C
:103F600010920E0280910E0290910F0290935003D6
:103F700080934F0380914F039091500390933702A9
:103F80008093360260E070E080E090E0DC01462D36
:103F90009B01220F331F220F331FF901E15CFC4FFD
:103FA00080839183A283B383408051806280738039
:103FB000235D3C4FF90140825182628273826F5FC0
:103FC0007F4F6430710521F7642E00D000D000D0FF
:103FD000EDB7FEB7319607E113E0ADB7BEB7129665
:103FE0001C930E93119782EB91E09383828383EE6F
:103FF00091E0958384830E94922EEDB7FEB73696AA
:104000000FB6F894FEBF0FBEEDBF80E090E067E012
:1040100070E0A8010E947E01B701882777FD809596
:10402000982F0E943E302BED3FE049E450E40E947F
:104030002E327B018C01662D722D77FF03C07095A7
:1040400061957F4F882777FD8095982F0E943E309D
:104050009B01AC01C801B7010E942E3220E030E084
:1040600044E353E40E94A32F0E940B306D877E87A8
:104070008F87988B80E090E06D857E85462D522D50
:1040800096018501E988FA880E94B80CB501882755
:1040900077FD8095982F0E943E307B018C01209106
:1040A00031033091320340913303509134030E9425
:1040B000A32F9B01AC015F77C801B7010E942E328C
:1040C0000E940B307B018C0180E090E06D857E8545
:1040D000462D522D96018701E988FA880E94B80C76
:1040E0009093500380934F031E8A1F8A188E198E57
:1040F0001D861B8A1C8A1D8A80910E0290910F02D8
:104100000097D1F781E090E090930F0280930E0228
:1041100080914F039091500369897A890E94A70D7D
:1041200060914703709148038091490390914A033D
:1041300020E030E048EC52E40E94A32F9B01AC0148
:10414000BD85AB89FC89ED896B2F7A2F8F2F9E2F30
:104150000E94C32E6D877B8B8C8B9D8B60914B0354
:1041600070914C0380914D0390914E03905820E044
:1041700030E048EC52E40E94A32F9B01AC01BE89C1
:10418000AF89F88DE98D6B2F7A2F8F2F9E2F0E948C
:10419000C32E6E8B7F8B888F998FA0903F03B0903A
:1041A0004003C0904103D09042036090430370905D
:1041B000440380904503909046035D854B893C897C
:1041C0002D89652F742F832F922FBE89AF89F88D8B
:1041D000E98D2B2F3A2F4F2F5E2F0E94C32E7B018C
:1041E0008C01C601B501A40193016E010894C11CA4
:1041F000D11C0E94FC0980913602909137020097F1
:1042000031F4A1E0B0E0B0933702A0933602809180
:104210004F0390915003209136023091370282175C
:1042200093070CF51092490210924802109237023F
:104230001092360269960FB6F894DEBF0FBECDBF5E
:10424000CF91DF911F910F91FF90EF90DF90CF9072
:10425000BF90AF909F908F907F906F905F904F90A6
:104260003F902F900895E0904B03F0904C03009105
:104270004D0310914E0369807A808B809C802D8045
:104280003E804F80588460915C0270915D02882767
:1042900077FD8095982F0E943E305B016C01C40130
:1042A000B301A20191010E94740A26CF2F923F927E
:1042B0004F925F926F927F928F929F92AF92BF9236
:1042C000CF92DF92EF92FF920F931F93DF93CF93E2
:1042D000CDB7DEB728970FB6F894DEBF0FBECDBFBF
:1042E0006D837E838F8398877A01109249021092A2
:1042F000480210920F0210920E0280910E029091CD
:104300000F029093500380934F0380914F0390913D
:104310005003909337028093360260E070E080E0B3
:1043200090E0DC018B01000F111F000F111F98019D
:10433000215C3C4FF90180839183A283B383208168
:10434000318142815381F801E35DFC4F2083318349
:10435000428353836F5F7F4F6430710519F700D03C
:1043600000D000D0EDB7FEB7319607E113E0ADB74E
:10437000BEB712961C930E93119782EB91E0938334
:10438000828386EE91E0958384830E94922EEDB71E
:10439000FEB736960FB6F894FEBF0FBEEDBF80E0B5
:1043A00090E067E070E0A8010E947E0180917402B5
:1043B00090917502A0917602B091770289839A83D9
:1043C000AB83BC838DEC9CECACE4BEE38093240215
:1043D00090932502A0932602B093270237018824E8
:1043E00077FC8094982CF094E194F108F3941701F1
:1043F000442437FC4094542C80910E0290910F027B
:104400000097D1F7A1E0B0E0B0930F02A0930E02A5
:10441000209174023091750240917602509177029A
:1044200069817A818B819C810E94C22E2D813E817F
:104430004F8158850E94C22E20E030E040EA50E4CF
:104440000E942E32D62EC72EB82EA92EC401B3013B
:104450000E943E307B018C01C201B1010E943E30BE
:104460009B01AC01C801B701ED2CFC2C0B2D1A2DC2
:104470000E94D4117B018C019F772DEC3CEC4CEC1D
:104480005DE30E949C2F18160CF1109249021092C5
:104490004802109237021092360228960FB6F8940E
:1044A000DEBF0FBECDBFCF91DF911F910F91FF9067
:1044B000EF90DF90CF90BF90AF909F908F907F90C4
:1044C0006F905F904F903F902F900895C801B70173
:1044D000209124023091250240912602509127021A
:1044E0000E942E327B018C0160E070E0CB019B01C9
:1044F000AC015B016C010E94740A7ECF2F923F9247
:104500004F925F926F927F928F929F92AF92BF92E3
:10451000CF92DF92EF92FF920F931F93DF93CF938F
:10452000CDB7DEB7A3970FB6F894DEBF0FBECDBFF1
:104530005C013B011A0169011E870D87470110923A
:1045400049021092480210920F0210920E028091BE
:104550000E0290910F029093500380934F0380912D
:104560004F0390915003909337028093360220E0DE
:1045700030E00F2EF0E0EF2EF0E0FF2EF0E00F2FF6
:10458000F0E01F2FF02DC901880F991F880F991F88
:10459000FC01E15CFC4FE082F182028313834081E5
:1045A000518162817381FC01E35DFC4F4083518343
:1045B000628373832F5F3F4F2430310521F700D092
:1045C00000D000D0EDB7FEB7319607E113E0ADB7EC
:1045D000BEB712961C930E93119782EB91E09383D2
:1045E000828389EE91E0958384830E94922E8DB719
:1045F0009EB706960FB6F8949EBF0FBE8DBF80E0A3
:1046000090E067E070E0A8010E947E018091740252
:1046100090917502A0917602B09177028C8B9D8B60
:10462000AE8BBF8B8114910409F45DC08DEC9CECC2
:10463000ACE4BEE38093240290932502A09326026B
:10464000B093270292E0891691040CF44CC0C50186
:10465000B30140E050E020E030E08601ED84FE84CC
:104660000E94B80CA114B10471F16114710459F1E4
:10467000B601882777FD8095982F0E943E307B01F8
:104680008C0160912D0370912E0380912F039091E6
:104690003003209131033091320340913303509124
:1046A00034030E9499319B01AC01C801B7010E94FB
:1046B000A32F9B01AC015F77C801B7010E942E3286
:1046C0000E940B306B01C501B30140E050E020E0D7
:1046D00030E08601ED84FE840E94B80C9093500374
:1046E00080934F035BC0C501B301A10120E030E01E
:1046F0008601ED84FE840E94B80CA114B10471F10E
:104700006114710459F1B601882777FD8095982FBF
:104710000E943E307B018C0160912D0370912E032D
:1047200080912F0390913003209131033091320317
:1047300040913303509134030E9499319B01AC01A5
:10474000C801B7010E94A32F9B01AC015F77C8018C
:10475000B7010E942E320E940B306B01C501B301DC
:10476000A10120E030E08601ED84FE840E94B80CB7
:104770009093500380934F036091350370913603FB
:1047800080913703909138030E940B30862E972E2C
:1047900097FE04C090948194910893941F86188A80
:1047A000198A1A8AC101AA2797FDA095BA2F888F66
:1047B000998FAA8FBB8FC401AA2797FDA095BA2F06
:1047C0008C8F9D8FAE8FBF8F90948194910893941E
:1047D000C401AA2797FDA095BA2F88A399A3AAA3DD
:1047E000BBA380910E0290910F020097D1F7A1E038
:1047F000B0E0B0930F02A0930E0280914F0390910E
:1048000050036D857E850E94A70D20917402309122
:10481000750240917602509177026C897D898E896C
:104820009F890E94C22E7B018C01688D798D8A8DB3
:104830009B8D0E943E309B01AC01C801B7010E94D4
:10484000C22E20E030E040EA50E40E942E32C62E14
:10485000A72E882E692E6C8D7D8D8E8D9F8D0E944A
:104860003E307B018C0168A179A18AA19BA10E94A5
:104870003E309B01AC01C801B701EC2CFA2C082D8D
:10488000162D0E94D4114B015C012091240230911D
:10489000250240912602509127020E942E329B0150
:1048A000AC0120934703309348034093490350934E
:1048B0004A036091470370914803809149039091A6
:1048C0004A03905820E030E048EC52E40E94A32FC5
:1048D0009B01AC01BF85A889F989EA896B2F7A2FE2
:1048E0008F2F9E2F0E94C32E6F87788B898B9A8B78
:1048F00060913F0370914003809141039091420386
:104900002091430330914403409145035091460365
:10491000BF85A889F989EA89EB2EFA2E0F2F1E2F61
:104920006E010894C11CD11C0E94FC0980913602C2
:1049300090913702009731F481E090E09093370234
:104940008093360280914F0390915003209136025C
:1049500030913702821793075CF480E090E0DC012D
:104960008D839E83AF83B88789839A83AB83BC830F
:10497000C501B4019F77A1E0AB8B2DEC3CEC4CEC76
:104980005DE30E949C2F181614F41B8A0BC080E074
:1049900090E0DC018093470390934803A093490380
:1049A000B0934A03E0904703F09048030091490315
:1049B00010914A0369807A808B809C802D803E8094
:1049C0004F80588460915C0270915D02882777FD6A
:1049D0008095982F0E943E305B016C01C401B301A9
:1049E000A20191010E94740A80914F03909150039B
:1049F0002091360230913702821793070CF0F1CEE6
:104A00009B89992309F4EDCE109249021092480235
:104A10001092370210923602A3960FB6F894DEBFBA
:104A20000FBECDBFCF91DF911F910F91FF90EF90FF
:104A3000DF90CF90BF90AF909F908F907F906F90BE
:104A40005F904F903F902F9008952F923F924F92FA
:104A50005F926F927F928F929F92AF92BF92CF920E
:104A6000DF92EF92FF920F931F93DF93CF93CDB717
:104A7000DEB768970FB6F894DEBF0FBECDBF9A833E
:104A800089837E836D8358874F833A8729875701AF
:104A9000DC86CB86109249021092480210920F02D7
:104AA00010920E0280910E0290910F02909350038B
:104AB00080934F0380914F0390915003909337025E
:104AC0008093360260E070E080E090E0DC019B01C2
:104AD000220F331F220F331FF901E15CFC4F80834B
:104AE0009183A283B3836080718082809380235DF1
:104AF0003C4FF90160827182828293826F5F7F4FA7
:104B00006430710521F700D000D000D0EDB7FEB7BA
:104B10003196B7E1EB2EB3E0FB2EADB7BEB71296E0
:104B2000FC92EE92119782EB91E0938382838CEE5C
:104B300091E0958384830E94922EEDB7FEB736965E
:104B40000FB6F894FEBF0FBEEDBF80E090E067E0C7
:104B500070E0A7010E947E0189819A81019629E077
:104B600030E0B9010E94B0353C0189819A810896F4
:104B7000B9010E94B0351C018091740290917502B8
:104B8000A0917602B0917702898B9A8BAB8BBC8B0C
:104B900017FD05C0A1E0B0E0BC83AB8304C0EFEF1C
:104BA000FFEFFC83EB8380E090E0B80140E050E051
:104BB00020E030E08501EB84FC840E94B80C9093E7
:104BC000500380934F03C5010A966AE070E00E948B
:104BD000B035CB01AA2797FDA095BA2F8D8B9E8B60
:104BE000AF8BB88FD301A65DBD4FBE87AD87F101F6
:104BF000E65DFD4FF88BEF8780910E0290910F02DA
:104C00000097D1F721E030E030930F0220930E029D
:104C100080914F03909150036B857C850E94A70D76
:104C20002091740230917502409176025091770282
:104C300069897A898B899C890E94C22E662EA72E4B
:104C4000E82E092F6D897E898F89988D0E943E30CC
:104C50009B01AC01662D7A2D8E2D902F0E942E3255
:104C6000E62EF72E082F192FC801B7019F7720E0F5
:104C700030E040EF51E40E948C31181654F40F2EAE
:104C8000F0E0EF2EF0E0FF2EF0E00F2FF0E01F2F0E
:104C9000F02DAD85BE858C9190E0ED81FE81E81709
:104CA000F907CCF06C9170E06E1B7F0B882777FDC5
:104CB0008095982F0E943E3020E030E040E650E49E
:104CC0000E942E3220E030E0A9010E94C32E0E94F3
:104CD0000B305B0102C0AA24BB24AF85B8898C913C
:104CE00090E0EF81F885E817F9072CF16C90B50199
:104CF000882777FD8095982F0E943E305B016C01DC
:104D0000662D70E02F813885621B730B882777FD35
:104D10008095982F0E943E3020E030E040E650EC35
:104D20000E942E329B01AC01C601B5010E94C32E28
:104D30000E940B305B0189859A85009741F089813B
:104D40009A8169857A850E944D110097B9F4809106
:104D5000360290913702009731F4A1E0B0E0B093B1
:104D60003702A093360280914F0390915003209117
:104D7000360230913702821793070CF510924902E0
:104D800010924802109237021092360268960FB6BF
:104D9000F894DEBF0FBECDBFCF91DF911F910F9171
:104DA000FF90EF90DF90CF90BF90AF909F908F904B
:104DB0007F906F905F904F903F902F90089520903C
:104DC0004303309044034090450350904603B09411
:104DD000A194B108B394EB81FC81AE9EB001AF9E6B
:104DE000700DBE9E700D1124882777FD8095982F39
:104DF0000E943E303B014C0160915C0270915D026B
:104E0000882777FD8095982F0E943E305B016C01CA
:104E1000C401B301A20191010E94740AEDCE2F9248
:104E20003F924F925F926F927F928F929F92AF923A
:104E3000BF92CF92DF92EF92FF920F931F93DF9377
:104E4000CF93CDB7DEB7C054D0400FB6F894DEBFD5
:104E50000FBECDBF9A8389837A8B698B1A013C87F9
:104E60002B873801FE8AED8ABE82AD8210924902FC
:104E70001092480210920F0210920E0280910E02C0
:104E800090910F029093500380934F0380914F03B2
:104E900090915003909337028093360260E070E067
:104EA00080E090E0DC019B01220F331F220F331FB3
:104EB000F901E15CFC4F80839183A283B383E0809E
:104EC000F18002811381235D3C4FF901E082F18280
:104ED000028313836F5F7F4F6430710521F700D029
:104EE00000D000D0EDB7FEB7319607E113E0ADB7C3
:104EF000BEB712961C930E93119782EB91E09383A9
:104F0000828382EF91E0958384830E94922EEDB795
:104F1000FEB736960FB6F894FEBF0FBEEDBF80E029
:104F200090E067E070E0A8010E947E012091740289
:104F30003091750240917602509177022F8B388F15
:104F4000498F5A8FB301620D731D2114310441F052
:104F50006114710429F0CB0162E070E00E94B03569
:104F600088E290E049815A81489F9001499F300D25
:104F7000589F300D1124C90188569140FC0197FFBC
:104F800004C0EE27FF27E81BF90BA90137FF04C077
:104F900044275527421B530B4E175F070CF4C901DA
:104FA00040915C0250915D02E8E2F0E06E9F90015A
:104FB0006F9F300D7E9F300D1124240F351F253B30
:104FC00031052CF461E070E078876F8304C0AFEFA7
:104FD000BFEFB887AF83840F951F875A9F4F833BDE
:104FE000910528F0E1E0F0E0FC8BEB8B04C04FEF83
:104FF0005FEF5C8B4B8B253B31055CF06F817885D7
:105000008FEF6F3F780781F4A1E0B0E0BA87A987FE
:1050100014C0EF81F8852FEFEF3FF20751F44FEF07
:105020005FEF5A87498709C06FEF7FEF7A876987FB
:1050300004C081E090E09A8789878B859C850A97D8
:10504000B6010E94B035882777FD8095982F0E9481
:105050003E306BA37CA38DA39EA389899A890A976E
:105060006D817E810E94B035882777FD8095982FCD
:105070000E943E306FA378A789A79AA7C6010A9617
:105080002AE030E0B9010E94B03578A36F8F8D819E
:105090009E810A96B9010E94B0357AA369A344247F
:1050A0005524882499249601442737FD4095542F90
:1050B0002BA73CA74DA75EA7D094C194D108D39449
:1050C000A601662757FD6095762F4FA758AB69ABB1
:1050D0007AAB6D817E81882777FD8095982F6BABA9
:1050E0007CAB8DAB9EAB8D819E81909581959F4FC2
:1050F0009C01442737FD4095542F2FAB38AF49AF63
:105100005AAF4EE352E0240E351EB301640F751FF3
:105110007CAF6BAF69807A80640E751E7EAE6DAE1B
:1051200080910E0290910F020097D1F781E090E0FC
:1051300090930F0280930E02A989BA89109711F1FA
:10514000EDADFEAD808190E08A1B9B0B2B893C89E5
:10515000289FB001299F700D389F700D112488275A
:1051600077FD8095982F0E943E30BFA1A8A509A584
:10517000EAA42B2F3A2F402F5E2D0E94A32F0E94CE
:105180000B302B014B855C854115510509F1D1018F
:105190008C9190E0841B950BEF81F885E89FB0011E
:1051A000E99F700DF89F700D1124882777FD809579
:1051B000982F0E943E30BBA1ACA10DA1EEA02B2FD9
:1051C0003A2F402F5E2D0E94A32F0E940B304B01DF
:1051D0002D893E892115310561F1D1018C91EBAD0D
:1051E000FCAD208190E04B855C85841B950B6D891F
:1051F0007E89860F971F821B9109A985BA85A89F72
:10520000B001A99F700DB89F700D1124882777FDFC
:105210008095982F0E943E302AE939E949E95FE3F9
:105220000E942E320E940B3021967FAF6EAF2197E5
:1052300047C02091740230917502409176025091DE
:1052400077026F89788D898D9A8D0E94C22E0E9477
:105250000B30ED81FE81309771F049A15AA1469F34
:105260009001479F300D569F300D112421963FAF7E
:105270002EAF21970DC0AF8DB8A1A69FC001A79FEB
:10528000900DB69F900D112421969FAF8EAF219760
:105290002196EEADFFAD2197BF01882777FD809560
:1052A000982F0E943E309F7720E030E040EF51E49D
:1052B0000E948C31181624F421961FAE1EAE219741
:1052C0006BA57CA58DA59EA50E943E3069837A833F
:1052D0008B839C836FA578A989A99AA90E943E30E7
:1052E0006D877E878F87988BB401882777FD80959F
:1052F000982F0E943E307B018C0169817A818B81DD
:105300009C812D853E854F8558890E94D4116B8FD5
:105310007C8F8D8F9E8F6BA97CA98DA99EA90E94E1
:105320003E305B016C016FA978AD89AD9AAD0E94EA
:105330003E303B014C01B201882777FD8095982FC4
:105340000E943E307B018C01C601B501A40193018E
:105350000E94D4115B016C0121962EAD3FAD2197C7
:10536000B901882777FD8095982F0E943E307B01F8
:105370008C0169817A818B819C812D853E854F8549
:1053800058890E94D4117B018C0180913602909142
:105390003702009731F441E050E0509337024093D8
:1053A0003602809136029091370251E0853F950791
:1053B000D4F46B8D7C8D8D8D9E8D0E940B304B01B6
:1053C000C601B5010E940B302B01C801B7010E9434
:1053D0000B306B014114510441F58114910429F5FE
:1053E0006115710511F51092490210924802109250
:1053F000370210923602C05CDF4F0FB6F894DEBF62
:105400000FBECDBFCF91DF911F910F91FF90EF9015
:10541000DF90CF90BF90AF909F908F907F906F90D4
:105420005F904F903F902F900895E0902002F09071
:1054300021020091220210912302B401882777FDF6
:105440008095982F0E943E309B01AC01C801B701A6
:105450000E942E3269837A838B839C83B2018827D2
:1054600077FD8095982F0E943E3020913A0230912E
:105470003B0240913C0250913D020E942E326D87CA
:105480007E878F87988BB601882777FD8095982F28
:105490000E943E309B01AC01C801B7010E942E3230
:1054A0007B018C0160915C0270915D02882777FD21
:1054B0008095982F0E943E305B016C0169817A8152
:1054C0008B819C812D853E854F8558890E94740A69
:1054D00027CE80918F0290919002009769F480917D
:1054E0008B0290918C02009739F480913D0390914A
:1054F0003E03009709F47AC080918F029091900248
:105500008130910569F480918B0290918C02009713
:1055100039F480913D0390913E03009709F469C0EE
:1055200080918F02909190028130910571F4809169
:105530008B0290918C028130910539F480913D036A
:1055400090913E03009709F457C080918F0290918B
:105550009002009771F480918B0290918C028130BF
:10556000910539F480913D0390913E03009709F431
:1055700046C080918F0290919002009771F48091C3
:105580008B0290918C028130910539F480913D031A
:1055900090913E0381309105A9F180918F02909105
:1055A0009002009769F480918B0290918C02009791
:1055B00039F480913D0390913E038130910529F1AA
:1055C00080918F02909190028130910571F48091C9
:1055D0008B0290918C028130910539F480913D03CA
:1055E00090913E038130910599F0089520E030E0DC
:1055F00011C021E030E00EC022E030E00BC023E01B
:1056000030E008C024E030E005C025E030E002C012
:105610002AE030E0C9010895DF93CF93CDB7DEB71C
:105620002C970FB6F894DEBF0FBECDBFFE013196AA
:10563000AEEFB1E02CE00D9001922150E1F7FC01BA
:10564000EE0FFF1FEC0FFD1F61817281882777FD30
:105650008095982F0E943E3020E030E040E85EE3E5
:105660000E942E320E940B30CB012C960FB6F8947C
:10567000DEBF0FBECDBFCF91DF9108952F923F9235
:105680004F925F926F927F928F929F92AF92BF9252
:10569000CF92DF92EF92FF920F931F93CF93DF93FE
:1056A0001C015A0179012801109249021092480206
:1056B00010920F0210920E0280910E0290910F0232
:1056C0009093500380934F0380914F039091500328
:1056D000909337028093360260E070E080E090E0C3
:1056E000DC01FB01EE0FFF1FEE0FFF1FEF01C15C9E
:1056F000DC4F88839983AA83BB83288139814A81BF
:105700005B81E35DFC4F20833183428353836F5F72
:105710007F4F6430710529F700D000D000D0EDB77D
:10572000FEB73196C7E1D3E0ADB7BEB71296DC93B2
:10573000CE93119782EB91E09383828385EF91E082
:10574000958384830E94922E8DB79EB706960FB6DE
:10575000F8949EBF0FBE8DBF80E090E067E070E0E0
:10576000AE010E947E0180E090E0B50140E050E093
:1057700020E030E0870172010E94B80C9093500342
:1057800080934F03C1E0D0E080914F03909150038C
:10579000B2010E94A70D80910E0290910F02009716
:1057A00099F7D0930F02C0930E020E94692A7C01E0
:1057B00096E0E916F10421F0C7010E940C2B02C00B
:1057C00080E090E0A1E02A16310429F4BAE0EB165B
:1057D000F10439F443C02114310419F4E114F10443
:1057E000E9F16090430370904403809045039090EA
:1057F000460366277727681B790B882777FD8095F6
:10580000982F0E943E307B018C0160915C02709168
:105810005D02882777FD8095982F0E943E305B01BE
:105820006C0160E070E0CB01A40193010E94740A56
:105830008091360290913702009721F4D09337027D
:10584000C093360280914F0390915003209136020D
:1058500030913702821793070CF096CF10924902CD
:10586000109248021092370210923602DF91CF91C7
:105870001F910F91FF90EF90DF90CF90BF90AF906E
:105880009F908F907F906F905F904F903F902F9060
:105890000895AF92BF92CF92DF92EF92FF920F9353
:1058A0001F93DF93CF93CDB7DEB7C059D1400FB66A
:1058B000F894DEBF0FBECDBF80E090E0FC01EE0F9C
:1058C000FF1F9C0143E0220F331F4A95E1F7E20FCF
:1058D000F31FED56FD4F1182108213821282158242
:1058E00014821782168211861086019689309105DE
:1058F00029F708EC10E010920A0210930F020093AF
:105900000E0207C080910E0290910F02009709F4D9
:10591000E2C080910A028823A9F30E9442018635E1
:1059200051F710920A0280910A028823E1F30E9443
:105930004201A82EBB2480ED9FEFA80EB91E750171
:1059400084E0EE0CFF1C8A95E1F7EA18FB086E0173
:105950000894C11CD11C00E010E010C010920A0293
:1059600080910A028823E1F30E94420190E0C097EF
:10597000F601819391936F010F5F1F4F0E151F0565
:105980006CF3FE01319680E090E044E650E094C074
:1059900022813381DC01AA0FBB1FBC0113E0660F1B
:1059A000771F1A95E1F7A60FB71FAD56BD4F119699
:1059B0003C932E9366817781649F9001659F300DA3
:1059C000749F300D1124608571858B01000F111FAC
:1059D000660F771F660F771F660F771F060F171F5B
:1059E000200F311F62857385260F371F13963C9356
:1059F0002E93129764857585649F9001659F300D85
:105A0000749F300D1124668577858B01000F111F5F
:105A1000660F771F660F771F660F771F060F171F1A
:105A2000200F311F60897189260F371F15963C930F
:105A30002E93149762897389649F9001659F300D3E
:105A4000749F300D1124648975898B01000F111F1B
:105A5000660F771F660F771F660F771F060F171FDA
:105A6000200F311F66897789260F371F17963C93C1
:105A70002E931697608D718D649F9001659F300DF8
:105A8000749F300D1124628D738D8B01000F111FD7
:105A9000660F771F660F771F660F771F060F171F9A
:105AA000200F311F648D758D260F371F19963C937B
:105AB0002E93189701967E968A159B050CF468CF55
:105AC0001092490210924802109237021092360248
:105AD00021E030E002C020E030E0C901C057DE4FD5
