:100000000C946C000C948B000C948B000C948B0063
:100010000C948B000C948B000C948B000C948B0034
:100020000C948B000C948B000C948B000C948B0024
:100030000C948B000C948B000C94CE0E0C948B00C3
:100040000C948B000C948B000C94E22D0C948B0080
:100050000C948B000C948B000C948B000C948B00F4
:100060000C948B000C948B000C948B000C948B00E4
:100070000C948B000C948B000C9421010C948B003D
:100080000C948B000C948B000C948B00084AD73B8B
:100090003BCE016E84BCBFFDC12F3D6C74319ABD57
:1000A00056833DDA3D00C77F11BED9E4BB4C3E917B
:1000B0006BAAAABE000000803F05A84CCDB2D44E6A
:1000C000B93836A9020C50B9918688083CA6AAAA6C
:1000D0002ABE000000803F0011241FBECFEFD0E1F8
:1000E000DEBFCDBF12E0A0E0B1E0E4EAFBE600E055
:1000F0000BBF02C007900D92A030B107D9F713E0F3
:10010000A0E0B2E001C01D92A734B107E1F70E9460
:1001100042020C94882E0C94000094EA9093740090
:100120009091740097FFFCCF9AE09093730094E84D
:10013000909374009091740097FFFCCF80937300AC
:1001400084E8809374008091740087FFFCCF84E979
:100150008093740084EA809374008091740087FF18
:10016000FCCF8BE08093730084E8809374008091CF
:10017000740087FFFCCF84E8809374008091740042
:1001800087FFFCCF8091730094E9909374000895E9
:1001900094EA909374009091740097FFFCCF9AE0DA
:1001A0009093730094E8909374009091740097FF7B
:1001B000FCCF8093730084E8809374008091740076
:1001C00087FFFCCF6093730084E880937400809174
:1001D000740087FFFCCF84E9809374000895109227
:1001E0009B0088E980939A0086E080939D0010929E
:1001F00098008FE580939900789408951F931FEFDE
:100200001093730081E4809370000E9443070E9462
:10021000CE2D0E94EF000E943D061FBC85E08EBDE2
:100220001DBD80E78CBD84E087BF78948FE087BBDD
:1002300081B3807F81BB84B3806F84BB18BA1F9168
:1002400008951F920F920FB60F9211248F93DF9390
:10025000CF930F92CDB7DEB780919C0089838091B8
:100260009B00887BE1F381E0809300028981809389
:1002700001020F90CF91DF918F910F900FBE0F90E1
:100280001F901895DF93CF930F92CDB7DEB7809173
:100290000102898310920102F8941092000278946E
:1002A00089810F90CF91DF91089590919B0095FFE8
:1002B000FCCF80939C000895CF93DF93E4E7F0E0B8
:1002C00094EA9083A1EEB2E01197F1F70000A3E762
:1002D000B0E09EE09C9394E89083C1EED2E0219739
:1002E000F1F700008C93908381EE92E00197F1F793
:1002F000000084E98083DF91CF910895EF92FF920F
:100300000F931F93DF93CF9300D0CDB7DEB7082FA5
:10031000162F843070F5643160F58BE149835A8380
:100320000E945C018CE40E945C01812F0E945C01B0
:10033000802F0E945C0180E791E00197F1F700C0F7
:10034000E12EFF2449815A81042F152F06C00E94F7
:100350005C0194EC9A95F1F700C0E4E1EE16F1042B
:1003600044F4F80181918F010894E11CF11C882369
:1003700071F70F900F90CF91DF911F910F91FF9028
:10038000EF9008951F93DF93CF9300D0CDB7DEB7E2
:10039000182F8430F0F46431E0F48BE12A83698310
:1003A0000E945C018CE40E945C016981862F0E949E
:1003B0005C01812F0E945C0180E791E00197F1F7D9
:1003C00000C02A81822F0E945C0194EC9A95F1F77B
:1003D00000C00F900F90CF91DF911F9108958BE196
:1003E0000E945C0183E40E945C0186E696EEA0E038
:1003F00081509040A040E1F70895EF92FF920F9353
:100400001F93182FF62EE42E842F64E60E949D354C
:10041000082F282F30E0205D3F4F442737FD4095BF
:10042000542F812F6F2D0E94C2018CE9089F002D4F
:1004300011240E0D802F6AE00E949D35E82E6F2D4D
:100440006F5F282F30E0205D3F4F442737FD4095F8
:10045000542F812F0E94C2016F2D6E5F26EFE29E06
:10046000202D1124200F30E0205D3F4F442737FD21
:100470004095542F812F0E94C2011F910F91FF9030
:10048000EF9008952F923F924F925F926F927F92DA
:100490008F929F92AF92BF92CF92DF92EF92FF9294
:1004A0000F931F93DF93CF9300D000D0CDB7DEB76B
:1004B0000E94FE008EE161E00E94C8008EE165E0CE
:1004C0000E94C8008EE164E10E94C8008EE160E1F4
:1004D0000E94C8000E94792D0FEF1FE726E101500E
:1004E00010402040E1F700C000008BE00E94B12DD9
:1004F00080E50E94591180E063E10E94932D8823DA
:10050000D1F30E9480092FEF3FE746E121503040B0
:100510004040E1F700C00000C39A4FEF5FE764E09E
:10052000415050406040E1F700C00000C39880E0B7
:1005300090E0DC018093620290936302A0936402D6
:10054000B09365028091620290916302A09164026F
:10055000B091650280935E0290935F02A093600267
:10056000B093610280915E0290915F02A09160025F
:10057000B091610280935A0290935B02A0935C0257
:10058000B0935D0230E0E32E31E0F32E29E1C22E7C
:1005900021E0D22E99E0492E512C82E3282E81E0D1
:1005A000382EB49912C080910202909103020197F3
:1005B00090930302809302026FEF7FE784E0615023
:1005C00070408040E1F700C00000B69912C08091F1
:1005D000020290910302019690930302809302021B
:1005E0008FEF9FE7A4E081509040A040E1F700C06A
:1005F0000000B5990FC00E94EF0180910202909116
:1006000003028230910530F40E941711B599FECF94
:10061000B59BFECF8091020290910302009709F4EE
:1006200042C04091240230912302209122029091F5
:100630002A0280912902ADB7BEB71E970FB6F89473
:10064000BEBF0FBEADBFEDB7FEB731960DE013E0F4
:1006500012961C930E931197F382E28244831582C3
:1006600036831782208711869287138684871586A2
:100670000E948B2E2DB73EB7225F3F4F0FB6F894E6
:100680003EBF0FBE2DBF80E090E060E070E0A801AB
:100690000E947E013091250220912602909127022E
:1006A0008091280244C04091380230913702209155
:1006B000360290913E0280913D020DB71EB70E505A
:1006C00010400FB6F8941EBF0FBE0DBFEDB7FEB7BA
:1006D00031960DE013E0ADB7BEB712961C930E93A2
:1006E0001197F382E2824483158236831782208732
:1006F000118692871386848715860E948B2E2DB7CC
:100700003EB7225F3F4F0FB6F8943EBF0FBE2DBFDE
:1007100080E090E060E070E0A8010E947E013091EE
:10072000390220913A0290913B0280913C024DB7F0
:100730005EB74C5050400FB6F8945EBF0FBE4DBF31
:10074000EDB7FEB73196ADB7BEB712961C930E93B8
:100750001197D382C28234831582268317829087B1
:100760001186828713860E948B2EEDB7FEB73C96CA
:100770000FB6F894FEBF0FBEEDBF81E090E060E0E1
:1007800070E0A8010E947E01809102029091030214
:1007900097FF03C0909581959F4FB2010E94A935A4
:1007A00090930502809304020E943B08809104020A
:1007B00066E60E94932D882E8091040267E60E94CF
:1007C000932DA82E0091040260900502802F68E608
:1007D0000E94932D2DB73EB72C5030400FB6F894A1
:1007E0003EBF0FBE2DBFEDB7FEB731962DE033E013
:1007F000ADB7BEB712963C932E93119733822282E7
:100800000483658286821782A0861186828713867A
:100810000E948B2E4DB75EB7445F5F4F0FB6F894C2
:100820005EBF0FBE4DBF82E090E060E070E04DE043
:1008300053E00E947E0120918302309184026091F6
:100840008502709186027A836983809181029091FA
:1008500082029C838B83A0913303B0913403A090D8
:100860000B03B0900C0380908702909088026090F8
:100870007F027090800260916A0270916B02809199
:100880006C0290916D02EDB7FEB774970FB6F894B5
:10089000FEBF0FBEEDBF0DB71EB70F5F1F4F4DE080
:1008A00053E05283418345E451E0F801538342838E
:1008B0003583248329813A81378326834B815C8168
:1008C00051874087B387A287B586A4869786868698
:1008D000718A608A0E940430D80153967C936E938B
:1008E00052970E948B2EEDB7FEB774960FB6F89410
:1008F000FEBF0FBEEDBF83E090E060E070E04DE032
:1009000053E00E947E0100D000D000D0EDB7FEB7CA
:1009100031960DE013E0ADB7BEB712961C930E935F
:1009200011972CE531E0338322838091020290916C
:100930000302958384830E948B2E4DB75EB74A5F76
:100940005F4F0FB6F8945EBF0FBE4DBF83E090E0DF
:1009500060E170E0A8010E947E0123CE90E0FC01DE
:10096000B096FE2FEE27208120937E0220FDFBCF44
:100970008896B82FAA278C91908190937E0290FD43
:10098000FBCF089590E08096F82FEE27808180932A
:100990007E0280FDFBCF6083808180937E0280FD9C
:1009A000FBCF089580E061E00E94C20482E061E034
:1009B0000E94C20481E061E00E94C2040895A82F51
:1009C000B0E0FD01B096FE2FEE27808180937E027D
:1009D00080FDFBCF9896BA2FAA27872F992787FDEE
:1009E0009A958C93808180937E0280FDFBCF6C93DF
:1009F000808180937E0280FDFBCF08951F93CF936B
:100A0000DF93182F80E06FE10E94C204C1E0D0E0C4
:100A100002C0CC0FDD1F1A95E2F780E0BE010E94F4
:100A2000DF0481E06FE10E94C20481E0BE010E9408
:100A3000DF0482E06FE10E94C20482E0BE010E94F6
:100A4000DF0480E061E00E94C20482E061E00E9475
:100A5000C20481E061E00E94C204DF91CF911F9146
:100A60000895DF92EF92FF920F931F93D82E7A0191
:100A70008B019B01552737FD5095452FB9010E94E9
:100A8000DF048D2DB7010E94DF041F910F91FF90AD
:100A9000EF90DF9008951F93182F60E00E94C2042A
:100AA0008CEC9CE10197F1F700C00000812F6DE113
:100AB0000E94C204812F60E070E00E94DF041F9159
:100AC0000895AF92BF92CF92DF92EF92FF920F9371
:100AD0001F93CF93DF93F82E6B01EA018901AA24BB
:100AE000A3946115710509F4AA24BB24B39420973B
:100AF00009F4BB24EE24E3940115110509F4EE2456
:100B00008F2D6EE10E94C2046B2D70E0660F771F7F
:100B1000660F771F8A2D90E043E0880F991F4A9552
:100B2000E1F7682B792B8E2D90E0880F991F682BA9
:100B3000792B8F2D0E94DF04AA2021F08F2DB60182
:100B40000E94DF04BB2021F08F2DBE010E94DF0434
:100B5000EE2021F08F2DB8010E94DF048F2D64E07C
:100B60000E94C204DF91CF911F910F91FF90EF90EF
:100B7000DF90CF90BF90AF9008958F929F92AF92E9
:100B8000BF92CF92DF92EF92FF920F931F93CF937A
:100B9000DF93F82E4B016A01E901AA24A3946115A1
:100BA000710509F4AA24BB24B394C114D10409F437
:100BB000BB24EE24E394209709F4EE248F2D6EE1FC
:100BC0000E94C2046A2D70E0A3E0660F771FAA9509
:100BD000E1F761608B2D90E0880F991F880F991FB6
:100BE000682B792B8E2D90E0880F991F682B792B1D
:100BF0008F2D0E94DF04AA2021F08F2DB4010E94C6
:100C0000DF04BB2021F08F2DB6010E94DF04EE200F
:100C100021F08F2DBE010E94DF048F2DB8010E94AC
:100C2000DF048F2D64E00E94C204DF91CF911F91F9
:100C30000F91FF90EF90DF90CF90BF90AF909F907B
:100C40008F900895DF92EF92FF920F931F93D82E0B
:100C50007A018B016FE10E94C2048D2D60E270E089
:100C60000E94DF048D2DB801A7010E9431051F915C
:100C70000F91FF90EF90DF90089580E060E170E0C9
:100C800040E050E020E430E00E94610581E060E156
:100C900070E040E050E020E430E00E94610582E036
:100CA00060E170E040E050E020E430E00E94610547
:100CB00080E04FEF5FEF6FEF7FE30E94220681E05D
:100CC0004FEF5FEF6FEF7FE30E94220682E04FEF6E
:100CD0005FEF6FEF7FE30E9422060895DF92EF92AD
:100CE000FF920F931F93DF93CF930F92CDB7DEB791
:100CF000D82E7A018B0177FF0AC010950095F094E9
:100D0000E094E11CF11C011D111D90E001C091E077
:100D10008D2D6FE199830E94C2049981792F72957C
:100D2000707F60E0686078608D2D0E94DF048D2DFB
:100D3000B801A7010E9431050F90CF91DF911F915B
:100D40000F91FF90EF90DF900895AF92BF92CF92F6
:100D5000DF92EF92FF920F931F93DF93CF93CDB764
:100D6000DEB72C970FB6F894DEBF0FBECDBF59018A
:100D70006A010E94373069837A838B839C83C60122
:100D8000B5010E9437306D837E838F839887C801B9
:100D9000B7010E94373069877A878B879C878E01DD
:100DA0000F5F1F4FEE24F801608171818281938172
:100DB00021E73CEA4BE85EE30E9427329B01AC014D
:100DC000F80121933193419351938F0120E030E05A
:100DD00040E857E40E9427320E940430AB01BC0176
:100DE0008E2D0E946E06E394FE2DF330E1F60E94F4
:100DF000D2042C960FB6F894DEBF0FBECDBFCF91B4
:100E0000DF911F910F91FF90EF90DF90CF90BF90F7
:100E1000AF9008954F925F926F927F928F929F92C0
:100E2000AF92BF92CF92DF92EF92FF920F931F93F8
:100E3000982E862E29013A016FE10E94C204682D86
:100E400070E06A62892D0E94DF04892DB301A2013E
:100E50000E943105892DB801A7010E943105892D15
:100E6000B601A5010E9431051F910F91FF90EF90EF
:100E7000DF90CF90BF90AF909F908F907F906F90BA
:100E80005F904F9008958F929F92AF92BF92CF92B2
:100E9000DF92EF92FF920F931F93DF93CF9300D0D7
:100EA0000F92CDB7DEB71ABA15BA8FEF84BB109286
:100EB000650083E08093640000E8A02E12E0B12E6C
:100EC000B4E89B2E6E010894C11CD11C85B38560CB
:100ED00085BB83E39BE20197F1F785B38A7F85BBEE
:100EE000ECECFCE13197F1F700C000008091650067
:100EF0008D7F80936500AB9885B3887F85BB99B360
:100F00009983A89A19B385B3887F826085BB09B39A
:100F1000943C09F4A7C0943809F4A4C015BA80E041
:100F200090E060E070E043E651E00E947E0181E0E5
:100F300090E060E070E049E651E00E947E01143CE0
:100F400009F490C0143809F48DC015BA80E090E01F
:100F500060E070E043E651E00E947E0182E090E0B4
:100F600060E070E049E751E00E947E01043C09F432
:100F700079C0043809F476C015BA80E090E060E0EA
:100F800070E043E651E00E947E0183E090E060E083
:100F900070E049E851E02DC08E2C8C18882D6DE151
:100FA0000E94C204882D60E070E00E94DF04F80116
:100FB0008081F70181937F0100501F4FF3E20030E1
:100FC0001F0751F78981803CB9F08038A9F085B7B7
:100FD0008F7385BF15BA80E090E060E070E049E96A
:100FE00051E00E947E0181E090E060E070E049E61F
:100FF00051E00E947E016ACF80E090E060E070E006
:101000004FE951E00E947E0180E098B3976098BB61
:101010002FEF3FEB46E0215030404040E1F700C069
:10102000000098B3987F98BB2FEF3FEB46E021502C
:1010300030404040E1F700C000008F5F833029F767
:101040000E94EF010F900F900F90CF91DF911F91B1
:101050000F91FF90EF90DF90CF90BF90AF909F9057
:101060008F900895A5BEB0926D0090926C007601AD
:1010700000E010E291CF4F925F926F927F928F9239
:101080009F92AF92BF92CF92DF92EF92FF920F9317
:101090001F93CF93DF9384E6882E912C84E00E94E7
:1010A0008D00982F80E0EC0185E00E948D0090E09B
:1010B0008C2B9D2BB4010E94A935882777FD809544
:1010C000982F0E943730F62E072F182FE92E462E24
:1010D000572E682E792E63015201E894D7F8C60185
:1010E000B50120E030E044E353E40E948531181656
:1010F000ACF26091660270916702809168029091F3
:1011000069022F2D302F412F5E2D0E94952F8823AD
:1011100009F4E5C06F2D702F812F9E2D20E030E067
:10112000A9010E94952F87FF5DC0609166027091B2
:101130006702809168029091690220E030E0A90185
:101140000E94853118160CF04DC020916602309136
:10115000670240916802509169025F77C601B5014C
:101160000E94BC2E20E030E044E353E40E94952F1F
:1011700087FF15C0A0906A02B0906B02C0906C020D
:10118000D0906D0220916602309167024091680212
:10119000509169026F2D702F812F9E2D1CC0A09041
:1011A0006A02B0906B02C0906C02D0906D026091A8
:1011B00066027091670280916802909169022F2DFA
:1011C000302F412F5E2D0E94BB2E9B01AC0160E0B1
:1011D00070E883EB93E40E94BB2E9B01AC01C60137
:1011E000B50169C0C301B20120E030E0A9010E944D
:1011F000853118160CF047C0609166027091670245
:10120000809168029091690220E030E0A9010E947B
:10121000952F87FF38C02091660230916702409178
:101220006802509169025F77C601B5010E94BC2E29
:1012300020E030E044E353E40E94952F87FD23C073
:10124000E0906A02F0906B0200916C0210916D02C6
:1012500020916602309167024091680250916902C4
:10126000C301B2010E94BB2E9B01AC0160E070E89B
:1012700083EB93E40E94BB2E9B01AC01C801B70134
:101280000E94BB2E1AC0E0906A02F0906B0200919F
:101290006C0210916D0220916602309167024091BC
:1012A000680250916902C301B2010E94BB2E9B01EA
:1012B000AC01C801B7010E94BC2E9B01AC01209378
:1012C0006A0230936B0240936C0250936D0240921D
:1012D0006602509267026092680270926902DF9122
:1012E000CF911F910F91FF90EF90DF90CF90BF9023
:1012F000AF909F908F907F906F905F904F900895E8
:1013000080E062E00E94C20481E062E00E94C204C8
:1013100082E062E00E94C20408959F92AF92BF9261
:10132000CF92DF92EF92FF920F931F93CF93DF93B1
:10133000E82EE7017E01F92EE70100E010E01882B7
:1013400019821A821B82902E802F6AE00E94C204AA
:10135000EE24FF24A880B980CA80DB80892D0E94FA
:10136000AE04282F30E040E050E02A293B294C29E8
:101370005D29288339834A835B8393E0E916F1046E
:1013800041F0542F432F322F2227288339834A8359
:101390005B830894E11CF11C84E0E816F104D1F6AB
:1013A0000F5F1F4F24960330110549F6DF91CF914F
:1013B0001F910F91FF90EF90DF90CF90BF90AF9073
:1013C0009F9008952F923F924F925F926F927F92DB
:1013D0008F929F92AF92BF92CF92DF92EF92FF9245
:1013E0000F931F93DF93CF9300D000D0CDB7DEB71C
:1013F0004B015C0129013A011601CA01B901A5019D
:1014000094010E942F2F69837A838B839C83C80168
:10141000B70125E33AEF4EE85CE30E9427329B01D7
:10142000AC0169817A818B819C810E94BB2E8B01EA
:101430007C01C501B401A30192010E9492315B01BC
:101440006C01602F712F8E2D9F2D0E94992F9B0173
:10145000AC01C601B5010E942732F101608371839E
:1014600082839383602F712F8E2D9F2D0E948A324D
:101470009B01AC01C601B5010E942732F1016483D2
:101480007583868397830F900F900F900F90CF9165
:10149000DF911F910F91FF90EF90DF90CF90BF9061
:1014A000AF909F908F907F906F905F904F903F9004
:1014B0002F9008952F923F924F925F926F927F925A
:1014C0008F929F92AF92BF92CF92DF92EF92FF9254
:1014D0000F931F93DF93CF93CDB7DEB762970FB60D
:1014E000F894DEBF0FBECDBF69837A838B839C8364
:1014F0002D833E834F8358873701480160E070E0B9
:1015000084E394E4A60195010E94BB2E162F072FB9
:10151000F82EE92EC601B50120E030E044E353E4A3
:101520000E94952F181684F0A8019701652F742F3B
:10153000832F922F20E030E044EB53E40E94BB2E37
:10154000162F072FF82EE92EA8019701652F702F6F
:10155000832F9E2D20E030E044EB52E40E94BB2E0E
:1015600069877A878B879C87C401B30123EF36E6AE
:101570004FE55EE30E9427326D877E878F87988BC9
:1015800080E090E036E9432E512C28E6222E21E01F
:10159000322E9A8B898BB201882777FD8095982F00
:1015A0000E9437305B016C01C20188589F4FB10126
:1015B0000E94A9352C01C601B501D801F7012B2FD6
:1015C000302F4F2F5E2D0E94BB2E25E33AEF4EE8C1
:1015D0005CE30E9427320E94992F3B014C01C60117
:1015E000B501B985AA85AB84DC842B2F3A2F4A2D0F
:1015F0005D2D0E94BB2E25E33AEF4EE85CE30E948E
:1016000027320E94992F5B016C016D817E818F8151
:101610009885A40193010E9427323B014C01698106
:101620007A818B819C81A60195010E9427329B01C2
:10163000AC01C401B3010E94BC2EBD85AE85DF8420
:10164000A8882B2F3A2F4D2D5A2D0E94BB2E2FE606
:1016500032E143E856E40E94273223E333E343E2D6
:1016600050EC0E9427320E940430AB01BC018989F2
:101670000E946E0629893A892F5F3F4F3A8B298B4A
:101680002330310509F087CF0E94D2040E943B0825
:1016900062960FB6F894DEBF0FBECDBFCF91DF913B
:1016A0001F910F91FF90EF90DF90CF90BF90AF9080
:1016B0009F908F907F906F905F904F903F902F9072
:1016C00008952F923F924F925F926F927F928F92E6
:1016D0009F92AF92BF92CF92DF92EF92FF920F93C1
:1016E0001F93DF93CF93CDB7DEB7AC970FB6F894C7
:1016F000DEBF0FBECDBF8E01075E1F4FC8010E9427
:101700008D0938014E010894811C911C00E010E005
:10171000D301AD90BD90CD90DD903D017801EE0CF0
:10172000FF1CEE0CFF1CE2E7F2E0EE0EFF1EF701DD
:1017300080819181A281B381A6019501281B390B7B
:101740004A0B5B0BCA01B9010E9437302FED37ED10
:1017500047E05AE30E942732D4016D937D938D9325
:101760009D934D01F701A082B182C282D3820F5FA7
:101770001F4F0330110561F620906A0230906B0212
:1017800040906C0250906D0220916E0230916F0279
:1017900040917002509171022DA33EA34FA358A710
:1017A00080916A0290916B02A0916C02B0916D02DF
:1017B00080936E0290936F02A0937002B0937102B7
:1017C000E980FA800B811C81A984BA84CB84DC84F3
:1017D000C801B701A60195010E94BC2E20E030E0AF
:1017E00040E05FE30E9427322D813E814F81588582
:1017F0000E94BB2E20E030E040EC5FE30E949C2F73
:1018000069A77AA78BA79CA7609062027090630279
:101810008090640290906502C201B1012DA13EA1A9
:101820004FA158A50E94BB2E9B01AC01C401B3017E
:101830000E94BB2E9B01AC01209362023093630295
:10184000409364025093650260906202709063025C
:101850008090640290906502C801B701A6019501CD
:101860000E94BB2E20E030E040E05FE30E94273280
:1018700027ED33EB4DE55FE30E949C2F9B01AC010C
:101880008401730117FB109517F91095B9A5AAA546
:10189000FBA5ECA56B2F7A2F8F2F9E2FEDE0CE2E80
:1018A000D12CCC0EDD1E0E94E20960915A0270918B
:1018B0005B0280915C0290915D022D853E854F8593
:1018C00058890E94BC2E9B01AC0120935A02309390
:1018D0005B0240935C0250935D0260915E027091E6
:1018E0005F02809160029091610229893A894B8957
:1018F0005C890E94BC2E9B01AC0120935E02309358
:101900005F024093600250936102AC960FB6F89468
:10191000DEBF0FBECDBFCF91DF911F910F91FF9022
:10192000EF90DF90CF90BF90AF909F908F907F907F
:101930006F905F904F903F902F9008952F923F921D
:101940004F925F926F927F928F929F92AF92BF92CF
:10195000CF92DF92EF92FF920F931F93DF93CF937B
:10196000CDB7DEB72E970FB6F894DEBF0FBECDBF52
:10197000180187019A8389837C836B8350954195F5
:101980005F4F5E834D83309521953F4F38872F837E
:10199000CE0101969A87898779E0472E512C4C0E0B
:1019A0005D1E7C0166247724CC24DD24D7016D9153
:1019B0007D917D01882777FD8095982F0E94373093
:1019C0004B015C01E894B7F8662D772D8C2D9D2D89
:1019D000A50194010E94952F87FF02C03401650183
:1019E000E414F50419F7EE24FF24C101AA2797FD9A
:1019F000A095BA2F8B879C87AD87BE87A985BA85AE
:101A0000AD90BD90BA87A9876B857C858D859E85B5
:101A10000E9437301B012C01B501882777FD809586
:101A2000982F0E943730262D372D4C2D5D2D0E948A
:101A30009C2FA20191010E9427329B01AC01F7016A
:101A4000EE0FFF1FEE0FFF1FED5DFC4F2083318374
:101A5000428353830894E11CF11CB4E0EB16F104BB
:101A600069F6043611052CF40115110509F051C071
:101A700005C00436110511F00456104091E0E92E1E
:101A8000F12C662D772D8C2D9D2D20E030E048EC3B
:101A900052E40E942732A20191010E949C2F0E94D1
:101AA000822F5B016C01970122503040C80117FF63
:101AB00003C0909581959F4FB7010E94A935620F91
:101AC000731F882777FD8095982F0E9437309B01E0
:101AD000AC01C601B5010E94BC2E0E940430CB01AE
:101AE0002E960FB6F894DEBF0FBECDBFCF91DF911B
:101AF0001F910F91FF90EF90DF90CF90BF90AF902C
:101B00009F908F907F906F905F904F903F902F901D
:101B1000089582E0E82EF12CB4CF2F923F924F929D
:101B20005F926F927F928F929F92AF92BF92CF926D
:101B3000DF92EF92FF920F931F93DF93CF93CDB776
:101B4000DEB72E970FB6F894DEBF0FBECDBF7A83F7
:101B500069836536710514F0645670404B0177FF58
:101B600004C088249924861A970AE0902E02F090E7
:101B70002F02A7014F5F5F4F9C012E193F0900E024
:101B800010E05A01CC24B7FCC094DC2CAB82BC82A0
:101B9000CD82DE821401442437FC4094542C6C0125
:101BA000C818D908D886CF82C901AA2797FDA09561
:101BB000BA2F89879A87AB87BC877E876D87340168
:101BC000F7FC34C0AD85BE85B7FD2DC04801880C3B
:101BD000991C880C991CF401ED5DFC4FA080B1802C
:101BE000C280D3806B817C818D819E810E94373041
:101BF0009B01AC01C601B5010E9427325B016C015B
:101C0000C201B1010E9437309B01AC01C601B50190
:101C10000E949C2F9B01AC01F401EB5CFC4F2083E4
:101C2000318342835383E614F70424F4ED85FE8563
:101C3000F7FF13C09801220F331F220F331FF90142
:101C4000ED5DFC4F80819181A281B3812B5C3C4F83
:101C5000F90180839183A283B383AF80B884AE14EB
:101C6000BF0494F549815A814536510568F1480110
:101C7000880C991C880C991CF401ED5DFC4FA08028
:101C8000B180C280D38069857A858B859C850E94CE
:101C900037309B01AC01C601B5010E9427325B01C0
:101CA0006C01C201B1010E9437309B01AC01C60139
:101CB000B5010E949C2F9B01AC01F401EB5CFC4F31
:101CC00020833183428353830F5F1F4F04301105FC
:101CD00009F076CF2E960FB6F894DEBF0FBECDBFBB
:101CE000CF91DF911F910F91FF90EF90DF90CF90F8
:101CF000BF90AF909F908F907F906F905F904F902C
:101D00003F902F90089581E090E00A9B02C080E010
:101D100090E0909386028093850281E090E00B9B97
:101D200002C080E090E0909382028093810281E083
:101D300090E00C9B02C080E090E09093340380938D
:101D4000330381E090E0849B02C080E090E09093B8
:101D500084028093830281E090E0869B02C080E051
:101D600090E090930C0380930B032091630081E03B
:101D700090E023FF02C080E090E09093880280937F
:101D800087022091630081E090E024FF02C080E0A0
:101D900090E09093800280937F0208951F920F92AB
:101DA0000FB60F920BB60F921124EF92FF920F9382
:101DB0001F932F933F934F935F936F937F938F93D3
:101DC0009F93AF93BF93EF93FF938FEF8DBD80E70A
:101DD0008CBD609118027091190280911A02909145
:101DE0001B022AE037ED43EA5CE30E94BC2E7B0134
:101DF0008C017F2D912F20E030E040E85FE30E94CE
:101E00008531181624F4EE24FF2400E81FE38E2DFC
:101E10009F2DA02FB12F8093180290931902A093A9
:101E20001A02B0931B0260913202709133028091CA
:101E30003402909135022AE037ED43EA5CE30E94D8
:101E4000BC2E7B018C017F2D912F20E030E040E8FB
:101E50005FE30E948531181624F4EE24FF2400E885
:101E60001FE38E2D9F2DA02FB12F809332029093D0
:101E70003302A0933402B093350260911C0270913A
:101E80001D0280911E0290911F022DEC3CEC4CE44F
:101E90005DE30E94BC2E7B018C017F2D912F20E001
:101EA00030E040E85FE30E948531181624F4EE2408
:101EB000FF2400E81FE38E2D9F2DA02FB12F8093CC
:101EC0001C0290931D02A0931E02B0931F020E9459
:101ED000830E80918502909186020097B1F08091E7
:101EE000160290911702009781F480912002909140
:101EF00021020196909321028093200281E090E0DC
:101F0000909317028093160210C0809185029091E1
:101F10008602009751F48091160290911702009763
:101F200021F0109217021092160280918102909176
:101F30008202009731F180914C0290914D020097FE
:101F400001F58091560290915702019690935702A5
:101F50008093560221E030E030934D0220934C02F2
:101F60008091210390912203FC01EE0FFF1FED51A0
:101F7000FD4F3183208301969093220380932103A8
:101F800010C08091810290918202009751F480915B
:101F90004C0290914D02009721F010924D02109248
:101FA0004C0280913303909134030097B1F08091FB
:101FB000480290914902009781F4809146029091E5
:101FC00047020196909347028093460281E090E099
:101FD000909349028093480210C0809133039091FE
:101FE0003403009751F48091480290914902009780
:101FF00021F0109249021092480280918302909140
:1020000084020097B1F080914402909145020097BC
:1020100081F480914E0290914F02019690934F026D
:1020200080934E0281E090E09093450280934402B9
:1020300010C08091830290918402009751F48091A6
:10204000440290914502009721F0109245021092AF
:10205000440280910B0390910C030097B1F08091A2
:10206000300290913102009781F48091500290915A
:1020700051020196909351028093500281E090E0CA
:10208000909331028093300210C080910B039091A5
:102090000C03009751F48091300290913102009727
:1020A00021F01092310210923002809187029091BB
:1020B0008802009741F180914A0290914B0200976B
:1020C00011F5809142029091430201969093430250
:1020D0008093420281E090E090934B0280934A0209
:1020E0008091210390912203FC01EE0FFF1FED511F
:1020F000FD4F22E030E0318320830196909322034C
:102100008093210310C080918702909188020097EC
:1021100051F480914A0290914B02009721F0109265
:102120004B0210924A0280917F02909180020097A8
:10213000B1F080912C0290912D02009781F4809152
:102140005802909159020196909359028093580237
:1021500081E090E090932D0280932C0210C080913A
:102160007F0290918002009751F480912C0290910F
:102170002D02009721F010922D0210922C028091D6
:102180002E0290912F02009729F0019690932F0232
:1021900080932E028091060290910702009749F0E9
:1021A0008091060290910702019790930702809315
:1021B00006028091400290914102009729F0019619
:1021C00090934102809340028091210390912203D9
:1021D0008431910524F01092220310922103809102
:1021E000520290915302009749F0809152029091CF
:1021F0005302019690935302809352020E94610B06
:10220000FF91EF91BF91AF919F918F917F916F91CE
:102210005F914F913F912F911F910F91FF90EF9000
:102220000F900BBE0F900FBE0F901F901895AF929E
:10223000BF92CF92DF92EF92FF920F931F9360E0D5
:1022400070E0CB019B01AC017B018C015B016C0157
:102250000E945A0A1F910F91FF90EF90DF90CF904C
:10226000BF90AF900895FC01EE5DFD4F808190E03E
:10227000861797076CF48091400290914102009775
:1022800059F481E090E0909341028093400204C0B1
:10229000109241021092400221E030E08091400211
:1022A000909141028A30910514F420E030E0C90198
:1022B00008951F93182F81E10E945501812F0E94DC
:1022C0005501809100028823E1F30E944201882396
:1022D00091F31F9108954F925F926F927F928F9228
:1022E0009F92AF92BF92CF92DF92EF92FF920F93A5
:1022F0001F93CF93DF938C013B01C1E0D0E0CC244E
:10230000DD248FEFA82EB12C88249924EE24FF24FD
:1023100044245524401A510A14C0602F17FD642D1F
:102320008C2F0E94932D90E0C816D90614F46C01EE
:102330007E018A159B0524F4009711F05C014E0183
:1023400021966C167D064CF7101611060CF07401E0
:10235000C701DF91CF911F910F91FF90EF90DF9018
:10236000CF90BF90AF909F908F907F906F905F9035
:102370004F9008956F927F928F929F92AF92BF92EB
:10238000CF92DF92EF92FF920F931F93D62EC72E1C
:10239000B82EA92E922E832E742E652E6E2D7F2D93
:1023A000802F912FD601F5012B2F3A2F4F2F5E2F23
:1023B0000E9485311816ACF06E2D7F2D802F912F45
:1023C000D401F3012B2F3A2F4F2F5E2F0E94952F10
:1023D00087FF03C06401530104C0DE2CCF2CB02E54
:1023E000A12EA6019501652F7C2D832F9A2D1F917B
:1023F0000F91FF90EF90DF90CF90BF90AF909F90A4
:102400008F907F906F9008952F923F924F925F929E
:102410006F927F929F92AF92BF92CF92DF92EF9294
:10242000FF920F931F93DF93CF93CDB7DEB728971B
:102430000FB6F894DEBF0FBECDBF982E5B015A8356
:1024400049831092410210924002109207021092AA
:1024500006028091060290910702909346038093B2
:102460004503809145039091460390932F028093FA
:102470002E0260E070E080E090E0DC018B01000F54
:10248000111F000F111F98012B5C3C4FF901808335
:102490009183A283B3832081318142815381F801EA
:1024A000ED5DFC4F20833183428353836F5F7F4F09
:1024B0006430710519F700D000D000D0EDB7FEB739
:1024C00031960DE013E0ADB7BEB712961C930E9394
:1024D000119783EB91E09383828388EB91E095835E
:1024E00084830E948B2EEDB7FEB736960FB6F89414
:1024F000FEBF0FBEEDBF80E090E067E070E0A80196
:102500000E947E011092530210925202892D66E6BB
:102510000E94932DD82EE0906202F0906302009109
:10252000640210916502B501882777FD8095982F88
:102530000E943730A80197010E94BC2E0E940430EF
:102540003B016D187108882777FD8095982F0E94B0
:1025500037305B016C01B301882777FD8095982F98
:102560000E9437307B018C01C30168E572E00E9454
:10257000A935882777FD8095982F0E9437302FE85E
:1025800032EC45E75EE30E94BC2E9B01AC01C80122
:10259000B7010E9427329B01AC01C601B5010E9420
:1025A000BC2E0E9404301B0191E0692E712C809199
:1025B0000602909107020097D1F77092070260928D
:1025C0000602892D66E60E94932DE82EFF24892DB0
:1025D00067E60E94932D38C00E941711892D66E688
:1025E0000E94932DE82E892D67E60E94932D20915D
:1025F0005202309153022115310521F47092530299
:10260000609252022091520230915302F1E02F3534
:102610003F071CF00E941711D5C0FF24E114F104FC
:1026200099F020E030E0A901209332023093330288
:1026300040933402509335022093180230931902CC
:1026400040931A0250931B02A82EBB24E114F104FC
:1026500021F4A114B10409F4BFCFE218F308B701C3
:10266000882777FD8095982F0E9437302DEC3CEC21
:102670004CE45FE30E9427320E940430882777FDF4
:102680008095982F0E9437307B018C0160E070E0CC
:1026900088E492E420E030E048E452EC0E94BA1171
:1026A0000E9404302B0169817A816A197B0988278D
:1026B00077FD8095982F0E9437307B018C0160E078
:1026C00070E080E792E420E030E040E752EC0E94C6
:1026D000BA110E94043078876F83A0906202B09094
:1026E0006302C0906402D0906502AB01BA018827F2
:1026F00077FD8095982F0E943730209132023091DB
:10270000330240913402509135020E9427322DEC61
:102710003CEC4CE45FE30E9427326B837C838D8327
:102720009E83B201882777FD8095982F0E943730CD
:10273000209118023091190240911A0250911B0207
:102740000E9427327B018C016091540270915502E6
:10275000882777FD8095982F0E943730A601950134
:102760000E94BC2E5B016C0160E070E0CB012B810C
:102770003C814D815E810E945A0A80912E02909187
:102780002F02009721F470922F0260922E02809106
:102790002E0290912F0251E08F3595075CF4411481
:1027A000510409F004CF8F819885019683309105FB
:1027B00008F0FDCE109241021092400210922F02BA
:1027C00010922E0228960FB6F894DEBF0FBECDBF32
:1027D000CF91DF911F910F91FF90EF90DF90CF90FD
:1027E000BF90AF909F907F906F905F904F903F9081
:1027F0002F9008952F923F925F926F927F928F92C7
:102800009F92AF92BF92CF92DF92EF92FF920F937F
:102810001F93DF93CF93CDB7DEB760970FB6F894D1
:10282000DEBF0FBECDBF582E7A8369835C834B8396
:102830003E832D83109241021092400210920702B3
:10284000109206028091060290910702909346032F
:1028500080934503809145039091460390932F0206
:1028600080932E0260E070E080E090E0DC018B015C
:10287000000F111F000F111F98012B5C3C4FF90135
:1028800080839183A283B3832081318142815381EC
:10289000F801ED5DFC4F20833183428353836F5FEA
:1028A0007F4F6430710519F700D000D000D0EDB72C
:1028B000FEB731960DE013E0ADB7BEB712961C938C
:1028C0000E93119783EB91E0938382838CEB91E0DD
:1028D000958384830E948B2EEDB7FEB736960FB694
:1028E000F894FEBF0FBEEDBF80E090E067E070E0BF
:1028F000A8010E947E011092530210925202882475
:10290000992480E090E06624772431E0232E312C56
:10291000988B8F8780910602909107020097D1F7DC
:102920003092070220920602852D66E60E94932DC2
:10293000E82EFF24852D67E60E94932D082F10E0D6
:10294000B701CF84D8883BC00E941711852D66E659
:102950000E94932DA82E852D67E60E94932D20912D
:102960005202309153022115310521F43092530265
:10297000209252022091520230915302F1E02F3501
:102980003F071CF00E94171122C16A2D70E06115EB
:10299000710599F020E030E0A901209332023093D4
:1029A000330240933402509335022093180230933F
:1029B000190240931A0250931B02082F10E0611570
:1029C000710521F40115110509F4BECFD88ACF860F
:1029D0004B815C814115510589F0641B750B88277B
:1029E00077FD8095982F0E9437302DEC3CEC4CE41D
:1029F0005FE30E9427320E9404303B0189819A8163
:102A0000009791F0E81AF90AB701882777FD8095B9
:102A1000982F0E9437302AE939E949E15FE30E94A3
:102A200027320E9404304B01AD81BE81109721F006
:102A3000A01BB10BB88BAF87B301882777FD8095BA
:102A4000982F0E9437307B018C0160E070E080EFAE
:102A500091E420E030E040EF51EC0E94BA110E9476
:102A600004303B01EF85F889BF01882777FD809509
:102A7000982F0E9437307B018C0160E070E08CE57C
:102A800092E420E030E04CE552EC0E94BA110E9442
:102A90000430788B6F87B401882777FD8095982F55
:102AA0000E9437307B018C0160E070E088E492E4A2
:102AB00020E030E048E452EC0E94BA110E94043059
:102AC0004B01E0901802F090190200911A02109147
:102AD0001B02B301882777FD8095982F0E9437301D
:102AE000A80197010E9427322DEC3CEC4CE45FE3F7
:102AF0000E9427326F83788789879A872F85388944
:102B0000B901882777FD8095982F0E943730209152
:102B100032023091330240913402509135020E94CA
:102B200027322DEC3CEC4CE45FE30E9427326B87AC
:102B30007C878D879E87B401882777FD8095982FA5
:102B40000E943730A80197010E9427327B018C0137
:102B50006091540270915502882777FD8095982FD7
:102B60000E9437305B016C016F81788589859A8579
:102B70002B853C854D855E850E945A0A80912E02E8
:102B800090912F02009721F430922F0220922E0272
:102B900080912E0290912F0231E08F3593077CF4C3
:102BA0006114710409F0B6CE8F859889019683303F
:102BB000910508F0AFCE8114910409F0ABCE1092CC
:102BC00041021092400210922F0210922E02609643
:102BD0000FB6F894DEBF0FBECDBFCF91DF911F912E
:102BE0000F91FF90EF90DF90CF90BF90AF909F90AC
:102BF0008F907F906F905F903F902F9008952F92CD
:102C00003F924F925F926F927F928F929F92AF927C
:102C1000BF92CF92DF92EF92FF920F931F93DF93B9
:102C2000CF93CDB7DEB72C970FB6F894DEBF0FBEAB
:102C3000CDBF5C013B015C834B8319011A8309837F
:102C40001092410210924002109207021092060266
:102C5000809106029091070290934603809345036A
:102C6000809145039091460390932F0280932E020A
:102C700060E070E080E090E0DC018B01000F111F4C
:102C8000000F111F98012B5C3C4FF9018083918349
:102C9000A283B3832081318142815381F801ED5DAC
:102CA000FC4F20833183428353836F5F7F4F6430B7
:102CB000710519F700D000D000D0EDB7FEB73196FE
:102CC0000DE013E0ADB7BEB712961C930E931197AB
:102CD00083EB91E0938382838FEB91E095838483F0
:102CE0000E948B2EEDB7FEB736960FB6F894FEBF56
:102CF0000FBEEDBF80E090E067E070E0A8010E94A9
:102D00007E0180916A0290916B02A0916C02B09159
:102D10006D028D839E83AF83B887C501B30140E008
:102D200050E020E030E08101E980FA800E949E0CB2
:102D3000A114B10471F16114710459F1B101882732
:102D400077FD8095982F0E9437307B018C01609130
:102D500023037091240380912503909126032091F1
:102D60002703309128034091290350912A030E94A0
:102D700092319B01AC01C801B7010E949C2F9B01BD
:102D8000AC015F77C801B7010E9427320E9404306E
:102D90001B01C501B3014B815C8120E030E0810162
:102DA000E980FA800E949E0C90934603809345032D
:102DB000C1010A966AE070E00E94A935CB01AA27FA
:102DC00097FDA095BA2F89879A87AB87BC8780919A
:102DD0000602909107020097D1F7A1E0B0E0B0930E
:102DE0000702A093060280914503909146036981F2
:102DF0007A810E948D0DEB81FC81309709F041C0F2
:102E000020916A0230916B0240916C0250916D02E8
:102E10006D817E818F8198850E94BB2E662EA72EA4
:102E2000E82E092F69857A858B859C850E9437302D
:102E30009B01AC01662D7A2D8E2D902F0E9427329A
:102E4000E62EF72E082F192FC801B7019F7720E033
:102E500030E040EF51E40E948531181654F40F2EF3
:102E6000F0E0EF2EF0E0FF2EF0E00F2FF0E01F2F4C
:102E7000F02DE0923D03F0923E0300933F03109348
:102E8000400380912E0290912F02009731F481E04F
:102E900090E090932F0280932E02809145039091B1
:102EA000460320912E0230912F02821793070CF5D2
:102EB000109241021092400210922F0210922E02A4
:102EC0002C960FB6F894DEBF0FBECDBFCF91DF9129
:102ED0001F910F91FF90EF90DF90CF90BF90AF9038
:102EE0009F908F907F906F905F904F903F902F902A
:102EF000089560903503709036038090370390906A
:102F000038032090390330903A0340903B035090AF
:102F10003C03E0903D03F0903E0300913F0310918D
:102F200040036091540270915502882777FD809587
:102F3000982F0E9437305B016C01C401B301A201DC
:102F400091010E945A0A43CFEF92FF920F931F9371
:102F50007B01FA0189019C01220F331F280F391FC1
:102F60004E2D5F2D57FF03C0509541955F4F249F15
:102F7000C001259F900D349F900D112464EB70E0EB
:102F80000E94A93580E090E0A7019F010E94FF15F3
:102F90001F910F91FF90EF9008952F923F924F92C3
:102FA0005F926F927F928F929F92AF92BF92CF92D9
:102FB000DF92EF92FF920F931F93DF93CF93CDB7E2
:102FC000DEB762970FB6F894DEBF0FBECDBF9A870B
:102FD00089877C876B873A0119011C830B83FE86E6
:102FE000ED86BA82A982109241021092400210929C
:102FF00007021092060280910602909107029093B8
:103000004603809345038091450390914603909336
:103010002F0280932E0260E070E080E090E0DC01FF
:103020009B01220F331F220F331FF901EB5CFC4F72
:1030300080839183A283B383E080F1800281138136
:103040002D5D3C4FF901E082F182028313836F5FB3
:103050007F4F6430710521F700D000D000D0EDB76C
:10306000FEB731960DE013E0ADB7BEB712961C93D4
:103070000E93119783EB91E09383828384EC91E02C
:10308000958384830E948B2EEDB7FEB736960FB6DC
:10309000F894FEBF0FBEEDBF80E090E067E070E007
:1030A000A8010E947E0180916A0290916B02A0911A
:1030B0006C02B0916D028D839E83AF83B887C3018C
:1030C000B10140E050E020E030E08601E980FA8084
:1030D0000E949E0C6114710471F12114310459F1A4
:1030E000B601882777FD8095982F0E9437307B01A5
:1030F0008C016091230370912403809125039091AA
:1031000026032091270330912803409129035091F1
:103110002A030E9492319B01AC01C801B7010E94B1
:103120009C2F9B01AC015F77C801B7010E94273239
:103130000E9404306B01C301B1014B815C8120E02E
:1031400030E08601E980FA800E949E0C909346034D
:1031500080934503C6010A966AE070E00E94A93593
:10316000CB01AA2797FDA095BA2F8F87988BA98BA3
:10317000BA8B80910602909107020097D1F7A1E0E7
:10318000B0E0B0930702A0930602809145039091AE
:10319000460369817A810E948D0DEB81FC81309715
:1031A00009F041C020916A0230916B0240916C029B
:1031B00050916D026D817E818F8198850E94BB2E1A
:1031C000662EA72EE82E092F6F85788989899A891E
:1031D0000E9437309B01AC01662D7A2D8E2D902FE9
:1031E0000E942732E62EF72E082F192FC801B701AB
:1031F0009F7720E030E040EF51E40E9485311816BF
:1032000054F40F2EF0E0EF2EF0E0FF2EF0E00F2F41
:10321000F0E01F2FF02DE0923D03F0923E0300936B
:103220003F031093400380912E0290912F0200974C
:1032300031F481E090E090932F0280932E028091F0
:1032400045039091460320912E0230912F02821760
:10325000930764F0A985BA85109749F58B859C85FD
:103260006D857E850E943311009709F1109241020D
:103270001092400210922F0210922E0262960FB608
:10328000F894DEBF0FBECDBFCF91DF911F910F919C
:10329000FF90EF90DF90CF90BF90AF909F908F9076
:1032A0007F906F905F904F903F902F900895609027
:1032B0003503709036038090370390903803209048
:1032C000390330903A0340903B0350903C03E09028
:1032D0003D03F0903E0300913F0310914003609145
:1032E000540270915502882777FD8095982F0E948F
:1032F00037305B016C01C401B301A20191010E944E
:103300005A0A37CF2F923F924F925F926F927F92DD
:103310008F929F92AF92BF92CF92DF92EF92FF92E5
:103320000F931F93DF93CF93CDB7DEB72E970FB6D2
:10333000F894DEBF0FBECDBF9A8389835B013A014B
:103340003E832D831801FC82EB8210924102109281
:10335000400210920702109206028091060290919C
:103360000702909346038093450380914503909113
:10337000460390932F0280932E0260E070E080E07D
:1033800090E0DC019B01220F331F220F331FF90154
:10339000EB5CFC4F80839183A283B383E080F18058
:1033A000028113812D5D3C4FF901E082F18202839D
:1033B00013836F5F7F4F6430710521F700D000D019
:1033C00000D0EDB7FEB731960DE013E0ADB7BEB754
:1033D00012961C930E93119783EB91E09383828353
:1033E0008BEC91E0958384830E948B2EEDB7FEB722
:1033F00036960FB6F894FEBF0FBEEDBF80E090E0AA
:1034000067E070E0A8010E947E0180916A029091BD
:103410006B02A0916C02B0916D028F839887A9878F
:10342000BA87C501B30140E050E020E030E08101FF
:10343000EB80FC800E949E0CA114B10471F1611418
:10344000710459F1B101882777FD8095982F0E946A
:1034500037307B018C0160912303709124038091AC
:103460002503909126032091270330912803409152
:10347000290350912A030E9492319B01AC01C8019B
:10348000B7010E949C2F9B01AC015F77C801B70177
:103490000E9427320E9404301B01C501B3014D81F7
:1034A0005E8120E030E08101EB80FC800E949E0C78
:1034B0009093460380934503C1010A966AE070E049
:1034C0000E94A935CB01AA2797FDA095BA2F8B871B
:1034D0009C87AD87BE878091060290910702009776
:1034E000D1F7A1E0B0E0B0930702A093060280916B
:1034F0004503909146036B817C810E948D0DED8187
:10350000FE81309709F041C020916A0230916B0230
:1035100040916C0250916D026F81788589859A8502
:103520000E94BB2E662EA72EE82E092F6B857C8568
:103530008D859E850E9437309B01AC01662D7A2DCA
:103540008E2D902F0E942732E62EF72E082F192F4E
:10355000C801B7019F7720E030E040EF51E40E94BE
:103560008531181654F40F2EF0E0EF2EF0E0FF2E08
:10357000F0E00F2FF0E01F2FF02DE0923D03F092CE
:103580003E0300933F031093400380912E029091DD
:103590002F02009731F481E090E090932F02809306
:1035A0002E02809145039091460320912E02309186
:1035B0002F02821793074CF410924102109240029E
:1035C00010922F0210922E0263C0A981BA81109727
:1035D00039F48091810290918202009769F110C0C4
:1035E000E981FA81E130F105B1F089819A81823077
:1035F000910511F58091810290918202009759F016
:10360000109241021092400210922F0210922E024C
:1036100021E030E03CC080918702909188020097C1
:1036200059F0109241021092400210922F02109213
:103630002E0222E030E02BC06090350370903603FC
:1036400080903703909038032090390330903A03EC
:1036500040903B0350903C03E0903D03F0903E03CC
:1036600000913F0310914003609154027091550204
:10367000882777FD8095982F0E9437305B016C0179
:10368000C401B301A20191010E945A0A24CFC901C9
:103690002E960FB6F894DEBF0FBECDBFCF91DF914F
:1036A0001F910F91FF90EF90DF90CF90BF90AF9060
:1036B0009F908F907F906F905F904F903F902F9052
:1036C00008952F923F924F925F926F927F928F92C6
:1036D0009F92AF92BF92CF92DF92EF92FF920F93A1
:1036E0001F93DF93CF93CDB7DEB7AA970FB6F894A9
:1036F000DEBF0FBECDBF4C017A8369835C834B83F1
:1037000039011C870B87FE82ED82B886AF8210924A
:10371000410210924002109207021092060280911C
:10372000060290910702909346038093450380918F
:1037300045039091460390932F0280932E0220E040
:1037400030E00F2EF0E0EF2EF0E0FF2EF0E00F2F34
:10375000F0E01F2FF02DC901880F991F880F991FC6
:10376000FC01EB5CFC4FE082F18202831383408119
:103770005181628173818D5D9C4FDC014D935D931E
:103780006D937C9313972F5F3F4F2430310519F7CA
:1037900000D000D000D0EDB7FEB731960DE013E0B9
:1037A000ADB7BEB712961C930E93119783EB91E0C1
:1037B0009383828389ED91E0958384830E948B2E8D
:1037C000EDB7FEB736960FB6F894FEBF0FBEEDBF4D
:1037D00080E090E067E070E0A8010E947E0128E2AE
:1037E00030E049815A81429FC001439F900D529F12
:1037F000900D11242091540230915502820F931F95
:1038000068E671E00E94A935843B910524F411E03B
:10381000212E312C03C022242A94322C80E090E007
:103820006B817C8140E050E020E030E08601EF8059
:10383000F8840E949E0C9093460380934503C30135
:10384000880F991F880F991F860D971D4BEF5FEF0B
:10385000649E9001659E300D749E300D1124269C4F
:10386000B001279C700D369C700D11247A876987F2
:10387000D4011896BA8BA98BE981FA81EE5DFD4FD0
:10388000FC8BEB8BA601662757FD6095762F4D8B41
:103890005E8B6F8B788FD094C194D108D394A6019E
:1038A000662757FD6095762F498F5A8F6B8F7C8FD7
:1038B000AC01662757FD6095762F4D8F5E8F6F8F19
:1038C00078A3B901882777FD8095982F69A37AA3FB
:1038D0008BA39CA388279927881999099EA38DA358
:1038E00080914503909146036F8178850E948D0DEC
:1038F0008091060290910702009791F7A1E0B0E055
:10390000B0930702A0930602E989FA89E131F10533
:1039100008F047C0C40197FE02C08DA19EA1FC0122
:10392000EE5DFD4F2081293009F461C0181419049F
:1039300044F06D817E810E943311009709F457C0D5
:1039400031C1808190E02D813E81821793070CF474
:103950004EC049815A814815590509F048C0E09088
:103960003903F0903A0300913B0310913C036091BE
:10397000540270915502882777FD8095982F0E94F8
:1039800037305B016C0160E070E0CB01A80197016A
:103990007B018C010E945A0A51E35A95F1F700000D
:1039A00026C06DE08616910411F5809181029091F8
:1039B0008202009759F01092410210924002109238
:1039C0002F0210922E0221E030E0F5C08091870294
:1039D00090918802009759F0109241021092400293
:1039E00010922F0210922E0222E030E0E4C0AB8948
:1039F000BC898C91E82FF0E02B853C85E21BF30B12
:103A0000FE87ED87CF01F7FF03C0909581959F4F0B
:103A1000853091052CF16D8D7E8D8F8D98A10E9442
:103A200037305B016C0169A17AA18BA19CA10E9436
:103A300037302B013C014D855E85BA01882777FD23
:103A40008095982F0E9437307B018C01C601B5010B
:103A5000A30192010E94BA110E9404306B0102C0BE
:103A6000CD84DE846B817C8177FF04C0D094C194C7
:103A7000D108D3947CE08716910449F4ED84FE8448
:103A8000EE0CFF1CEE0CFF1CCC24DD2402C0ED84E8
:103A9000FE846D897E898F89988D0E9437302B0135
:103AA0003C01698D7A8D8B8D9C8D0E9437306D879E
:103AB0007E878F87988BC70162E070E00E94A935EE
:103AC000882777FD8095982F0E9437307B018C01E5
:103AD000C301B2012D853E854F8558890E94BA11D8
:103AE0002091390330913A0340913B0350913C03BC
:103AF0002FA338A749A75AA70E94043088279927DF
:103B0000861B970B829DB001839D700D929D700D59
:103B10001124882777FD8095982F0E9437302B013C
:103B20003C01D094C194D108D39489859A85C89ECC
:103B3000B001C99E700DD89E700D1124882777FDA5
:103B40008095982F0E9437307B018C016091540240
:103B500070915502882777FD8095982F0E94373005
:103B60005B016C01C301B2012FA138A549A55AA57B
:103B70000E945A0A80912E0290912F02009731F4F0
:103B8000A1E0B0E0B0932F02A0932E0280914503F4
:103B90009091460320912E0230912F0282179307B5
:103BA0000CF09ECE109241021092400210922F0211
:103BB00010922E0201C0C901AA960FB6F894DEBF7A
:103BC0000FBECDBFCF91DF911F910F91FF90EF906E
:103BD000DF90CF90BF90AF909F908F907F906F902D
:103BE0005F904F903F902F9008952F923F924F9269
:103BF0005F926F927F928F929F92AF92BF92CF927D
:103C0000DF92EF92FF920F931F93DF93CF93CDB785
:103C1000DEB762970FB6F894DEBF0FBECDBF5C0172
:103C20004B013A0169011E870D87109241021092E3
:103C300040021092070210920602809106029091B3
:103C4000070290934603809345038091450390912A
:103C5000460390932F0280932E0260E070E080E094
:103C600090E0DC018B01000F111F000F111F980164
:103C70002B5C3C4FF90180839183A283B383208125
:103C8000318142815381F801ED5DFC4F2083318306
:103C9000428353836F5F7F4F6430710519F700D003
:103CA00000D000D0EDB7FEB731960DE013E0ADB710
:103CB000BEB712961C930E93119783EB91E09383FA
:103CC00082838EED91E0958384830E948B2EEDB7E5
:103CD000FEB736960FB6F894FEBF0FBEEDBF80E07C
:103CE00090E067E070E0A8010E947E01C501B40188
:103CF000A30120E030E08601ED84FE840E949E0C4A
:103D0000B601882777FD8095982F0E9437307B0178
:103D10008C0160912303709124038091250390917D
:103D200026032091270330912803409129035091C5
:103D30002A030E9492319B01AC01C801B7010E9485
:103D40009C2F9B01AC015F77C801B7010E9427320D
:103D50000E9404307B018C01C501B401A30120E065
:103D600030E08701ED84FE840E949E0C9093460310
:103D70008093450399248824772466248091060241
:103D8000909107020097D1F781E090E090930702AD
:103D90008093060280914503909146036D857E8550
:103DA0000E948D0D60913D0370913E0380913F0311
:103DB00090914003905820E030E048EC52E40E949B
:103DC0009C2F9B01AC01D401F3016B2F782D8F2F19
:103DD000962D0E94BC2E962E872E782E692E6091ED
:103DE0003503709136038091370390913803209109
:103DF000390330913A0340913B0350913C03D40185
:103E0000F301EB2EFA2E0F2F1E2F6E010894C11C0A
:103E1000D11C0E94E20980912E0290912F020097FE
:103E200031F4A1E0B0E0B0932F02A0932E02809174
:103E300045039091460320912E0230912F02821764
:103E400093070CF5109241021092400210922F023B
:103E500010922E0262960FB6F894DEBF0FBECDBF51
:103E6000CF91DF911F910F91FF90EF90DF90CF9056
:103E7000BF90AF909F908F907F906F905F904F908A
:103E80003F902F900895E0903D03F0903E03009105
:103E90003F031091400329803A804B805C802D8144
:103EA0003E814F8158856091540270915502882758
:103EB00077FD8095982F2F87388B498B5A8B0E94DE
:103EC00037305B016C01C201B1012F853889498906
:103ED0005A890E945A0A52CF2F923F924F925F9274
:103EE0006F927F928F929F92AF92BF92CF92DF920A
:103EF000EF92FF920F931F93DF93CF93CDB7DEB76F
:103F000069970FB6F894DEBF0FBECDBF7C01662E59
:103F1000272E6A0159011A8B098B109241021092C7
:103F200040021092070210920602809106029091C0
:103F30000702909346038093450380914503909137
:103F4000460390932F0280932E0260E070E080E0A1
:103F500090E0DC01462D9B01220F331F220F331FFF
:103F6000F901EB5CFC4F80839183A283B383408093
:103F70005180628073802D5D3C4FF90140825182F7
:103F8000628273826F5F7F4F6430710521F7642E08
:103F900000D000D000D0EDB7FEB731960DE013E0B1
:103FA000ADB7BEB712961C930E93119783EB91E0B9
:103FB0009383828384EE91E0958384830E948B2E89
:103FC000EDB7FEB736960FB6F894FEBF0FBEEDBF45
:103FD00080E090E067E070E0A8010E947E01B701F8
:103FE000882777FD8095982F0E9437302BED3FE092
:103FF00049E450E40E9427327B018C01662D722D2A
:1040000077FF03C0709561957F4F882777FD809576
:10401000982F0E9437309B01AC01C801B7010E9464
:10402000273220E030E044E353E40E949C2F0E94BA
:1040300004306D877E878F87988B80E090E06D8558
:104040007E85462D522D96018501E988FA880E94C9
:104050009E0CB501882777FD8095982F0E943730F8
:104060007B018C0120912703309128034091290383
:1040700050912A030E949C2F9B01AC015F77C801DD
:10408000B7010E9427320E9404307B018C0180E03E
:1040900090E06D857E85462D522D96018701E98839
:1040A000FA880E949E0C90934603809345031E8AD3
:1040B0001F8A188E198E1D861B8A1C8A1D8A809164
:1040C0000602909107020097D1F781E090E090936B
:1040D0000702809306028091450390914603698907
:1040E0007A890E948D0D60913D0370913E0380910D
:1040F0003F039091400320E030E048EC52E40E94FE
:104100009C2F9B01AC01BD85AB89FC89ED896B2F90
:104110007A2F8F2F9E2F0E94BC2E6D877B8B8C8BCE
:104120009D8B609141037091420380914303909174
:104130004403905820E030E048EC52E40E949C2F69
:104140009B01AC01BE89AF89F88DE98D6B2F7A2F69
:104150008F2F9E2F0E94BC2E6E8B7F8B888F998F06
:10416000A0903503B0903603C0903703D090380349
:104170006090390370903A0380903B0390903C0329
:104180005D854B893C892D89652F742F832F922F54
:10419000BE89AF89F88DE98D2B2F3A2F4F2F5E2FD7
:1041A0000E94BC2E7B018C01C601B501A4019301C4
:1041B0006E010894C11CD11C0E94E20980912E025C
:1041C00090912F02009731F4A1E0B0E0B0932F025C
:1041D000A0932E02809145039091460320912E02D8
:1041E00030912F02821793070CF510924102109222
:1041F000400210922F0210922E0269960FB6F89488
:10420000DEBF0FBECDBFCF91DF911F910F91FF9009
:10421000EF90DF90CF90BF90AF909F908F907F9066
:104220006F905F904F903F902F900895E0904103E2
:10423000F0904203009143031091440369807A8017
:104240008B809C802D803E804F80588460915402EA
:1042500070915502882777FD8095982F0E943730FE
:104260005B016C01C401B301A20191010E945A0AD1
:1042700026CF2F923F924F925F926F927F928F92B2
:104280009F92AF92BF92CF92DF92EF92FF920F93E5
:104290001F93DF93CF93CDB7DEB72C970FB6F8946B
:1042A000DEBF0FBECDBF6D837E838F8398877A017B
:1042B00010924102109240021092070210920602E0
:1042C00080910602909107029093460380934503E4
:1042D000809145039091460390932F0280932E0284
:1042E00060E070E080E090E0DC018B01000F111FC6
:1042F000000F111F98012B5C3C4FF90180839183C3
:10430000A283B3832081318142815381F801ED5D25
:10431000FC4F20833183428353836F5F7F4F643030
:10432000710519F700D000D000D0EDB7FEB7319677
:104330000DE013E0ADB7BEB712961C930E93119724
:1043400083EB91E09383828387EE91E0958384836E
:104350000E948B2EEDB7FEB736960FB6F894FEBFCF
:104360000FBEEDBF80E090E067E070E0A8010E9422
:104370007E0180916A0290916B02A0916C02B091D3
:104380006D0289839A83AB83BC838DEC9CECACE497
:10439000BEE380931C0290931D02A0931E02B09373
:1043A0001F021701442437FC4094542CF094E194EC
:1043B000F108F394C701AA2797FDA095BA2F898722
:1043C0009A87AB87BC87809106029091070200977D
:1043D000D1F7A1E0B0E0B0930702A09306022091CC
:1043E0006A0230916B0240916C0250916D026981BA
:1043F0007A818B819C810E94BB2E2D813E814F81D1
:1044000058850E94BB2E20E030E040EA50E40E9434
:104410002732D62EC72EB82E692EC201B1010E94B6
:1044200037307B018C0169857A858B859C850E945C
:1044300037309B01AC01C801B701F601AB2DB62D99
:10444000EF2EFE2E8D010E94BA113B014C012091EE
:104450001C0230911D0240911E0250911F020E94C9
:1044600027327B018C0160E070E0CB019B01AC0145
:104470005B016C010E945A0AC401B3019F772DECC5
:104480003CEC4CEC5DE30E94952F18160CF49BCF8E
:10449000109241021092400210922F0210922E02AE
:1044A0002C960FB6F894DEBF0FBECDBFCF91DF9133
:1044B0001F910F91FF90EF90DF90CF90BF90AF9042
:1044C0009F908F907F906F905F904F903F902F9034
:1044D00008952F923F924F925F926F927F928F92A8
:1044E0009F92AF92BF92CF92DF92EF92FF920F9383
:1044F0001F93DF93CF93CDB7DEB7A3970FB6F89492
:10450000DEBF0FBECDBF5C013B011A0169011E87F2
:104510000D8747011092410210924002109207024B
:104520001092060280910602909107029093460332
:1045300080934503809145039091460390932F0209
:1045400080932E0220E030E00F2EF0E0EF2EF0E01E
:10455000FF2EF0E00F2FF0E01F2FF02DC901880F84
:10456000991F880F991FFC01EB5CFC4FE082F182E0
:10457000028313834081518162817381FC01ED5D6F
:10458000FC4F40835183628373832F5F3F4F2430FE
:10459000310521F700D000D000D0EDB7FEB731963D
:1045A0000DE013E0ADB7BEB712961C930E931197B2
:1045B00083EB91E0938382838AEE91E095838483F9
:1045C0000E948B2E8DB79EB706960FB6F8949EBFAD
:1045D0000FBE8DBF80E090E067E070E0A8010E9410
:1045E0007E0180916A0290916B02A0916C02B09161
:1045F0006D028C8B9D8BAE8BBF8B8114910409F463
:104600005DC08DEC9CECACE4BEE380931C02909307
:104610001D02A0931E02B0931F0292E0891691041E
:104620000CF44CC0C501B30140E050E020E030E0A4
:104630008601ED84FE840E949E0CA114B10471F1E8
:104640006114710459F1B601882777FD8095982F80
:104650000E9437307B018C01609123037091240309
:104660008091250390912603209127033091280300
:104670004091290350912A030E9492319B01AC0181
:10468000C801B7010E949C2F9B01AC015F77C80154
:10469000B7010E9427320E9404306B01C501B301AB
:1046A00040E050E020E030E08601ED84FE840E948E
:1046B0009E0C90934603809345035BC0C501B301F4
:1046C000A10120E030E08601ED84FE840E949E0C72
:1046D000A114B10471F16114710459F1B601882774
:1046E00077FD8095982F0E9437307B018C01609177
:1046F0002303709124038091250390912603209138
:104700002703309128034091290350912A030E94E6
:1047100092319B01AC01C801B7010E949C2F9B0103
:10472000AC015F77C801B7010E9427320E940430B4
:104730006B01C501B301A10120E030E08601ED84E9
:10474000FE840E949E0C90934603809345036091E3
:104750002B0370912C0380912D0390912E030E94C6
:104760000430862E972E97FE04C090948194910871
:1047700093941F86188A198A1A8AC101AA2797FD5D
:10478000A095BA2F888F998FAA8FBB8FC401AA27B3
:1047900097FDA095BA2F8C8F9D8FAE8FBF8F909471
:1047A000819491089394C401AA2797FDA095BA2FEC
:1047B00088A399A3AAA3BBA38091060290910702A4
:1047C0000097D1F7A1E0B0E0B0930702A0930602F2
:1047D00080914503909146036D857E850E948D0DE5
:1047E00020916A0230916B0240916C0250916D02EF
:1047F0006C897D898E899F890E94BB2E7B018C01EB
:10480000688D798D8A8D9B8D0E9437309B01AC011C
:10481000C801B7010E94BB2E20E030E040EA50E41E
:104820000E942732C62EA72E882E692E6C8D7D8D74
:104830008E8D9F8D0E9437307B018C0168A179A1FC
:104840008AA19BA10E9437309B01AC01C801B7012E
:10485000EC2CFA2C082D162D0E94BA114B015C018C
:1048600020911C0230911D0240911E0250911F02A6
:104870000E9427329B01AC0120933D0330933E03FD
:1048800040933F035093400360913D0370913E037A
:1048900080913F0390914003905820E030E048EC35
:1048A00052E40E949C2F9B01AC01BF85A889F98925
:1048B000EA896B2F7A2F8F2F9E2F0E94BC2E6F8735
:1048C000788B898B9A8B6091350370913603809138
:1048D0003703909138032091390330913A03409186
:1048E0003B0350913C03BF85A889F989EA89EB2EE7
:1048F000FA2E0F2F1E2F6E010894C11CD11C0E948E
:10490000E20980912E0290912F02009731F481E00C
:1049100090E090932F0280932E0280914503909116
:10492000460320912E0230912F02821793075CF4E8
:1049300080E090E0DC018D839E83AF83B88789831C
:104940009A83AB83BC83C501B4019F77A1E0AB8B95
:104950002DEC3CEC4CEC5DE30E94952F181614F402
:104960001B8A0BC080E090E0DC0180933D039093B4
:104970003E03A0933F03B0934003E0903D03F090CB
:104980003E0300913F031091400369807A808B8041
:104990009C802D803E804F8058846091540270919D
:1049A0005502882777FD8095982F0E9437305B014C
:1049B0006C01C401B301A20191010E945A0A8091C5
:1049C00045039091460320912E0230912F028217C9
:1049D00093070CF0F1CE9B89992309F4EDCE109248
:1049E00041021092400210922F0210922E02A396C2
:1049F0000FB6F894DEBF0FBECDBFCF91DF911F91F0
:104A00000F91FF90EF90DF90CF90BF90AF909F906D
:104A10008F907F906F905F904F903F902F90089570
:104A20002F923F924F925F926F927F928F929F92BE
:104A3000AF92BF92CF92DF92EF92FF920F931F93AC
:104A4000DF93CF93CDB7DEB768970FB6F894DEBF8C
:104A50000FBECDBF9A8389837E836D8358874F8332
:104A60003A8729875701DC86CB8610924102109243
:104A70004002109207021092060280910602909165
:104A800007029093460380934503809145039091DC
:104A9000460390932F0280932E0260E070E080E046
:104AA00090E0DC019B01220F331F220F331FF9011D
:104AB000EB5CFC4F80839183A283B3836080718021
:104AC000828093802D5D3C4FF901608271828282E9
:104AD00093826F5F7F4F6430710521F700D000D063
:104AE00000D0EDB7FEB73196BDE0EB2EB3E0FB2E64
:104AF000ADB7BEB71296FC92EE92119783EB91E0A0
:104B0000938382838DEE91E0958384830E948B2E24
:104B1000EDB7FEB736960FB6F894FEBF0FBEEDBFE9
:104B200080E090E067E070E0A7010E947E0189814B
:104B30009A81019629E030E0B9010E94A9353C0133
:104B400089819A810896B9010E94A9351C0180913A
:104B50006A0290916B02A0916C02B0916D02898BF8
:104B60009A8BAB8BBC8B17FD05C0A1E0B0E0BC837A
:104B7000AB8304C0EFEFFFEFFC83EB8380E090E0BA
:104B8000B80140E050E020E030E08501EB84FC8497
:104B90000E949E0C9093460380934503C5010A969C
:104BA0006AE070E00E94A935CB01AA2797FDA09585
:104BB000BA2F8D8B9E8BAF8BB88FD301AE5DBD4F5F
:104BC000BE87AD87F101EE5DFD4FF88BEF878091D9
:104BD0000602909107020097D1F721E030E0309370
:104BE00007022093060280914503909146036B854E
:104BF0007C850E948D0D20916A0230916B0240915C
:104C00006C0250916D0269897A898B899C890E9416
:104C1000BB2E662EA72EE82E092F6D897E898F89DF
:104C2000988D0E9437309B01AC01662D7A2D8E2D18
:104C3000902F0E942732E62EF72E082F192FC80139
:104C4000B7019F7720E030E040EF51E40E948531CA
:104C5000181654F40F2EF0E0EF2EF0E0FF2EF0E0E7
:104C60000F2FF0E01F2FF02DAD85BE858C9190E0C9
:104C7000ED81FE81E817F907CCF06C9170E06E1BB6
:104C80007F0B882777FD8095982F0E94373020E092
:104C900030E040E650E40E94273220E030E0A901F5
:104CA0000E94BC2E0E9404305B0102C0AA24BB24D7
:104CB000AF85B8898C9190E0EF81F885E817F90706
:104CC0002CF16C90B501882777FD8095982F0E9474
:104CD00037305B016C01662D70E02F813885621BD7
:104CE000730B882777FD8095982F0E94373020E03E
:104CF00030E040E650EC0E9427329B01AC01C60137
:104D0000B5010E94BC2E0E9404305B0189859A8502
:104D1000009741F089819A8169857A850E943311D3
:104D20000097B9F480912E0290912F02009731F4F0
:104D3000A1E0B0E0B0932F02A0932E028091450332
:104D40009091460320912E0230912F0282179307F3
:104D50000CF5109241021092400210922F02109214
:104D60002E0268960FB6F894DEBF0FBECDBFCF916E
:104D7000DF911F910F91FF90EF90DF90CF90BF9048
:104D8000AF909F908F907F906F905F904F903F90EB
:104D90002F9008952090390330903A0340903B03C0
:104DA00050903C03B094A194B108B394EB81FC8182
:104DB000AE9EB001AF9E700DBE9E700D112488276F
:104DC00077FD8095982F0E9437303B014C01609110
:104DD000540270915502882777FD8095982F0E9484
:104DE00037305B016C01C401B301A20191010E9443
:104DF0005A0AEDCE2F923F924F925F926F927F921E
:104E00008F929F92AF92BF92CF92DF92EF92FF92DA
:104E10000F931F93DF93CF93CDB7DEB7C054D0402D
:104E20000FB6F894DEBF0FBECDBF9A8389837A8B0D
:104E3000698B1A013C872B873801FE8AED8ABE8276
:104E4000AD8210924102109240021092070210921D
:104E50000602809106029091070290934603809388
:104E60004503809145039091460390932F028093D0
:104E70002E0260E070E080E090E0DC019B01220FF8
:104E8000331F220F331FF901EB5CFC4F80839183AA
:104E9000A283B383E080F180028113812D5D3C4FBA
:104EA000F901E082F182028313836F5F7F4F6430E8
:104EB000710521F700D000D000D0EDB7FEB73196D4
:104EC0000DE013E0ADB7BEB712961C930E93119789
:104ED00083EB91E09383828383EF91E095838483D6
:104EE0000E948B2EEDB7FEB736960FB6F894FEBF34
:104EF0000FBEEDBF80E090E067E070E0A8010E9487
:104F00007E0120916A0230916B0240916C025091B7
:104F10006D022F8B388F498F5A8FB301620D731D2D
:104F20002114310441F06114710429F0CB0162E0D5
:104F300070E00E94A93588E290E049815A81489F3B
:104F40009001499F300D589F300D1124C90188569A
:104F50009140FC0197FF04C0EE27FF27E81BF90BE7
:104F6000A90137FF04C044275527421B530B4E1796
:104F70005F070CF4C9014091540250915502E8E2D8
:104F8000F0E06E9F90016F9F300D7E9F300D1124D9
:104F9000240F351F253B31052CF461E070E0788744
:104FA0006F8304C0AFEFBFEFB887AF83840F951F47
:104FB000875A9F4F833B910528F0E1E0F0E0FC8B9E
:104FC000EB8B04C04FEF5FEF5C8B4B8B253B3105C8
:104FD0005CF06F8178858FEF6F3F780781F4A1E0F7
:104FE000B0E0BA87A98714C0EF81F8852FEFEF3FB3
:104FF000F20751F44FEF5FEF5A87498709C06FEF0F
:105000007FEF7A87698704C081E090E09A8789877B
:105010008B859C850A97B6010E94A935882777FD64
:105020008095982F0E9437306BA37CA38DA39EA3FD
:1050300089899A890A976D817E810E94A93588277E
:1050400077FD8095982F0E9437306FA378A789A7A6
:105050009AA7C6010A962AE030E0B9010E94A93554
:1050600078A36F8F8D819E810A96B9010E94A93520
:105070007AA369A3442455248824992496014427BB
:1050800037FD4095542F2BA73CA74DA75EA7D09482
:10509000C194D108D394A601662757FD6095762F59
:1050A0004FA758AB69AB7AAB6D817E81882777FDBE
:1050B0008095982F6BAB7CAB8DAB9EAB8D819E8129
:1050C000909581959F4F9C01442737FD4095542F23
:1050D0002FAB38AF49AF5AAF46E352E0240E351E2E
:1050E000B301640F751F7CAF6BAF69807A80640E6B
:1050F000751E7EAE6DAE80910602909107020097FC
:10510000D1F781E090E09093070280930602A9898D
:10511000BA89109711F1EDADFEAD808190E08A1B48
:105120009B0B2B893C89289FB001299F700D389FCC
:10513000700D1124882777FD8095982F0E943730B5
:10514000BFA1A8A509A5EAA42B2F3A2F402F5E2DB9
:105150000E949C2F0E9404302B014B855C854115D9
:10516000510509F1D1018C9190E0841B950BEF81E1
:10517000F885E89FB001E99F700DF89F700D11242C
:10518000882777FD8095982F0E943730BBA1ACA16E
:105190000DA1EEA02B2F3A2F402F5E2D0E949C2FA9
:1051A0000E9404304B012D893E892115310561F1A2
:1051B000D1018C91EBADFCAD208190E04B855C85FD
:1051C000841B950B6D897E89860F971F821B910921
:1051D000A985BA85A89FB001A99F700DB89F700DD1
:1051E0001124882777FD8095982F0E9437302AE96F
:1051F00039E949E95FE30E9427320E940430219691
:105200007FAF6EAF219747C020916A0230916B0249
:1052100040916C0250916D026F89788D898D9A8DC5
:105220000E94BB2E0E940430ED81FE81309771F008
:1052300049A15AA1469F9001479F300D569F300DBE
:10524000112421963FAF2EAF21970DC0AF8DB8A18D
:10525000A69FC001A79F900DB69F900D1124219687
:105260009FAF8EAF21972196EEADFFAD2197BF0185
:10527000882777FD8095982F0E9437309F7720E010
:1052800030E040EF51E40E948531181624F4219655
:105290001FAE1EAE21976BA57CA58DA59EA50E9475
:1052A000373069837A838B839C836FA578A989A91A
:1052B0009AA90E9437306D877E878F87988BB401BB
:1052C000882777FD8095982F0E9437307B018C01CD
:1052D00069817A818B819C812D853E854F85588996
:1052E0000E94BA116B8F7C8F8D8F9E8F6BA97CA9CA
:1052F0008DA99EA90E9437305B016C016FA978AD22
:1053000089AD9AAD0E9437303B014C01B20188272C
:1053100077FD8095982F0E9437307B018C01C60164
:10532000B501A40193010E94BA115B016C012196A1
:105330002EAD3FAD2197B901882777FD8095982F35
:105340000E9437307B018C0169817A818B819C813D
:105350002D853E854F8558890E94BA117B018C01AD
:1053600080912E0290912F02009731F441E050E09D
:1053700050932F0240932E0280912E0290912F0283
:1053800051E0853F9507D4F46B8D7C8D8D8D9E8D7E
:105390000E9404304B01C601B5010E9404302B016C
:1053A000C801B7010E9404306B014114510441F55A
:1053B0008114910429F56115710511F510924102CE
:1053C0001092400210922F0210922E02C05CDF4F0A
:1053D0000FB6F894DEBF0FBECDBFCF91DF911F9106
:1053E0000F91FF90EF90DF90CF90BF90AF909F9084
:1053F0008F907F906F905F904F903F902F90089587
:10540000E0901802F090190200911A0210911B020C
:10541000B401882777FD8095982F0E9437309B0133
:10542000AC01C801B7010E94273269837A838B835C
:105430009C83B201882777FD8095982F0E94373092
:105440002091320230913302409134025091350262
:105450000E9427326D877E878F87988BB6018827B9
:1054600077FD8095982F0E9437309B01AC01C801D1
:10547000B7010E9427327B018C0160915402709128
:105480005502882777FD8095982F0E9437305B0161
:105490006C0169817A818B819C812D853E854F8548
:1054A00058890E945A0A27CE8091850290918602DF
:1054B000009769F48091810290918202009739F4FB
:1054C0008091330390913403009709F47AC080915E
:1054D0008502909186028130910569F48091810264
:1054E00090918202009739F48091330390913403B4
:1054F000009709F469C080918502909186028130FD
:10550000910571F480918102909182028130910520
:1055100039F48091330390913403009709F457C014
:105520008091850290918602009771F480918102AA
:10553000909182028130910539F4809133039091EA
:105540003403009709F446C0809185029091860249
:10555000009771F4809181029091820281309105CF
:1055600039F4809133039091340381309105A9F18E
:105570008091850290918602009769F48091810262
:1055800090918202009739F4809133039091340313
:105590008130910529F180918502909186028130B8
:1055A000910571F480918102909182028130910580
:1055B00039F480913303909134038130910599F04F
:1055C000089520E030E011C021E030E00EC022E07C
:1055D00030E00BC023E030E008C024E030E005C03C
:1055E00025E030E002C02AE030E0C9010895DF93F1
:1055F000CF93CDB7DEB766970FB6F894DEBF0FBE78
:10560000CDBFFE01319626E1DF011D922A95E9F713
:1056100024E630E03C832B8322E330E03E832D837D
:105620002EEC3FEF3A8729872CE93FEF3C872B8709
:10563000DC01AA0FBB1FAE0FBF1F6D917C918827A5
:1056400077FD8095982F0E94373020E030E040E8C9
:105650005EE30E9427320E940430CB0166960FB6AB
:10566000F894DEBF0FBECDBFCF91DF9108952F928A
:105670003F924F925F926F927F928F929F92AF92E2
:10568000BF92CF92DF92EF92FF920F931F93CF932F
:10569000DF931C015A0179012801109241021092F6
:1056A0004002109207021092060280910602909129
:1056B00007029093460380934503809145039091A0
:1056C000460390932F0280932E0260E070E080E00A
:1056D00090E0DC01FB01EE0FFF1FEE0FFF1FEF015B
:1056E000CB5CDC4F88839983AA83BB832881398173
:1056F0004A815B81ED5DFC4F20833183428353837C
:105700006F5F7F4F6430710529F700D000D000D063
:10571000EDB7FEB73196CDE0D3E0ADB7BEB7129688
:10572000DC93CE93119783EB91E09383828386EF92
:1057300091E0958384830E948B2E8DB79EB7069649
:105740000FB6F8949EBF0FBE8DBF80E090E067E07B
:1057500070E0AE010E947E0180E090E0B50140E083
:1057600050E020E030E0870172010E949E0C90938F
:10577000460380934503C1E0D0E0809145039091BA
:105780004603B2010E948D0D80910602909107029E
:10579000009799F7D0930702C09306020E94542AFB
:1057A0007C0196E0E916F10421F0C7010E94F72A76
:1057B00002C080E090E0A1E02A16310429F4BAE0AA
:1057C000EB16F10439F443C02114310419F4E11447
:1057D000F104E9F16090390370903A0380903B0343
:1057E00090903C0366277727681B790B882777FD05
:1057F0008095982F0E9437307B018C016091540274
:1058000070915502882777FD8095982F0E94373038
:105810005B016C0160E070E0CB01A40193010E9488
:105820005A0A80912E0290912F02009721F4D09372
:105830002F02C0932E028091450390914603209140
:105840002E0230912F02821793070CF096CF109200
:1058500041021092400210922F0210922E02DF910C
:10586000CF911F910F91FF90EF90DF90CF90BF905D
:10587000AF909F908F907F906F905F904F903F90F0
:105880002F900895AF92BF92CF92DF92EF92FF9246
:105890000F931F93DF93CF93CDB7DEB7C059D1409D
:1058A0000FB6F894DEBF0FBECDBF80E090E0FC01E4
:1058B000EE0FFF1F9C0143E0220F331F4A95E1F7D3
:1058C000E20FF31FE757FD4F1182108213821282FD
:1058D00015821482178216821186108601968930ED
:1058E000910529F708EC10E01092000210930702CE
:1058F0000093060207C0809106029091070200976C
:1059000009F4E2C0809100028823A9F30E944201B9
:10591000863551F710920002809100028823E1F34E
:105920000E944201A82EBB2480ED9FEFA80EB91E55
:10593000750184E0EE0CFF1C8A95E1F7EA18FB087C
:105940006E010894C11CD11C00E010E010C0109240
:105950000002809100028823E1F30E94420190E05E
:10596000C097F601819391936F010F5F1F4F0E1542
:105970001F056CF3FE01319680E090E044E650E0B4
:1059800094C022813381DC01AA0FBB1FBC0113E04C
:10599000660F771F1A95E1F7A60FB71FA757BD4FE0
:1059A00011963C932E9366817781649F9001659F49
:1059B000300D749F300D1124608571858B01000FAF
:1059C000111F660F771F660F771F660F771F060F71
:1059D000171F200F311F62857385260F371F1396FF
:1059E0003C932E93129764857585649F9001659F03
:1059F000300D749F300D1124668577858B01000F63
:105A0000111F660F771F660F771F660F771F060F30
:105A1000171F200F311F60897189260F371F1596B8
:105A20003C932E93149762897389649F9001659FBC
:105A3000300D749F300D1124648975898B01000F1E
:105A4000111F660F771F660F771F660F771F060FF0
:105A5000171F200F311F66897789260F371F17966A
:105A60003C932E931697608D718D649F9001659F76
:105A7000300D749F300D1124628D738D8B01000FDA
:105A8000111F660F771F660F771F660F771F060FB0
:105A9000171F200F311F648D758D260F371F199624
:105AA0003C932E93189701967E968A159B050CF4CD
:105AB00068CF109241021092400210922F02109271
:105AC0002E0221E030E002C020E030E0C901C057E2
:105AD000DE4F0FB6F894DEBF0FBECDBFCF91DF9182
