:100000000C9455000C9474000C9474000C947400BF
:100010000C9474000C9474000C9474000C94740090
:100020000C9474000C9474000C9474000C94740080
:100030000C9474000C9474000C94550E0C94740081
:100040000C9474000C9474000C94D2300C947400D2
:100050000C9474000C9474000C9474000C94740050
:100060000C9474000C9474000C9474000C94740040
:100070000C9474000C9474000C940A010C94740099
:100080000C9474000C9474000C94740005A84CCD6E
:10009000B2D44EB93836A9020C50B9918688083CC2
:1000A000A6AAAA2ABE000000803F11241FBECFEFDF
:1000B000D0E1DEBFCDBF11E0A0E0B1E0E0EAF0E7C3
:1000C00000E00BBF02C007900D92AE3FB107D9F719
:1000D00013E0AEEFB1E001C01D92A534B107E1F726
:1000E0000E942B020C9478310C94000094EA9093B7
:1000F00074009091740097FFFCCF9AE09093730086
:1001000094E8909374009091740097FFFCCF8093D3
:10011000730084E8809374008091740087FFFCCFA3
:1001200084E98093740084EA809374008091740061
:1001300087FFFCCF8BE08093730084E8809374008A
:100140008091740087FFFCCF84E8809374008091D5
:10015000740087FFFCCF8091730094E99093740042
:10016000089594EA909374009091740097FFFCCFE7
:100170009AE09093730094E89093740090917400C7
:1001800097FFFCCF8093730084E880937400809184
:10019000740087FFFCCF6093730084E88093740041
:1001A0008091740087FFFCCF84E9809374000895E8
:1001B00010929B0088E980939A0086E080939D00CE
:1001C000109298008FE580939900789408951F937A
:1001D0001FEF1093730081E4809370000E94350735
:1001E0000E94BE300E94D8000E942F061FBC85E0EE
:1001F0008EBD1DBD80E78CBD84E087BF78948FE005
:1002000087BB81B3807F81BB84B3806F84BB18BA06
:100210001F9108951F920F920FB60F9211248F9382
:10022000DF93CF930F92CDB7DEB780919C00898387
:1002300080919B00887BE1F381E08093FE018981BE
:100240008093FF010F90CF91DF918F910F900FBEA0
:100250000F901F901895DF93CF930F92CDB7DEB715
:100260008091FF0189831092FF01F8941092FE01A2
:10027000789489810F90CF91DF91089590919B00A0
:1002800095FFFCCF80939C000895CF93DF93E4E724
:10029000F0E094EA9083A1EEB2E01197F1F700004C
:1002A000A3E7B0E09EE09C9394E89083C1EED2E097
:1002B0002197F1F700008C93908381EE92E00197F3
:1002C000F1F7000084E98083DF91CF910895EF92E8
:1002D000FF920F931F93DF93CF9300D0CDB7DEB77C
:1002E000082F162F843070F5643160F58BE1498357
:1002F0005A830E9445018CE40E944501812F0E948F
:100300004501802F0E94450180E791E00197F1F7B8
:1003100000C0E12EFF2449815A81042F152F06C009
:100320000E94450194EC9A95F1F700C0E4E1EE16C5
:10033000F10444F4F80181918F010894E11CF11C4F
:10034000882371F70F900F90CF91DF911F910F913C
:10035000FF90EF9008951F93DF93CF9300D0CDB718
:10036000DEB7182F8430F0F46431E0F48BE12A8397
:1003700069830E9445018CE40E9445016981862FB2
:100380000E944501812F0E94450180E791E001977D
:10039000F1F700C02A81822F0E94450194EC9A95C2
:1003A000F1F700C00F900F90CF91DF911F9108954A
:1003B0008BE10E94450183E40E94450186E696EEAA
:1003C000A0E081509040A040E1F70895EF92FF92A5
:1003D0000F931F93182FF62EE42E842F64E60E94AD
:1003E0001B38082F282F30E0205D3F4F442737FD72
:1003F0004095542F812F6F2D0E94AB018CE9089FEF
:10040000002D11240E0D802F6AE00E941B38E82E6B
:100410006F2D6F5F282F30E0205D3F4F442737FD61
:100420004095542F812F0E94AB016F2D6E5F26EFF8
:10043000E29E202D1124200F30E0205D3F4F442705
:1004400037FD4095542F812F0E94AB011F910F91D2
:10045000FF90EF9008952F923F924F925F926F928C
:100460007F928F929F92AF92BF92CF92DF92EF9244
:10047000FF920F931F93DF93CF9300D000D0CDB79F
:10048000DEB70E94E7008EE161E00E94B1008EE1DC
:1004900065E00E94B1008EE164E10E94B1008EE14E
:1004A00060E10E94B1000E9469308BE00E94A1309F
:1004B00080E50E94261180E063E10E94833088235A
:1004C000D1F30FEF1FE726E1015010402040E1F784
:1004D00000C0000080E090E0DC0180936002909317
:1004E0006102A0936202B093630220916002309196
:1004F0006102409162025091630220935C0230934A
:100500005D0240935E0250935F0220915C02309145
:100510005D0240915E0250915F0220935802309339
:10052000590240935A0250935B0280936C0290935D
:100530006D02A0936E02B0936F0280916C02909155
:100540006D02A0916E02B0916F0280936802909349
:100550006902A0936A02B0936B02C39A2FEF3FE740
:1005600044E0215030404040E1F700C00000C39813
:1005700030E0E32E31E0F32E29E1C22E21E0D22E2D
:1005800099E0492E512C82E3282E81E0382EB4992F
:1005900010C0809100029091010201979093010296
:1005A0008093000246E656E263E0415050406040CE
:1005B000E1F7B69910C08091000290910102019676
:1005C000909301028093000266E676E283E0615038
:1005D00070408040E1F7B5990FC00E94D80180912A
:1005E0000002909101028230910530F40E94E410E3
:1005F000B599FECFB59BFECF80910002909101028C
:10060000009709F442C04091200230911F022091CE
:100610001E029091260280912502ADB7BEB71E97AB
:100620000FB6F894BEBF0FBEADBFEDB7FEB73196A3
:100630000BE013E012961C930E931197F382E28263
:10064000448315823683178220871186928713860A
:10065000848715860E947B312DB73EB7225F3F4FBE
:100660000FB6F8943EBF0FBE2DBF80E090E060E073
:1006700070E0A8010E9467013091210220912202BE
:10068000909123028091240244C040913402309121
:1006900033022091320290913A02809139020DB7D3
:1006A0001EB70E5010400FB6F8941EBF0FBE0DBF00
:1006B000EDB7FEB731960BE013E0ADB7BEB71296BB
:1006C0001C930E931197F382E28244831582368342
:1006D00017822087118692871386848715860E9449
:1006E0007B312DB73EB7225F3F4F0FB6F8943EBF28
:1006F0000FBE2DBF80E090E060E070E0A8010E9496
:100700006701309135022091360290913702809135
:1007100038024DB75EB74C5050400FB6F8945EBFEC
:100720000FBE4DBFEDB7FEB73196ADB7BEB712964F
:100730001C930E931197D382C28234831582268331
:10074000178290871186828713860E947B31EDB7CE
:10075000FEB73C960FB6F894FEBF0FBEEDBF81E02A
:1007600090E060E070E0A8010E94670180910002C3
:100770009091010297FF03C0909581959F4FB20120
:100780000E94273890935702809356020E942D08AA
:100790008091560266E60E948330882E8091560230
:1007A00067E60E948330A82E00915602609057029F
:1007B000802F68E60E9483302DB73EB72C50304022
:1007C0000FB6F8943EBF0FBE2DBFEDB7FEB7319602
:1007D0002BE033E0ADB7BEB712963C932E93119742
:1007E000338222820483658286821782A0861186E4
:1007F000828713860E947B314DB75EB7445F5F4F9F
:100800000FB6F8945EBF0FBE4DBF82E090E060E08F
:1008100070E04BE053E00E94670120917902309133
:100820007A0260917B0270917C027A836983809165
:100830007702909178029C838B83A0913103B091D1
:100840003203A0900503B09006038090810290903F
:1008500082026090750270907602609168027091D9
:10086000690280916A0290916B02EDB7FEB77497AE
:100870000FB6F894FEBF0FBEEDBF0DB71EB70F5FEA
:100880001F4F4BE053E05283418345E451E0F801B0
:10089000538342833583248329813A813783268396
:1008A0004B815C8151874087B387A287B586A48638
:1008B00097868686718A608A0E949232D801539602
:1008C0007C936E9352970E947B31EDB7FEB774967E
:1008D0000FB6F894FEBF0FBEEDBF83E090E060E07E
:1008E00070E04BE053E00E94670100D000D000D0E0
:1008F000EDB7FEB731960BE013E0ADB7BEB7129679
:100900001C930E9311972BE531E033832283809162
:10091000000290910102958384830E947B314DB740
:100920005EB74A5F5F4F0FB6F8945EBF0FBE4DBF14
:1009300083E090E060E170E0A8010E94670127CEAB
:1009400090E0FC01B096FE2FEE27208120937002EC
:1009500020FDFBCF8896B82FAA278C919081909389
:10096000700290FDFBCF089590E08096F82FEE275F
:1009700080818093700280FDFBCF608380818093B3
:10098000700280FDFBCF089580E061E00E94B40416
:1009900082E061E00E94B40481E061E00E94B4045E
:1009A0000895A82FB0E0FD01B096FE2FEE278081BC
:1009B0008093700280FDFBCF9896BA2FAA27872FCD
:1009C000992787FD9A958C9380818093700280FD92
:1009D000FBCF6C9380818093700280FDFBCF0895E4
:1009E0001F93CF93DF93182F80E06FE10E94B40430
:1009F000C1E0D0E002C0CC0FDD1F1A95E2F780E025
:100A0000BE010E94D10481E06FE10E94B40481E044
:100A1000BE010E94D10482E06FE10E94B40482E032
:100A2000BE010E94D10480E061E00E94B40482E033
:100A300061E00E94B40481E061E00E94B404DF91AF
:100A4000CF911F910895DF92EF92FF920F931F9322
:100A5000D82E7A018B019B01552737FD5095452FE4
:100A6000B9010E94D1048D2DB7010E94D1041F91BC
:100A70000F91FF90EF90DF9008951F93182F60E083
:100A80000E94B4048CEC9CE10197F1F700C00000D7
:100A9000812F6DE10E94B404812F60E070E00E941C
:100AA000D1041F910895AF92BF92CF92DF92EF923F
:100AB000FF920F931F93CF93DF93F82E6B01EA0100
:100AC0008901AA24A3946115710509F4AA24BB2401
:100AD000B394209709F4BB24EE24E3940115110587
:100AE00009F4EE248F2D6EE10E94B4046B2D70E0AA
:100AF000660F771F660F771F8A2D90E043E0880FFF
:100B0000991F4A95E1F7682B792B8E2D90E0880F7D
:100B1000991F682B792B8F2D0E94D104AA2021F0D8
:100B20008F2DB6010E94D104BB2021F08F2DBE0174
:100B30000E94D104EE2021F08F2DB8010E94D10433
:100B40008F2D64E00E94B404DF91CF911F910F912B
:100B5000FF90EF90DF90CF90BF90AF9008958F926D
:100B60009F92AF92BF92CF92DF92EF92FF920F933C
:100B70001F93CF93DF93F82E4B016A01E901AA245A
:100B8000A3946115710509F4AA24BB24B394C1147C
:100B9000D10409F4BB24EE24E394209709F4EE2455
:100BA0008F2D6EE10E94B4046A2D70E0A3E0660F01
:100BB000771FAA95E1F761608B2D90E0880F991F50
:100BC000880F991F682B792B8E2D90E0880F991F25
:100BD000682B792B8F2D0E94D104AA2021F08F2D14
:100BE000B4010E94D104BB2021F08F2DB6010E94D8
:100BF000D104EE2021F08F2DBE010E94D1048F2D53
:100C0000B8010E94D1048F2D64E00E94B404DF91EA
:100C1000CF911F910F91FF90EF90DF90CF90BF90F9
:100C2000AF909F908F900895DF92EF92FF920F9375
:100C30001F93D82E7A018B016FE10E94B4048D2D91
:100C400060E270E00E94D1048D2DB801A7010E94DE
:100C500023051F910F91FF90EF90DF90089580E0A2
:100C600060E170E040E050E020E430E00E94530595
:100C700081E060E170E040E050E020E430E00E947C
:100C8000530582E060E170E040E050E020E430E0B5
:100C90000E94530580E04FEF5FEF6FEF7FE30E940C
:100CA000140681E04FEF5FEF6FEF7FE30E941406C1
:100CB00082E04FEF5FEF6FEF7FE30E94140608952D
:100CC000DF92EF92FF920F931F93DF93CF930F92D8
:100CD000CDB7DEB7D82E7A018B0177FF0AC0109509
:100CE0000095F094E094E11CF11C011D111D90E0B1
:100CF00001C091E08D2D6FE199830E94B404998128
:100D0000792F7295707F60E0686078608D2D0E9409
:100D1000D1048D2DB801A7010E9423050F90CF911A
:100D2000DF911F910F91FF90EF90DF900895AF92A8
:100D3000BF92CF92DF92EF92FF920F931F93DF93B8
:100D4000CF93CDB7DEB72C970FB6F894DEBF0FBEAA
:100D5000CDBF59016A010E94C53269837A838B83B2
:100D60009C83C601B5010E94C5326D837E838F834B
:100D70009887C801B7010E94C53269877A878B8737
:100D80009C878E010F5F1F4FEE24F80160817181F7
:100D90008281938121E73CEA4BE85EE30E9489343B
:100DA0009B01AC01F80121933193419351938F0141
:100DB00020E030E040E857E40E9489340E949232FB
:100DC000AB01BC018E2D0E946006E394FE2DF33032
:100DD000E1F60E94C4042C960FB6F894DEBF0FBE55
:100DE000CDBFCF91DF911F910F91FF90EF90DF90DA
:100DF000CF90BF90AF9008954F925F926F927F9285
:100E00008F929F92AF92BF92CF92DF92EF92FF921A
:100E10000F931F93982E862E29013A016FE10E94AD
:100E2000B404682D70E06A62892D0E94D104892D76
:100E3000B301A2010E942305892DB801A7010E94D8
:100E40002305892DB601A5010E9423051F910F914D
:100E5000FF90EF90DF90CF90BF90AF909F908F90DA
:100E60007F906F905F904F9008958F929F92AF9276
:100E7000BF92CF92DF92EF92FF920F931F93DF9377
:100E8000CF9300D00F92CDB7DEB71ABA15BA8FEF55
:100E900084BB1092650083E08093640000E8A02E7C
:100EA00012E0B12EB4E89B2E6E010894C11CD11C37
:100EB00085B3856085BB83E39BE20197F1F785B33A
:100EC0008A7F85BBECECFCE13197F1F700C00000B4
:100ED000809165008D7F80936500AB9885B3887F96
:100EE00085BB99B39983A89A19B385B3887F82602B
:100EF00085BB09B3943C09F4A7C0943809F4A4C095
:100F000015BA80E090E060E070E042E651E00E94B7
:100F1000670181E090E060E070E048E651E00E9407
:100F20006701143C09F490C0143809F48DC015BA57
:100F300080E090E060E070E042E651E00E946701EE
:100F400082E090E060E070E048E751E00E946701D5
:100F5000043C09F479C0043809F476C015BA80E07D
:100F600090E060E070E042E651E00E94670183E0BB
:100F700090E060E070E048E851E02DC08E2C8C18C5
:100F8000882D6DE10E94B404882D60E070E00E941D
:100F9000D104F8018081F70181937F0100501F4F38
:100FA000F3E200301F0751F78981803CB9F08038A7
:100FB000A9F085B78F7385BF15BA80E090E060E037
:100FC00070E048E951E00E94670181E090E060E054
:100FD00070E048E651E00E9467016ACF80E090E04F
:100FE00060E070E04EE951E00E94670180E098B354
:100FF000976098BB2FEF3FEB46E0215030404040D8
:10100000E1F700C0000098B3987F98BB2FEF3FEB4B
:1010100046E0215030404040E1F700C000008F5FC3
:10102000833029F70E94D8010F900F900F90CF9135
:10103000DF911F910F91FF90EF90DF90CF90BF90C5
:10104000AF909F908F900895A5BEB0926D00909242
:101050006C00760100E010E291CF4F925F926F92A8
:101060007F928F929F92AF92BF92CF92DF92EF9238
:10107000FF920F931F93CF93DF9384E6482E512C5A
:1010800084E00E947600982F80E0EC0185E00E94C9
:10109000760090E08C2B9D2BB2010E942738882788
:1010A00077FD8095982F0E94C532F62E072F182FB6
:1010B000E92EA62EB72EC82ED92E35014601E8946A
:1010C00097F8C401B30120E030E044E353E40E9408
:1010D000EE331816ACF26091640270916502809153
:1010E0006602909167022F2D302F412F5E2D0E94B6
:1010F0002332882309F41AC16F2D702F812F9E2D62
:1011000020E030E0A9010E94233287FF63C0609194
:10111000640270916502809166029091670220E0FE
:1011200030E0A9010E94EE3318160CF053C0209154
:1011300064023091650240916602509167025F77C8
:10114000C401B3010E94AC3120E030E044E353E439
:101150000E94233287FF1BC0609068027090690272
:1011600080906A0290906B026091640270916502B7
:1011700080916602909167022F2D302F412F5E2DB6
:101180000E94AB319B01AC01C401B301BBC06090B4
:1011900068027090690280906A0290906B02609180
:1011A00064027091650280916602909167022F2D12
:1011B000302F412F5E2D0E94AB319B01AC0160E0CE
:1011C00070E883EB93E40E94AB319B01AC01C40156
:1011D000B3016FC0C601B50120E030E0A9010E9453
:1011E000EE3318160CF03FC06091640270916502F6
:1011F000809166029091670220E030E0A9010E9490
:10120000233287FF30C02091640230916502409103
:101210006602509167025F77C401B3010E94AC314E
:1012200020E030E044E353E40E94233287FD29C0EC
:10123000E0906802F090690200916A0210916B02DE
:1012400020916402309165024091660250916702DC
:10125000C601B5010E94AB319B01AC0160E070E8B2
:1012600083EB93E449C02091640230916502409180
:10127000660250916702C601B5010E94EE3318164E
:10128000DCF4E0906802F090690200916A0210912B
:101290006B02209164023091650240916602509188
:1012A0006702C601B5010E94AB319B01AC01C801C8
:1012B000B7010E94AC3128C02091640230916502D0
:1012C0004091660250916702C601B5010E94233227
:1012D00087FF24C0E0906802F090690200916A02E2
:1012E00010916B02609164027091650280916602B8
:1012F00090916702A60195010E94AB319B01AC0160
:10130000C801B7010E94AB319B01AC012093680278
:101310003093690240936A0250936B02A092640278
:10132000B0926502C0926602D0926702DF91CF91BF
:101330001F910F91FF90EF90DF90CF90BF90AF90F3
:101340009F908F907F906F905F904F9008952F9215
:101350003F924F925F926F927F928F929F92AF9245
:10136000BF92CF92DF92EF92FF920F931F93DF9382
:10137000CF93CDB7DEB762970FB6F894DEBF0FBE3E
:10138000CDBF69837A838B839C832D833E834F8378
:1013900058873701480160E070E084E394E4A601D7
:1013A00095010E94AB31162F072FF82EE92E8D8163
:1013B0009E81AF81B8858093710290937202A09351
:1013C0007302B093740289819A81AB81BC8180934E
:1013D000070390930803A0930903B0930A03A09214
:1013E0007D02B0927E02C0927F02D0928002C6013E
:1013F000B50120E030E044E353E40E9423321816A4
:1014000084F0A8019701652F742F832F922F20E07D
:1014100030E044EB53E40E94AB31162F072FF82E37
:10142000E92EA8019701652F702F832F9E2D20E0B4
:1014300030E044EB52E40E94AB3169877A878B87B6
:101440009C87C401B30123EF36E64FE55EE30E94BB
:1014500089346D877E878F87988B80E090E036E9AE
:10146000432E512C28E6222E21E0322E9A8B898B96
:10147000B201882777FD8095982F0E94C5325B01C5
:101480006C01C20188589F4FB1010E9427382C017E
:10149000C601B501D801F7012B2F302F4F2F5E2D3C
:1014A0000E94AB3125E33AEF4EE85CE30E948934B9
:1014B0000E9427323B014C01C601B501B985AA85BE
:1014C000AB84DC842B2F3A2F4A2D5D2D0E94AB314B
:1014D00025E33AEF4EE85CE30E9489340E9427320C
:1014E0005B016C016D817E818F819885A4019301E0
:1014F0000E9489343B014C0169817A818B819C81F6
:10150000A60195010E9489349B01AC01C401B3017D
:101510000E94AC31BD85AE85DF84A8882B2F3A2F81
:101520004D2D5A2D0E94AB312FE632E143E856E4AF
:101530000E94893423E333E343E250EC0E94893470
:101540000E949232AB01BC0189890E946006A98980
:10155000BA891196BA8BA98BA330B10509F088CF4F
:101560000E94C4040E942D0862960FB6F894DEBF54
:101570000FBECDBFCF91DF911F910F91FF90EF90E4
:10158000DF90CF90BF90AF909F908F907F906F90A3
:101590005F904F903F902F9008952F923F924F92DF
:1015A0005F926F927F928F929F92AF92BF92CF92F3
:1015B000DF92EF92FF920F931F93DF93CF93CDB7FC
:1015C000DEB72C970FB6F894DEBF0FBECDBF5B0120
:1015D0006C0139014A011701280160916C02709178
:1015E0006D0280916E0290916F022091680230919D
:1015F000690240916A0250916B02E0906802F0909B
:10160000690200916A0210916B02E0926C02F09202
:101610006D0200936E0210936F02E0906002F090F2
:10162000610200916202109163020E94AB319B0142
:10163000AC01C801B7010E94AC319B01AC01209301
:101640006002309361024093620250936302C601CC
:10165000B50120E030E0A9010E942332882351F433
:10166000C401B30120E030E0A9010E9423328823A5
:1016700009F4D2C0C601B50120E030E048EC52E4E4
:101680000E942A3269837A838B839C83C401B301CD
:1016900020E030E048EC52E40E942A326D837E83E1
:1016A0008F839887609160027091610280916202DD
:1016B00090916302A20191010E94AB31F62E072F97
:1016C000182FE92E8091580290915902A0915A0248
:1016D000B0915B0289879A87AB87BC876F2D702F8B
:1016E000812F9E2D25E33AEF4EE85CE30E9489347A
:1016F0000E9427323B014C016F2D702F812F9E2DB0
:1017000020E030E044EB52E40E94AC3125E33AEFB4
:101710004EE85CE30E9489340E9427325B016C0131
:1017200059814A813B812C81652F742F832F922F01
:10173000A40193010E9489341B012C015D814E811B
:101740003F812885652F742F832F922FA601950145
:101750000E9489349B01AC01C201B1010E94AC31ED
:101760009B01AC0169857A858B859C850E94AC3193
:101770009B01AC01209358023093590240935A02C6
:1017800050935B0220905C0230905D0240905E02BC
:1017900050905F026F2D702F812F9E2D20E030E042
:1017A00044EB52E40E94AB3125E33AEF4EE85CE3B0
:1017B0000E9489340E9427327B018C015D814E8119
:1017C0003F812885652F742F832F922FA4019301C9
:1017D0000E9489345B016C0159814A813B812C81D3
:1017E000652F742F832F922FA80197010E948934AF
:1017F0009B01AC01C601B5010E94AC319B01AC015B
:10180000C201B1010E94AC319B01AC01E8E5F2E0FC
:1018100024833583468357832C960FB6F894DEBF16
:101820000FBECDBFCF91DF911F910F91FF90EF9031
:10183000DF90CF90BF90AF909F908F907F906F90F0
:101840005F904F903F902F9008952F923F924F922C
:101850005F926F927F928F929F92AF92BF92CF9240
:10186000DF92EF92FF920F931F93DF93CF93CDB749
:10187000DEB72E970FB6F894DEBF0FBECDBF1801AE
:1018800087019A8389837C836B83509541955F4F51
:101890005E834D83309521953F4F38872F83CE014E
:1018A00001969A87898779E0472E512C4C0E5D1E50
:1018B0007C0166247724CC24DD24D7016D917D91B1
:1018C0007D01882777FD8095982F0E94C5324B01B6
:1018D0005C01E894B7F8662D772D8C2D9D2DA50120
:1018E00094010E94233287FF02C034016501E41491
:1018F000F50419F7EE24FF24C101AA2797FDA0954E
:10190000BA2F8B879C87AD87BE87A985BA85AD9096
:10191000BD90BA87A9876B857C858D859E850E9441
:10192000C5321B012C01B501882777FD8095982FC2
:101930000E94C532262D372D4C2D5D2D0E942A3256
:10194000A20191010E9489349B01AC01F701EE0FC5
:10195000FF1FEE0FFF1FEF5DFC4F2083318342839B
:1019600053830894E11CF11CB4E0EB16F10469F612
:10197000043611052CF40115110509F051C005C0FC
:101980000436110511F00456104091E0E92EF12CB7
:10199000662D772D8C2D9D2D20E030E048EC52E413
:1019A0000E948934A20191010E942A320E941032C1
:1019B0005B016C01970122503040C80117FF03C042
:1019C000909581959F4FB7010E942738620F731F32
:1019D000882777FD8095982F0E94C5329B01AC0126
:1019E000C601B5010E94AC310E949232CB012E9605
:1019F0000FB6F894DEBF0FBECDBFCF91DF911F9120
:101A00000F91FF90EF90DF90CF90BF90AF909F909D
:101A10008F907F906F905F904F903F902F900895A0
:101A200082E0E82EF12CB4CF2F923F924F925F923A
:101A30006F927F928F929F92AF92BF92CF92DF92DE
:101A4000EF92FF920F931F93DF93CF93CDB7DEB743
:101A50002E970FB6F894DEBF0FBECDBF7A83698391
:101A60006536710514F0645670404B0177FF04C071
:101A700088249924861A970AE0902A02F0902B0273
:101A8000A7014F5F5F4F9C012E193F0900E010E056
:101A90005A01CC24B7FCC094DC2CAB82BC82CD8232
:101AA000DE821401442437FC4094542C6C01C81885
:101AB000D908D886CF82C901AA2797FDA095BA2F49
:101AC00089879A87AB87BC877E876D873401F7FC4F
:101AD00034C0AD85BE85B7FD2DC04801880C991C6A
:101AE000880C991CF401EF5DFC4FA080B180C2808E
:101AF000D3806B817C818D819E810E94C5329B0148
:101B0000AC01C601B5010E9489345B016C01C201C0
:101B1000B1010E94C5329B01AC01C601B5010E9412
:101B20002A329B01AC01F401ED5CFC4F2083318330
:101B300042835383E614F70424F4ED85FE85F7FF12
:101B400013C09801220F331F220F331FF901EF5DDD
:101B5000FC4F80819181A281B3812D5C3C4FF901C2
:101B600080839183A283B383AF80B884AE14BF0413
:101B700094F549815A814536510568F14801880C30
:101B8000991C880C991CF401EF5DFC4FA080B1807A
:101B9000C280D38069857A858B859C850E94C532F9
:101BA0009B01AC01C601B5010E9489345B016C0147
:101BB000C201B1010E94C5329B01AC01C601B50151
:101BC0000E942A329B01AC01F401ED5CFC4F2083A2
:101BD0003183428353830F5F1F4F0430110509F097
:101BE00076CF2E960FB6F894DEBF0FBECDBFCF9145
:101BF000DF911F910F91FF90EF90DF90CF90BF90FA
:101C0000AF909F908F907F906F905F904F903F909C
:101C10002F90089581E090E00A9B02C080E090E060
:101C200090937C0280937B0281E090E00B9B02C04A
:101C300080E090E0909378028093770281E090E0DA
:101C40000C9B02C080E090E09093320380933103BC
:101C500081E090E0849B02C080E090E090937A0263
:101C60008093790281E090E0869B02C080E090E062
:101C700090930603809305032091630081E090E038
:101C800023FF02C080E090E0909382028093810263
:101C90002091630081E090E024FF02C080E090E0AA
:101CA000909376028093750208951F920F920FB65B
:101CB0000F920BB60F921124EF92FF920F931F9386
:101CC0002F933F934F935F936F937F938F939F9344
:101CD000AF93BF93EF93FF938FEF8DBD80E78CBDE4
:101CE0006091140270911502809116029091170272
:101CF0002AE037ED43EA5CE30E94AC317B018C01C2
:101D00007F2D912F20E030E040E85FE30E94EE332A
:101D1000181624F4EE24FF2400E81FE38E2D9F2DD7
:101D2000A02FB12F8093140290931502A093160256
:101D3000B093170260912E0270912F0280913002B1
:101D4000909131022AE037ED43EA5CE30E94AC3126
:101D50007B018C017F2D912F20E030E040E85FE394
:101D60000E94EE33181624F4EE24FF2400E81FE34B
:101D70008E2D9F2DA02FB12F80932E0290932F0296
:101D8000A0933002B0933102609118027091190251
:101D900080911A0290911B022DEC3CEC4CE45DE327
:101DA0000E94AC31F62EE72E8C01A701652F742F0F
:101DB000912F20E030E040E85FE30E94EE331816F8
:101DC00024F4FF24EE2400E81FE3A701852F9E2DB5
:101DD000A02FB12F8093180290931902A0931A029A
:101DE000B0931B020E940A0E809105039091060396
:101DF000009791F080912C0290912D02009761F450
:101E000080914C0290914D02019690934D028093E7
:101E10004C0281E090E00EC0809105039091060392
:101E2000009761F480912C0290912D02009731F07F
:101E300085E090E090932D0280932C0280917B02AC
:101E400090917C020097B1F0809112029091130260
:101E5000009781F480911C0290911D02019690934D
:101E60001D0280931C0281E090E090931302809306
:101E7000120210C080917B0290917C02009751F475
:101E80008091120290911302009721F01092130298
:101E9000109212028091770290917802009731F1AE
:101EA0008091480290914902009701F58091520279
:101EB000909153020196909353028093520221E035
:101EC00030E0309349022093480280911F039091A3
:101ED0002003FC01EE0FFF1FE352FD4F31832083EF
:101EE00001969093200380931F0310C08091770286
:101EF00090917802009751F48091480290914902A4
:101F0000009721F01092490210924802809131030B
:101F1000909132030097B1F0809144029091450274
:101F2000009781F480914202909143020196909330
:101F300043028093420281E090E0909345028093B7
:101F4000440210C08091310390913203009751F404
:101F50008091440290914502009721F01092450231
:101F6000109244028091790290917A020097B1F028
:101F70008091400290914102009781F480914A0241
:101F800090914B02019690934B0280934A0281E01C
:101F900090E0909341028093400210C080917902BA
:101FA00090917A02009751F4809140029091410201
:101FB000009721F010924102109240028091050397
:101FC000909106030097B1F080912C0290912D0220
:101FD000009781F480914C0290914D02019690936C
:101FE0004D0280934C0281E090E090932D0280930B
:101FF0002C0210C08091050390910603009751F4C4
:1020000080912C0290912D02009721F010922D02C8
:1020100010922C028091810290918202009741F1EE
:102020008091460290914702009711F580913E02FF
:1020300090913F02019690933F0280933E0281E08F
:1020400090E0909347028093460280911F03909105
:102050002003FC01EE0FFF1FE352FD4F22E030E0B2
:102060003183208301969093200380931F0310C037
:102070008091810290918202009751F480914602F2
:1020800090914702009721F0109247021092460269
:1020900080917502909176020097B1F080912802AC
:1020A00090912902009781F48091540290915502F9
:1020B0000196909355028093540281E090E09093B2
:1020C00029028093280210C08091750290917602B7
:1020D000009751F48091280290912902009721F0F5
:1020E000109229021092280280912A0290912B02CC
:1020F000009729F0019690932B0280932A028091F9
:10210000020290910302009749F08091020290919F
:1021100003020197909303028093020280914E0282
:1021200090914F02009749F080914E0290914F029A
:10213000019690934F0280934E0280913C029091C1
:102140003D02009729F0019690933D0280933C0256
:1021500080911F03909120038431910524F0109207
:10216000200310921F036091070370910803809170
:10217000090390910A0320917102309172024091FB
:10218000730250917402E0907D02F0907E02009103
:102190007F02109180020E94CD0AFF91EF91BF91C2
:1021A000AF919F918F917F916F915F914F913F91EF
:1021B0002F911F910F91FF90EF900F900BBE0F90FA
:1021C0000FBE0F901F901895AF92BF92CF92DF92E3
:1021D000EF92FF920F931F9360E070E0CB019B01A1
:1021E000AC017B018C015B016C010E94A7091F916E
:1021F0000F91FF90EF90DF90CF90BF90AF90089538
:10220000FC01E25EFD4F808190E0861797076CF439
:1022100080913C0290913D02009759F481E090E05A
:1022200090933D0280933C0204C010923D021092B4
:102230003C0221E030E080913C0290913D028A30E6
:10224000910514F420E030E0C90108951F93182F80
:1022500081E10E943E01812F0E943E018091FE019A
:102260008823E1F30E942B01882391F31F910895A5
:102270004F925F926F927F928F929F92AF92BF9296
:10228000CF92DF92EF92FF920F931F93CF93DF9342
:102290008C013B01C1E0D0E0CC24DD248FEFA82EDF
:1022A000B12C88249924EE24FF2444245524401A78
:1022B000510A14C0602F17FD642D8C2F0E948330AB
:1022C00090E0C816D90614F46C017E018A159B05AE
:1022D00024F4009711F05C014E0121966C167D06E6
:1022E0004CF7101611060CF07401C701DF91CF9165
:1022F0001F910F91FF90EF90DF90CF90BF90AF9024
:102300009F908F907F906F905F904F9008956F9205
:102310007F928F929F92AF92BF92CF92DF92EF9275
:10232000FF920F931F93D62EC72EB82EA92E922E52
:10233000832E742E652E6E2D7F2D802F912FD6012A
:10234000F5012B2F3A2F4F2F5E2F0E94EE331816D8
:10235000ACF06E2D7F2D802F912FD401F3012B2F08
:102360003A2F4F2F5E2F0E94233287FF03C0640154
:10237000530104C0DE2CCF2CB02EA12EA601950156
:10238000652F7C2D832F9A2D1F910F91FF90EF9039
:10239000DF90CF90BF90AF909F908F907F906F9085
:1023A00008952F923F925F926F927F928F929F92A9
:1023B000AF92BF92CF92DF92EF92FF920F931F9353
:1023C000DF93CF93CDB7DEB728970FB6F894DEBF73
:1023D0000FBECDBF582E5B015A8349831092030272
:1023E000109202021092440310924303809143031F
:1023F0009091440390932B0280932A0260E070E056
:1024000080E090E0DC018B01000F111F000F111F15
:1024100098012D5C3C4FF90180839183A283B383A3
:102420002081318142815381F801EF5DFC4F20838F
:102430003183428353836F5F7F4F6430710519F797
:1024400000D000D000D0EDB7FEB731960BE013E01E
:10245000ADB7BEB712961C930E93119782EB91E025
:102460009383828387EB91E0958384830E947B3101
:10247000EDB7FEB736960FB6F894FEBF0FBEEDBFB0
:1024800080E090E067E070E0A8010E946701109290
:102490004F0210924E02852D66E60E948330882EF0
:1024A000E0906002F090610200916202109163027C
:1024B000B501882777FD8095982F0E94C532A80125
:1024C00097010E94AC310E9492329B012819310978
:1024D0004901882777FD8095982F0E94C5325B01BE
:1024E0006C01B401882777FD8095982F0E94C53232
:1024F0007B018C01C40168E572E00E9427388827BF
:1025000077FD8095982F0E94C5322FE832EC45E781
:102510005EE30E94AC319B01AC01C801B7010E948F
:1025200089349B01AC01C601B5010E94AC310E9407
:1025300092321B018824992491E0692E712C3C82EF
:102540002B82140180910202909103020097D1F72F
:102550007092030260920202852D66E60E9483302B
:10256000E82EFF24852D67E60E94833038C00E9444
:10257000E410852D66E60E948330E82E852D67E6FF
:102580000E94833020914E0230914F022115310577
:1025900021F470924F0260924E0220914E023091CF
:1025A0004F0241E02F3534071CF00E94E4100EC1A9
:1025B000FF24E114F10499F020E030E0A901209318
:1025C0002E0230932F024093300250933102209319
:1025D0001402309315024093160250931702082FED
:1025E00010E0E114F10421F40115110509F4BFCF45
:1025F0004B815C814115510591F0E41AF50AB70150
:10260000882777FD8095982F0E94C5322DEC3CECF1
:102610004CE45FE30E9489340E9492321B0189815D
:102620009A81009719F04C01801A910AB10188270C
:1026300077FD8095982F0E94C5327B018C0160E068
:1026400070E088E492E420E030E048E452EC0E943C
:1026500087110E9492321B01B401882777FD809573
:10266000982F0E94C5327B018C0160E070E080E70A
:1026700092E420E030E040E752EC0E9487110E9493
:1026800092324B01A0906002B0906102C090620251
:10269000D0906302B401882777FD8095982F0E941F
:1026A000C53220912E0230912F024091300250917C
:1026B00031020E9489342DEC3CEC4CE45FE30E9433
:1026C00089346D837E838F839887B101882777FD56
:1026D0008095982F0E94C5322091140230911502E6
:1026E00040911602509117020E9489347B018C019F
:1026F0006091500270915102882777FD8095982F44
:102700000E94C532A60195010E94AC315B016C01AB
:1027100060E070E0CB012D813E814F8158850E94A1
:10272000A70980912A0290912B02009721F47092C0
:102730002B0260922A0280912A0290912B02A1E042
:102740008F359A0754F42114310409F0FBCEC401EB
:1027500001968330910508F0F5CE80E090E0DC0131
:1027600080937D0290937E02A0937F02B0938002BB
:1027700080917D0290917E02A0917F02B0918002B3
:102780008093070390930803A0930903B0930A036F
:102790008091070390910803A0910903B0910A0367
:1027A0008093710290937202A0937302B0937402AB
:1027B0006091710270917202809173029091740223
:1027C0000E94923270932B0260932A0228960FB6D1
:1027D000F894DEBF0FBECDBFCF91DF911F910F9157
:1027E000FF90EF90DF90CF90BF90AF909F908F9031
:1027F0007F906F905F903F902F9008952F923F921F
:102800005F926F927F928F929F92AF92BF92CF9280
:10281000DF92EF92FF920F931F93DF93CF93CDB789
:10282000DEB760970FB6F894DEBF0FBECDBF582E4F
:102830007A8369835C834B833E832D8310920302EA
:1028400010920202109244031092430380914303BA
:102850009091440390932B0280932A0260E070E0F1
:1028600080E090E0DC018B01000F111F000F111FB1
:1028700098012D5C3C4FF90180839183A283B3833F
:102880002081318142815381F801EF5DFC4F20832B
:102890003183428353836F5F7F4F6430710519F733
:1028A00000D000D000D0EDB7FEB731960BE013E0BA
:1028B000ADB7BEB712961C930E93119782EB91E0C1
:1028C000938382838BEB91E0958384830E947B3199
:1028D000EDB7FEB736960FB6F894FEBF0FBEEDBF4C
:1028E00080E090E067E070E0A8010E94670110922C
:1028F0004F0210924E028824992480E090E06624D2
:10290000772431E0232E312C988B8F87809102021F
:10291000909103020097D1F73092030220920202B5
:10292000852D66E60E948330E82EFF24852D67E61C
:102930000E948330082F10E0B701CF84D8883BC0B5
:102940000E94E410852D66E60E948330A82E852D16
:1029500067E60E94833020914E0230914F0221158C
:10296000310521F430924F0220924E0220914E0206
:1029700030914F02F1E02F353F071CF00E94E41028
:1029800053C16A2D70E06115710599F020E030E0C7
:10299000A90120932E0230932F02409330025093CE
:1029A0003102209314023093150240931602509383
:1029B0001702082F10E06115710521F401151105AA
:1029C00009F4BECFD88ACF864B815C814115510571
:1029D00089F0641B750B882777FD8095982F0E94DE
:1029E000C5322DEC3CEC4CE45FE30E9489340E943C
:1029F00092323B0189819A81009791F0E81AF90A95
:102A0000B701882777FD8095982F0E94C5322AE963
:102A100039E949E15FE30E9489340E9492324B0117
:102A2000AD81BE81109721F0A01BB10BB88BAF8791
:102A3000B301882777FD8095982F0E94C5327B01CE
:102A40008C0160E070E080EF91E420E030E040EF46
:102A500051EC0E9487110E9492323B01EF85F88968
:102A6000BF01882777FD8095982F0E94C5327B0192
:102A70008C0160E070E08CE592E420E030E04CE511
:102A800052EC0E9487110E949232788B6F87B401BA
:102A9000882777FD8095982F0E94C5327B018C0195
:102AA00060E070E088E492E420E030E048E452EC3A
:102AB0000E9487110E9492324B01E0901402F09024
:102AC00015020091160210911702B301882777FDB5
:102AD0008095982F0E94C532A80197010E948934E1
:102AE0002DEC3CEC4CE45FE30E9489346F837887E3
:102AF00089879A872F853889B901882777FD80953E
:102B0000982F0E94C53220912E0230912F024091C1
:102B10003002509131020E9489342DEC3CEC4CE49F
:102B20005FE30E9489346B877C878D879E87B40121
:102B3000882777FD8095982F0E94C532A8019701BC
:102B40000E9489347B018C01609150027091510286
:102B5000882777FD8095982F0E94C5325B016C0114
:102B60006F81788589859A852B853C854D855E8525
:102B70000E94A70980912A0290912B02009721F4CC
:102B800030922B0220922A0280912A0290912B02ED
:102B900031E08F3593077CF46114710409F0B6CEEF
:102BA0008F85988901968330910508F0AFCE811406
:102BB000910409F0ABCE80E090E0DC0180937D02CF
:102BC00090937E02A0937F02B093800280917D0259
:102BD00090917E02A0917F02B091800280930703C2
:102BE00090930803A0930903B0930A03809107030D
:102BF00090910803A0910903B0910A038093710298
:102C000090937202A0937302B09374026091710268
:102C10007091720280917302909174020E949232BC
:102C200070932B0260932A0260960FB6F894DEBF71
:102C30000FBECDBFCF91DF911F910F91FF90EF900D
:102C4000DF90CF90BF90AF909F908F907F906F90CC
:102C50005F903F902F9008952F923F924F925F92F6
:102C60006F927F928F929F92AF92BF92CF92DF929C
:102C7000EF92FF920F931F93DF93CF93CDB7DEB701
:102C80002C970FB6F894DEBF0FBECDBF6C015B0171
:102C90005C834B8339011A830983109203021092DB
:102CA00002021092440310924303809143039091D7
:102CB000440390932B0280932A0260E070E080E04E
:102CC00090E0DC018B01000F111F000F111F980114
:102CD0002D5C3C4FF90180839183A283B3832081D3
:102CE000318142815381F801EF5DFC4F20833183B4
:102CF000428353836F5F7F4F6430710519F700D0B3
:102D000000D000D0EDB7FEB731960BE013E0ADB7C1
:102D1000BEB712961C930E93119782EB91E09383AA
:102D200082838EEB91E0958384830E947B31EDB7A3
:102D3000FEB736960FB6F894FEBF0FBEEDBF80E02B
:102D400090E067E070E0A8010E946701809168024E
:102D500090916902A0916A02B0916B028D839E836B
:102D6000AF83B887C601B50140E050E020E030E015
:102D70008301E980FA800E94250CC114D10469F115
:102D8000A114B10451F1B301882777FD8095982FE4
:102D90000E94C5327B018C01609121037091220356
:102DA00080912303909124032091250330912603E1
:102DB00040912703509128030E94FB339B01AC01F3
:102DC000C801B7010E942A329B01AC01C801B701BA
:102DD0000E9489340E9492323B01C601B5014B81A9
:102DE0005C8120E030E08301E980FA800E94250CBC
:102DF0009093440380934303C3010A966AE070E012
:102E00000E942738CB01AA2797FDA095BA2F898762
:102E10009A87AB87BC87809102029091030200974A
:102E2000D1F7A1E0B0E0B0930302A0930202809139
:102E300043039091440369817A810E94140DEB81D0
:102E4000FC81309709F04DC02091680230916902F1
:102E500040916A0250916B026D817E818F819885CD
:102E60000E94AB316B01E82E092F69857A858B852D
:102E70009C850E94C5329B01AC016C2D7D2D8E2D51
:102E8000902F0E948934D62EC72EB82EA92EE62E5A
:102E9000F72E082F192F20E030E040EF51E40E9478
:102EA000EE33181664F06D2D7C2D8B2D9A2D20E0BD
:102EB00030E040EF51EC0E94233287FF0AC00F2E12
:102EC000F0E0EF2EF0E0FF2EF0E00F2FF0E01F2FEC
:102ED000F02DE0923B03F0923C0300933D031093EE
:102EE0003E0380912A0290912B02009731F481E0F9
:102EF00090E090932B0280932A028091430390915B
:102F0000440320912A0230912B02821793070CF080
:102F100052C080E090E0DC0180937D0290937E02BD
:102F2000A0937F02B093800280917D0290917E02F7
:102F3000A0917F02B09180028093070390930803D1
:102F4000A0930903B0930A038091070390910803AB
:102F5000A0910903B0910A038093710290937202C9
:102F6000A0937302B0937402609171027091720227
:102F700080917302909174020E94923270932B029E
:102F800060932A022C960FB6F894DEBF0FBECDBF19
:102F9000CF91DF911F910F91FF90EF90DF90CF9035
:102FA000BF90AF909F908F907F906F905F904F9069
:102FB0003F902F9008956090330370903403809079
:102FC00035039090360320903703309038034090BB
:102FD000390350903A03E0903B03F0903C0300919A
:102FE0003D0310913E036091500270915102882779
:102FF00077FD8095982F0E94C5325B016C01C4015A
:10300000B301A20191010E94A70905CFEF92FF929F
:103010000F931F937B01FA0189019C01220F331F3B
:10302000280F391F4E2D5F2D57FF03C05095419536
:103030005F4F249FC001259F900D349F900D112458
:1030400064EB70E00E94273880E090E0A7019F01C8
:103050000E942C161F910F91FF90EF9008952F92D0
:103060003F924F925F926F927F928F929F92AF9218
:10307000BF92CF92DF92EF92FF920F931F93DF9355
:10308000CF93CDB7DEB762970FB6F894DEBF0FBE11
:10309000CDBF9A8789877C876B873A0119011C838A
:1030A0000B83FE86ED86BA82A982109203021092EB
:1030B00002021092440310924303809143039091C3
:1030C000440390932B0280932A0260E070E080E03A
:1030D00090E0DC019B01220F331F220F331FF90107
:1030E000ED5CFC4F80839183A283B383E080F18009
:1030F000028113812F5D3C4FF901E082F18202834E
:1031000013836F5F7F4F6430710521F700D000D0CB
:1031100000D0EDB7FEB731960BE013E0ADB7BEB708
:1031200012961C930E93119782EB91E09383828306
:1031300083EC91E0958384830E947B31EDB7FEB7E9
:1031400036960FB6F894FEBF0FBEEDBF80E090E05C
:1031500067E070E0A8010E94670180916802909189
:103160006902A0916A02B0916B028D839E83AF8346
:10317000B887C301B10140E050E020E030E08601B3
:10318000E980FA800E94250C6114710469F1211410
:10319000310451F1B601882777FD8095982F0E9460
:1031A000C5327B018C0160912103709122038091D3
:1031B000230390912403209125033091260340910D
:1031C0002703509128030E94FB339B01AC01C801E7
:1031D000B7010E942A329B01AC01C801B7010E94CD
:1031E00089340E9492326B01C301B1014B815C8131
:1031F00020E030E08601E980FA800E94250C90935F
:10320000440380934303C6010A966AE070E00E947B
:103210002738CB01AA2797FDA095BA2F8F87988BC7
:10322000A98BBA8B80910202909103020097D1F78B
:10323000A1E0B0E0B0930302A093020280914303A7
:103240009091440369817A810E94140DEB81FC8185
:10325000309709F04DC02091680230916902409189
:103260006A0250916B026D817E818F8198850E94E8
:10327000AB316B01E82E092F6F85788989899A898E
:103280000E94C5329B01AC016C2D7D2D8E2D902F9F
:103290000E948934D62EC72EB82EA92EE62EF72EE0
:1032A000082F192F20E030E040EF51E40E94EE3368
:1032B000181664F06D2D7C2D8B2D9A2D20E030E0BA
:1032C00040EF51EC0E94233287FF0AC00F2EF0E03E
:1032D000EF2EF0E0FF2EF0E00F2FF0E01F2FF02D8B
:1032E000E0923B03F0923C0300933D0310933E03B6
:1032F00080912A0290912B02009731F481E090E0B6
:1033000090932B0280932A0280914303909144036F
:1033100020912A0230912B028217930774F0A9851D
:10332000BA85109709F05BC08B859C856D857E857D
:103330000E940011009709F452C080E090E0DC0187
:1033400080937D0290937E02A0937F02B0938002CF
:1033500080917D0290917E02A0917F02B0918002C7
:103360008093070390930803A0930903B0930A0383
:103370008091070390910803A0910903B0910A037B
:103380008093710290937202A0937302B0937402BF
:103390006091710270917202809173029091740237
:1033A0000E94923270932B0260932A0262960FB6AB
:1033B000F894DEBF0FBECDBFCF91DF911F910F916B
:1033C000FF90EF90DF90CF90BF90AF909F908F9045
:1033D0007F906F905F904F903F902F9008956090F6
:1033E000330370903403809035039090360320901F
:1033F0003703309038034090390350903A03E090FF
:103400003B03F0903C0300913D0310913E0360911B
:10341000500270915102882777FD8095982F0E9465
:10342000C5325B016C01C401B301A20191010E948C
:10343000A709F8CE2F923F924F925F926F927F92A0
:103440008F929F92AF92BF92CF92DF92EF92FF92B4
:103450000F931F93DF93CF93CDB7DEB72E970FB6A1
:10346000F894DEBF0FBECDBF9A8389836B015A01EA
:103470003E832D833801FC82EB821092030210926E
:1034800002021092440310924303809143039091EF
:10349000440390932B0280932A0260E070E080E066
:1034A00090E0DC019B01220F331F220F331FF90133
:1034B000ED5CFC4F80839183A283B383E080F18035
:1034C000028113812F5D3C4FF901E082F18202837A
:1034D00013836F5F7F4F6430710521F700D000D0F8
:1034E00000D0EDB7FEB731960BE013E0ADB7BEB735
:1034F00012961C930E93119782EB91E09383828333
:103500008AEC91E0958384830E947B31EDB7FEB70E
:1035100036960FB6F894FEBF0FBEEDBF80E090E088
:1035200067E070E0A8010E946701809168029091B5
:103530006902A0916A02B0916B028F839887A98774
:10354000BA87C601B50140E050E020E030E08301D9
:10355000EB80FC800E94250CC114D10469F1A114F8
:10356000B10451F1B301882777FD8095982F0E940F
:10357000C5327B018C0160912103709122038091FF
:103580002303909124032091250330912603409139
:103590002703509128030E94FB339B01AC01C80113
:1035A000B7010E942A329B01AC01C801B7010E94F9
:1035B00089340E9492323B01C601B5014D815E8182
:1035C00020E030E08301EB80FC800E94250C90938A
:1035D000440380934303C3010A966AE070E00E94AB
:1035E0002738CB01AA2797FDA095BA2F8B879C87F8
:1035F000AD87BE8780910202909103020097D1F7B8
:10360000A1E0B0E0B0930302A093020280914303D3
:10361000909144036B817C810E94140DED81FE81A9
:10362000309709F04DC020916802309169024091B5
:103630006A0250916B026F81788589859A850E9414
:10364000AB316B01E82E092F6B857C858D859E85BE
:103650000E94C5329B01AC016C2D7D2D8E2D902FCB
:103660000E948934D62EC72EB82EA92EE62EF72E0C
:10367000082F192F20E030E040EF51E40E94EE3394
:10368000181664F06D2D7C2D8B2D9A2D20E030E0E6
:1036900040EF51EC0E94233287FF0AC00F2EF0E06A
:1036A000EF2EF0E0FF2EF0E00F2FF0E01F2FF02DB7
:1036B000E0923B03F0923C0300933D0310933E03E2
:1036C00080912A0290912B02009731F481E090E0E2
:1036D00090932B0280932A0280914303909144039C
:1036E00020912A0230912B0282179307D4F580E0B3
:1036F00090E0DC0180937D0290937E02A0937F0294
:10370000B093800280917D0290917E02A0917F0211
:10371000B09180028093070390930803A09309035C
:10372000B0930A038091070390910803A0910903C5
:10373000B0910A038093710290937202A093730276
:10374000B093740260917102709172028091730261
:10375000909174020E94923270932B0260932A021D
:10376000C8C0A981BA81109741F4809177029091E5
:103770007802009709F491C012C0E981FA81E13022
:10378000F10509F448C089819A818230910509F0D8
:1037900084C080917702909178020097E1F180E0F7
:1037A00090E0DC0180937D0290937E02A0937F02E3
:1037B000B093800280917D0290917E02A0917F0261
:1037C000B09180028093070390930803A0930903AC
:1037D000B0930A038091070390910803A091090315
:1037E000B0910A038093710290937202A0937302C6
:1037F000B0937402609171027091720280917302B1
:10380000909174020E94923270932B0260932A026C
:1038100021E030E06DC0809181029091820200979A
:10382000E1F180E090E0DC0180937D0290937E02E4
:10383000A0937F02B093800280917D0290917E02DE
:10384000A0917F02B09180028093070390930803B8
:10385000A0930903B0930A03809107039091080392
:10386000A0910903B0910A038093710290937202B0
:10387000A0937302B093740260917102709172020E
:1038800080917302909174020E94923270932B0285
:1038900060932A0222E030E02BC0609033037090E6
:1038A0003403809035039090360320903703309096
:1038B00038034090390350903A03E0903B03F09076
:1038C0003C0300913D0310913E03609150027091C2
:1038D0005102882777FD8095982F0E94C5325B01A1
:1038E0006C01C401B301A20191010E94A70982CE1B
:1038F000C9012E960FB6F894DEBF0FBECDBFCF9193
:10390000DF911F910F91FF90EF90DF90CF90BF90CC
:10391000AF909F908F907F906F905F904F903F906F
:103920002F9008952F923F924F925F926F927F92C5
:103930008F929F92AF92BF92CF92DF92EF92FF92BF
:103940000F931F93DF93CF93CDB7DEB7AA970FB630
:10395000F894DEBF0FBECDBF4C017A8369835C83D0
:103960004B8339011C870B87FE82ED82B886AF82BC
:103970001092030210920202109244031092430329
:10398000809143039091440390932B0280932A02E9
:1039900020E030E00F2EF0E0EF2EF0E0FF2EF0E020
:1039A0000F2FF0E01F2FF02DC901880F991F880FEE
:1039B000991FFC01ED5CFC4FE082F18202831383CE
:1039C00040815181628173818F5D9C4FDC014D93F9
:1039D0005D936D937C9313972F5F3F4F2430310598
:1039E00019F700D000D000D0EDB7FEB731960BE04C
:1039F00013E0ADB7BEB712961C930E93119782EBEE
:103A000091E09383828388ED91E0958384830E9483
:103A10007B31EDB7FEB736960FB6F894FEBF0FBEFA
:103A2000EDBF80E090E067E070E0A8010E946701D0
:103A300028E230E049815A81429FC001439F900DA6
:103A4000529F900D11242091500230915102820F0B
:103A5000931F68E671E00E942738843B910524F4A7
:103A600011E0212E312C03C022242A94322C80E034
:103A700090E06B817C8140E050E020E030E0860106
:103A8000EF80F8840E94250C9093440380934303B5
:103A9000C301880F991F880F991F860D971D4BEF43
:103AA0005FEF649E9001659E300D749E300D112471
:103AB000269CB001279C700D369C700D11247A87CE
:103AC0006987D4011896BA8BA98BE981FA81E25EE5
:103AD000FD4FFC8BEB8BA601662757FD6095762F7B
:103AE0004D8B5E8B6F8B788FD094C194D108D3941B
:103AF000A601662757FD6095762F498F5A8F6B8FE9
:103B00007C8FAC01662757FD6095762F4D8F5E8FB9
:103B10006F8F78A3B901882777FD8095982F69A3C7
:103B20007AA38BA39CA388279927881999099EA318
:103B30008DA380914303909144036F8178850E9407
:103B4000140D8091020290910302009791F7A1E079
:103B5000B0E0B0930302A0930202E989FA89E1314F
:103B6000F10508F049C0C40197FE02C08DA19EA1D5
:103B7000FC01E25EFD4F2081293009F4C6C0181413
:103B8000190444F06D817E810E940011009709F4B0
:103B9000BCC096C1808190E02D813E818217930741
:103BA0000CF4B3C049815A814815590509F088C100
:103BB000C0903703D0903803E0903903F0903A0377
:103BC0006091500270915102882777FD8095982F5F
:103BD0000E94C5324B015C0160E070E0CB01A7019F
:103BE00096017B018C01650154010E94A70951E3F4
:103BF0005A95F1F7000064C16DE08616910409F052
:103C000084C080917702909178020097E1F180E082
:103C100090E0DC0180937D0290937E02A0937F026E
:103C2000B093800280917D0290917E02A0917F02EC
:103C3000B09180028093070390930803A093090337
:103C4000B0930A038091070390910803A0910903A0
:103C5000B0910A038093710290937202A093730251
:103C6000B09374026091710270917202809173023C
:103C7000909174020E94923270932B0260932A02F8
:103C800021E030E057C1809181029091820200973B
:103C9000E1F180E090E0DC0180937D0290937E0270
:103CA000A0937F02B093800280917D0290917E026A
:103CB000A0917F02B0918002809307039093080344
:103CC000A0930903B0930A0380910703909108031E
:103CD000A0910903B0910A0380937102909372023C
:103CE000A0937302B093740260917102709172029A
:103CF00080917302909174020E94923270932B0211
:103D000060932A0222E030E015C1AB89BC898C9116
:103D1000E82FF0E02B853C85E21BF30BFE87ED8757
:103D2000CF01F7FF03C0909581959F4F8530910596
:103D30002CF16D8D7E8D8F8D98A10E94C5325B0117
:103D40006C0169A17AA18BA19CA10E94C5322B01B3
:103D50003C014D855E85BA01882777FD8095982FB7
:103D60000E94C5327B018C01C601B501A3019201FD
:103D70000E9487110E9492326B0102C0CD84DE84C2
:103D80006B817C8177FF04C0D094C194D108D39417
:103D90007CE08716910449F4ED84FE84EE0CFF1C50
:103DA000EE0CFF1CCC24DD2402C0ED84FE846D8962
:103DB0007E898F89988D0E94C5322B013C01698DC7
:103DC0007A8D8B8D9C8D0E94C5326D877E878F8703
:103DD000988BC70162E070E00E942738882777FD42
:103DE0008095982F0E94C5327B018C01C301B201DE
:103DF0002D853E854F8558890E9487112091370374
:103E0000309138034091390350913A032FA338A7DA
:103E100049A75AA70E94923288279927861B970B99
:103E2000829DB001839D700D929D700D1124882795
:103E300077FD8095982F0E94C5322B013C01D094CC
:103E4000C194D108D39489859A85C89EB001C99E32
:103E5000700DD89E700D1124882777FD8095982FBE
:103E60000E94C5327B018C01609150027091510219
:103E7000882777FD8095982F0E94C5325B016C01E1
:103E8000C301B2012FA138A549A55AA50E94A709CF
:103E900080912A0290912B02009731F4A1E0B0E0CA
:103EA000B0932B02A0932A02809143039091440384
:103EB00020912A0230912B02821793070CF039CE01
:103EC00080E090E0DC0180937D0290937E02A093DD
:103ED0007F02B093800280917D0290917E02A0913A
:103EE0007F02B09180028093070390930803A09310
:103EF0000903B0930A038091070390910803A091EE
:103F00000903B0910A038093710290937202A09307
:103F10007302B09374026091710270917202809189
:103F20007302909174020E94923270932B026093FC
:103F30002A0201C0C901AA960FB6F894DEBF0FBECF
:103F4000CDBFCF91DF911F910F91FF90EF90DF9048
:103F5000CF90BF90AF909F908F907F906F905F9029
:103F60004F903F902F9008952F923F924F925F92E3
:103F70006F927F928F929F92AF92BF92CF92DF9279
:103F8000EF92FF920F931F93DF93CF9300D000D057
:103F900000D0CDB7DEB74C013B011A0159011A839D
:103FA00009831092030210920202109244031092AD
:103FB0004303809143039091440390932B02809399
:103FC0002A0260E070E080E090E0DC019B01220FBB
:103FD000331F220F331FF901ED5CFC4F8083918367
:103FE000A283B383E080F18002811381F901EF5D48
:103FF000FC4FE082F182028313836F5F7F4F643056
:10400000710521F700D000D000D0EDB7FEB7319692
:104010000BE013E0ADB7BEB712961C930E93119749
:1040200082EB91E0938382838DED91E0958384838D
:104030000E947B31EDB7FEB736960FB6F894FEBFFF
:104040000FBEEDBF80E090E067E070E0A8010E9445
:104050006701C401B301A10120E030E08501E980DE
:10406000FA800E94250CB501882777FD8095982F4E
:104070000E94C5327B018C01609121037091220363
:1040800080912303909124032091250330912603EE
:1040900040912703509128030E94FB339B01AC0100
:1040A000C801B7010E942A329B01AC015F77C801A9
:1040B000B7010E9489340E9492327B018C01C401B5
:1040C000B301A10120E030E08701E980FA800E947D
:1040D000250C9093440380934303992488247724E8
:1040E000662480910202909103020097D1F721E0AB
:1040F00030E03093030220930202809143039091B9
:10410000440369817A810E94140D60913B03709190
:104110003C0380913D0390913E0320912A0230910F
:104120002B022115310531F4A1E0B0E0B0932B0250
:10413000A0932A02209143033091440340912A0224
:1041400050912B02241735070CF052C080E090E00C
:10415000DC0180937D0290937E02A0937F02B09356
:10416000800280917D0290917E02A0917F02B091A9
:1041700080028093070390930803A0930903B093F0
:104180000A038091070390910803A0910903B0915D
:104190000A038093710290937202A0937302B0930A
:1041A0007402609171027091720280917302909119
:1041B00074020E94923270932B0260932A02269618
:1041C0000FB6F894DEBF0FBECDBFCF91DF911F9128
:1041D0000F91FF90EF90DF90CF90BF90AF909F90A6
:1041E0008F907F906F905F904F903F902F900895A9
:1041F000905820E030E048EC52E40E942A329B01C3
:10420000AC01D401F3016B2F782D8F2F962D0E94D6
:10421000AC31962E872E782E692E20903303309065
:1042200034034090350350903603809137039091CA
:104230003803A0913903B0913A038B839C83AD83FB
:10424000BE83E0903B03F0903C0300913D0310914E
:104250003E036091500270915102882777FD80954E
:10426000982F0E94C532D401F3012B2F3A2F4F2FE4
:104270005E2F0E94AC315B016C01C201B1012B8148
:104280003C814D815E810E94A7092BCF2F923F92E6
:104290004F925F926F927F928F929F92AF92BF9256
:1042A000CF92DF92EF92FF920F931F93DF93CF9302
:1042B00000D000D000D0CDB7DEB77C01D62E972E2F
:1042C0001A0159011A830983109203021092020203
:1042D000109244031092430380914303909144034E
:1042E00090932B0280932A0260E070E080E090E0DF
:1042F000DC01492D9B01220F331F220F331FF901CF
:10430000ED5CFC4F80839183A283B38360807180D6
:10431000828093802F5D3C4FF9016082718282829E
:1043200093826F5F7F4F6430710521F7942E00D028
:1043300000D000D0EDB7FEB731960BE013E0ADB77B
:10434000BEB712961C930E93119782EB91E0938364
:10435000828383EE91E0958384830E947B31EDB765
:10436000FEB736960FB6F894FEBF0FBEEDBF80E0E5
:1043700090E067E070E0A8010E946701B70188271C
:1043800077FD8095982F0E94C5322BED3FE049E4E0
:1043900050E40E9489347B018C016D2D792D77FFCB
:1043A00003C0709561957F4F882777FD8095982F82
:1043B0000E94C5329B01AC01C801B7010E9489343B
:1043C00020E030E044E353E40E942A320E9492321B
:1043D0002B013C0180E090E0B2014D2D592D91015F
:1043E0008501E980FA800E94250CB501882777FDB8
:1043F0008095982F0E94C5327B018C012091250366
:104400003091260340912703509128030E942A32BD
:104410009B01AC015F77C801B7010E9489340E94FB
:1044200092327B018C0180E090E0B2014D2D592D3C
:1044300091018701E980FA800E94250C9093440342
:10444000809343039924442433242224882477240A
:104450006624552480910202909103020097D1F7BF
:1044600021E030E030930302209302028091430365
:104470009091440369817A810E94140D60913B03FD
:1044800070913C0380913D0390913E03E0903F0387
:10449000F0904003009141031091420320912A02C1
:1044A00030912B022115310531F4A1E0B0E0B09339
:1044B0002B02A0932A0220914303309144034091A0
:1044C0002A0250912B02241735070CF052C080E0CD
:1044D00090E0DC0180937D0290937E02A0937F02A6
:1044E000B093800280917D0290917E02A0917F0224
:1044F000B09180028093070390930803A09309036F
:10450000B0930A038091070390910803A0910903D7
:10451000B0910A038093710290937202A093730288
:10452000B093740260917102709172028091730273
:10453000909174020E94923270932B0260932A022F
:1045400026960FB6F894DEBF0FBECDBFCF91DF9198
:104550001F910F91FF90EF90DF90CF90BF90AF90A1
:104560009F908F907F906F905F904F903F902F9093
:10457000089520E030E048EC52E40E942A329B018A
:10458000AC01682D772D862D952D0E94AC31862E9D
:10459000772E682E592EC801B701905820E030E0E0
:1045A00048EC52E40E942A329B01AC01F101692DD2
:1045B000742D8F2F922D0E94AC31962E472E382EBF
:1045C000292E8091370390913803A0913903B0913F
:1045D0003A038B839C83AD83BE83E0903F03F090CE
:1045E0004003009141031091420360915002709189
:1045F0005102882777FD8095982F0E94C532282D7B
:10460000372D462D552D0E94AC31F101292D342D29
:104610004F2F5E2F0E94AC315B016C0160E070E0B7
:10462000CB012B813C814D815E810E94A70912CF75
:104630002F923F924F925F926F927F928F929F92B2
:10464000AF92BF92CF92DF92EF92FF920F931F93A0
:10465000DF93CF93CDB7DEB728970FB6F894DEBFC0
:104660000FBECDBF6D837E838F8398877A011092B2
:1046700003021092020210924403109243038091AD
:1046800043039091440390932B0280932A0260E0AD
:1046900070E080E090E0DC018B01000F111F000F43
:1046A000111F98012D5C3C4FF90180839183A283F7
:1046B000B3832081318142815381F801EF5DFC4F4A
:1046C00020833183428353836F5F7F4F6430710552
:1046D00019F700D000D000D0EDB7FEB731960BE04F
:1046E00013E0ADB7BEB712961C930E93119782EBF1
:1046F00091E09383828386EE91E0958384830E9488
:104700007B31EDB7FEB736960FB6F894FEBF0FBEFD
:10471000EDBF80E090E067E070E0A8010E946701D3
:104720008091680290916902A0916A02B0916B0237
:1047300089839A83AB83BC838DEC9CECACE4BEE3B1
:104740008093180290931902A0931A02B0931B024F
:104750003701882477FC8094982CF094E194F10838
:10476000F3941701442437FC4094542C80910202A6
:10477000909103020097D1F7A1E0B0E0B09303025B
:10478000A0930202209168023091690240916A026E
:1047900050916B0269817A818B819C810E94AB313F
:1047A0002D813E814F8158850E94AB3120E030E061
:1047B00040EA50E40E948934D62EC72EB82EA92E86
:1047C000C401B3010E94C5327B018C01C201B10159
:1047D0000E94C5329B01AC01C801B701ED2CFC2C35
:1047E0000B2D1A2D0E9487117B018C019F772DECD8
:1047F0003CEC4CEC5DE30E94233218160CF452C0E2
:1048000080E090E0DC0180937D0290937E02A09393
:104810007F02B093800280917D0290917E02A091F0
:104820007F02B09180028093070390930803A093C6
:104830000903B0930A038091070390910803A091A4
:104840000903B0910A038093710290937202A093BE
:104850007302B09374026091710270917202809140
:104860007302909174020E94923270932B026093B3
:104870002A0228960FB6F894DEBF0FBECDBFCF91A7
:10488000DF911F910F91FF90EF90DF90CF90BF903D
:10489000AF909F908F907F906F905F904F903F90E0
:1048A0002F900895C801B701209118023091190284
:1048B00040911A0250911B020E9489347B018C01A5
:1048C00060E070E0CB019B01AC015B016C010E94D8
:1048D000A7094CCF2F923F924F925F926F927F9297
:1048E0008F929F92AF92BF92CF92DF92EF92FF9200
:1048F0000F931F93DF93CF93CDB7DEB766970FB6B5
:10490000F894DEBF0FBECDBF5C013B014A01190127
:1049100028016701109203021092020210924403D0
:1049200010924303809143039091440390932B0290
:1049300080932A0220E030E00F2EF0E0EF2EF0E02E
:10494000FF2EF0E00F2FF0E01F2FF02DC901880F90
:10495000991F880F991FFC01ED5CFC4FE082F182EA
:10496000028313834081518162817381FC01EF5D79
:10497000FC4F40835183628373832F5F3F4F24300A
:10498000310521F700D000D000D0EDB7FEB7319649
:104990000BE013E0ADB7BEB712961C930E931197C0
:1049A00082EB91E09383828389EE91E09583848307
:1049B0000E947B31EDB7FEB736960FB6F894FEBF76
:1049C0000FBEEDBF80E090E067E070E0A8010E94BC
:1049D00067018091680290916902A0916A02B0918A
:1049E0006B028B839C83AD83BE83C114D10409F415
:1049F0005AC08DEC9CECACE4BEE38093180290931B
:104A00001902A0931A02B0931B0292E0C916D104B6
:104A10000CF449C0C501B30140E050E020E030E0B3
:104A2000810172010E94250CA114B10469F1611485
:104A3000710451F1B101882777FD8095982F0E946C
:104A4000C5327B018C016091250370912603809112
:104A50002703909128032091210330912203409154
:104A60002303509124030E94FB339B01AC01C80136
:104A7000B7010E942A329B01AC01C801B7010E9414
:104A800089340E9492321B01C501B30140E050E01D
:104A900020E030E0810172010E94250C90934403D4
:104AA0008093430353C0C501B301A40120E030E06B
:104AB000810172010E94250CB101882777FD809544
:104AC000982F0E94C5327B018C0160912503709163
:104AD0002603809127039091280320912103309190
:104AE000220340912303509124030E94FB339B0136
:104AF000AC01C801B7010E942A329B01AC01C80178
:104B0000B7010E9489340E9492327B018C01C50159
:104B1000B301A40120E030E0870172010E94250C5E
:104B200090934403809343036091290370912A0377
:104B300080912B0390912C030E949232C62ED72E87
:104B4000D7FE04C0D094C194D108D3943324222436
:104B500019821A82C401AA2797FDA095BA2F8B87C4
:104B60009C87AD87BE87C601AA2797FDA095BA2F5F
:104B70008F87988BA98BBA8BD094C194D108D3948A
:104B8000C601AA2797FDA095BA2F8B8B9C8BAD8B66
:104B9000BE8B80910202909103020097D1F7A1E0B1
:104BA000B0E0B0930302A09302028091430390917E
:104BB0004403B2010E94140D2091680230916902F1
:104BC00040916A0250916B026B817C818D819E8144
:104BD0000E94AB317B018C016B857C858D859E8528
:104BE0000E94C5329B01AC01C801B7010E94AB31E4
:104BF00020E030E040EA50E40E948934D62EC72EEF
:104C0000B82EA92E6F85788989899A890E94C53224
:104C10007B018C016B897C898D899E890E94C532BC
:104C20009B01AC01C801B701D601F501EB2EFA2EAC
:104C30000F2F1E2F0E9487117B018C0120911802DB
:104C40003091190240911A0250911B020E9489343E
:104C50009B01AC0120933B0330933C0340933D0305
:104C600050933E03A0903B03B0903C03C0903D03A3
:104C7000D0903E0380912A0290912B02009731F44C
:104C8000E1E0F0E0F0932B02E0932A0280902A0208
:104C900090902B02809143039091440388159905CD
:104CA000DCF480E090E0DC018093370390933803DC
:104CB000A0933903B0933A0380913703909138035E
:104CC000A0913903B0913A03809333039093340356
:104CD000A0933503B0933603C801B7010E94923206
:104CE00077FF03C0709561957F4F882777FD80958A
:104CF000982F0E94C53201E02DEC3CEC4CEC5DE3BA
:104D00000E942332181614F400E00BC080E090E0FB
:104D1000DC0180933B0390933C03A0933D03B0934D
:104D20003E038091430390914403881599050CF04C
:104D300055C0002309F452C080E090E0DC0180936C
:104D40007D0290937E02A0937F02B09380028091B7
:104D50007D0290917E02A0917F02B09180028093AB
:104D6000070390930803A0930903B0930A0380916B
:104D7000070390910803A0910903B0910A0380935F
:104D8000710290937202A0937302B09374026091C7
:104D900071027091720280917302909174020E946C
:104DA000923270932B0260932A0266960FB6F894A3
:104DB000DEBF0FBECDBFCF91DF911F910F91FF904E
:104DC000EF90DF90CF90BF90AF909F908F907F90AB
:104DD0006F905F904F903F902F900895C601B5015E
:104DE000905820E030E048EC52E40E942A329B01C7
:104DF000AC01D1010981EA806B2F722D802F9E2D8D
:104E00000E94AC31362E272E89839A83609033031B
:104E1000709034038090350390903603809137036F
:104E200090913803A0913903B0913A038F8398870A
:104E3000A987BA87E0903B03F0903C0300913D03C3
:104E400010913E036091500270915102882777FDC6
:104E50008095982F0E94C532D101D980CA802B2F0E
:104E60003A2F4D2D5C2D0E94AC315B016C01C401C9
:104E7000B3012F81388549855A850E94A70989CEBB
:104E80002F923F924F925F926F927F928F929F925A
:104E9000AF92BF92CF92DF92EF92FF920F931F9348
:104EA000DF93CF93CDB7DEB768970FB6F894DEBF28
:104EB0000FBECDBF9A8389837E836D8358874F83CE
:104EC0003A8729875701DC86CB861092030210921D
:104ED0000202109244031092430380914303909185
:104EE000440390932B0280932A0260E070E080E0FC
:104EF00090E0DC019B01220F331F220F331FF901C9
:104F0000ED5CFC4F80839183A283B38360807180CA
:104F1000828093802F5D3C4FF90160827182828292
:104F200093826F5F7F4F6430710521F700D000D00E
:104F300000D0EDB7FEB73196BBE0EB2EB3E0FB2E11
:104F4000ADB7BEB71296FC92EE92119782EB91E04C
:104F5000938382838CEE91E0958384830E947B31DE
:104F6000EDB7FEB736960FB6F894FEBF0FBEEDBF95
:104F700080E090E067E070E0A7010E94670189810E
:104F80009A81019629E030E0B9010E9427383C015E
:104F900089819A810896B9010E9427381C01809165
:104FA000680290916902A0916A02B0916B02898BAC
:104FB0009A8BAB8BBC8B17FD05C0A1E0B0E0BC8326
:104FC000AB8304C0EFEFFFEFFC83EB8380E090E066
:104FD000B80140E050E020E030E08501EB84FC8443
:104FE0000E94250C9093440380934303C5010A96C5
:104FF0006AE070E00E942738CB01AA2797FDA095B0
:10500000BA2F8D8B9E8BAF8BB88FD301A25EBD4F15
:10501000BE87AD87F101E25EFD4FF88BEF8780918F
:105020000202909103020097D1F721E030E0309323
:1050300003022093020280914303909144036B8505
:105040007C850E94140D2091680230916902409184
:105050006A0250916B0269897A898B899C890E94C6
:10506000AB317B018C016D897E898F89988D0E947F
:10507000C5329B01AC016E2D7F2D802F912F0E9498
:1050800089348B01F82EE92E9701712F832F922FEF
:1050900020E030E040EF51E40E94EE3318166CF04F
:1050A0009701602F712F832F922F20E030E040EF87
:1050B00051EC0E94233287FF04C000E010E0FF247F
:1050C000EE24AD85BE858C9190E0ED81FE81E817E0
:1050D000F907CCF06C9170E06E1B7F0B882777FD91
:1050E0008095982F0E94C53220E030E040E650E4E1
:1050F0000E94893420E030E0A9010E94AC310E9476
:1051000092325B0102C0AA24BB24AF85B8898C917E
:1051100090E0EF81F885E817F9072CF16C90B50164
:10512000882777FD8095982F0E94C5325B016C011E
:10513000662D70E02F813885621B730B882777FD01
:105140008095982F0E94C53220E030E040E650EC78
:105150000E9489349B01AC01C601B5010E94AC31AB
:105160000E9492325B0189859A85009741F089817E
:105170009A8169857A850E9400110097C1F4809117
:105180002A0290912B02009731F4A1E0B0E0B09395
:105190002B02A0932A028091430390914403209113
:1051A0002A0230912B02821793070CF052C080E044
:1051B00090E0DC0180937D0290937E02A0937F02B9
:1051C000B093800280917D0290917E02A0917F0237
:1051D000B09180028093070390930803A093090382
:1051E000B0930A038091070390910803A0910903EB
:1051F000B0910A038093710290937202A09373029C
:10520000B093740260917102709172028091730286
:10521000909174020E94923270932B0260932A0242
:1052200068960FB6F894DEBF0FBECDBFCF91DF9169
:105230001F910F91FF90EF90DF90CF90BF90AF90B4
:105240009F908F907F906F905F904F903F902F90A6
:1052500008952090370330903803409039035090E0
:105260003A03B094A194B108B394EB81FC81AE9E53
:10527000B001AF9E700DBE9E700D1124882777FD82
:105280008095982F0E94C5325B016C01609150029D
:1052900070915102882777FD8095982F0E94C53222
:1052A0003B014C01C601B501A2019101AF2DBE2DFC
:1052B00078018D01640153010E94A709B0CE2F929D
:1052C0003F924F925F926F927F928F929F92AF9296
:1052D000BF92CF92DF92EF92FF920F931F93DF93D3
:1052E000CF93CDB7DEB7C254D0400FB6F894DEBF2F
:1052F0000FBECDBF9A878987788B6F871A01388751
:105300002F832801F88EEF8ABA82A98210920302B5
:1053100010920202109244031092430380914303BF
:105320009091440390932B0280932A0260E070E0F6
:1053300080E090E0DC019B01220F331F220F331F1E
:10534000F901ED5CFC4F80839183A283B383E080FD
:10535000F180028113812F5D3C4FF901E082F182DF
:10536000028313836F5F7F4F6430710521F700D094
:1053700000D000D0EDB7FEB731960BE013E0ADB72B
:10538000BEB712961C930E93119782EB91E0938314
:10539000828382EF91E0958384830E947B31EDB715
:1053A000FEB736960FB6F894FEBF0FBEEDBF80E095
:1053B00090E067E070E0A8010E9467012091680218
:1053C0003091690240916A0250916B022B8F3C8FA1
:1053D0004D8F5E8FB201620D731D2114310441F0B7
:1053E0004114510429F0CB0162E070E00E9427389B
:1053F00088E290E049855A85489F9001499F300D89
:10540000589F300D1124C90188569140FC0197FF27
:1054100004C0EE27FF27E81BF90BA90137FF04C0E2
:1054200044275527421B530B4E175F070CF4C90145
:105430004091500250915102E8E2F0E06E9F9001DD
:105440006F9F300D7E9F300D1124240F351F253B9B
:1054500031052CF461E070E07C836B8304C0AFEF16
:10546000BFEFBC83AB83840F951F875A9F4F833B4D
:10547000910528F0E1E0F0E0FA8BE98B04C04FEFF2
:105480005FEF5A8B498B253B31055CF06B817C814A
:105490008FEF6F3F780781F4A1E0B0E0BE83AD836A
:1054A00014C0EB81FC812FEFEF3FF20751F44FEF77
:1054B0005FEF5E834D8309C06FEF7FEF7E836D8367
:1054C00004C081E090E09E838D838F8198850A9748
:1054D000B6010E942738882777FD8095982F0E9473
:1054E000C5326FA378A789A79AA78F8598890A974D
:1054F00069817A810E942738882777FD8095982FC7
:105500000E94C5326BA77CA78DA79EA7C6010A96ED
:105510002AE030E0B9010E9427387CA36BA389817F
:105520009A810A96B9010E9427387EA36DA366244A
:105530007724882499249601442737FD4095542FD9
:105540002FA738AB49AB5AABD094C194D108D394B0
:10555000A601662757FD6095762F4BAB5CAB6DAB14
:105560007EAB69817A81882777FD8095982F6FAB14
:1055700078AF89AF9AAF89819A81909581959F4F35
:105580009C01442737FD4095542F2BAF3CAF4DAFC6
:105590005EAFA1014E5C5D4F5A8F498FB2016E5CC8
:1055A0007D4F21967FAF6EAF219789859A858E5C5E
:1055B0009D4F9A87898780910202909103020097FC
:1055C000D1F7A1E0B0E0B0930302A0930202EF850F
:1055D000F889309711F1A985BA858C9190E08E1BDE
:1055E0009F0BE989FA89E89FB001E99F700DF89F48
:1055F000700D1124882777FD8095982F0E94C53261
:10560000BBA5ACA50DA5EEA42B2F3A2F402F5E2DE8
:105610000E942A320E9492323B012F813885211547
:10562000310511F1A98DBA8D8C9190E0821B930BFD
:10563000EB81FC81E89FB001E99F700DF89F700D30
:105640001124882777FD8095982F0E94C532BFA12D
:10565000A8A509A5EAA42B2F3A2F402F5E2D0E9462
:105660002A320E9492324B012F89388D2115310543
:1056700079F1A98DBA8D8C912196EEADFFAD219770
:10568000208190E04F815885841B950B6F89788D20
:10569000860F971F821B9109AD81BE81A89FB00123
:1056A000A99F700DB89F700D1124882777FD8095F4
:1056B000982F0E94C5322AE939E949E95FE30E943F
:1056C00089340E94923223967FAF6EAF23973DC0FC
:1056D0000E942D08609168027091690280916A02AF
:1056E00090916B022B8D3C8D4D8D5E8D0E94AB3168
:1056F0000E949232E981FA81309771F04DA15EA14A
:10570000469F9001479F300D569F300D11242396E0
:105710003FAF2EAF23970DC0ABA1BCA1A69FC00188
:10572000A79F900DB69F900D112423969FAF8EAF2B
:10573000239723968EAD9FAD23974E968D3391057B
:1057400020F023961FAE1EAE23976FA578A989A9D6
:105750009AA90E94C5326B877C878D879E876BA92B
:105760007CA98DA99EA90E94C5326B8B7C8B8D8BE9
:105770009E8BB401882777FD8095982F0E94C532B3
:105780007B018C016B857C858D859E852B893C8971
:105790004D895E890E9487116F8F78A389A39AA390
:1057A0006FA978AD89AD9AAD0E94C5325B016C01DD
:1057B0006BAD7CAD8DAD9EAD0E94C5321B012C0141
:1057C000B301882777FD8095982F0E94C5327B0111
:1057D0008C01C601B501A20191010E9487115B01F4
:1057E0006C012396EEADFFAD2397BF01882777FDAF
:1057F0008095982F0E94C5327B018C016B857C853A
:105800008D859E852B893C894D895E890E948711F3
:105810007B018C0180912A0290912B02009731F438
:1058200021E030E030932B0220932A0280912A025B
:1058300090912B0231E0853F9307ECF46F8D78A1B6
:1058400089A19AA10E9492324B01C601B5010E9422
:1058500092323B01C801B7010E9492326B01611480
:10586000710409F05BC08114910409F057C06115FF
:10587000710509F053C080E090E0DC0180937D0267
:1058800090937E02A0937F02B093800280917D026C
:1058900090917E02A0917F02B091800280930703D5
:1058A00090930803A0930903B0930A038091070320
:1058B00090910803A0910903B0910A0380937102AB
:1058C00090937202A0937302B0937402609171027C
:1058D0007091720280917302909174020E949232D0
:1058E00070932B0260932A02CE5BDF4F0FB6F894C1
:1058F000DEBF0FBECDBFCF91DF911F910F91FF9003
:10590000EF90DF90CF90BF90AF909F908F907F905F
:105910006F905F904F903F902F900895E090140209
:10592000F09015020091160210911702B401882719
:1059300077FD8095982F0E94C5329B01AC01C8016C
:10594000B7010E9489346B877C878D879E87B3015E
:10595000882777FD8095982F0E94C53220912E02CE
:1059600030912F0240913002509131020E948934CF
:105970001B012C01B601882777FD8095982F0E9486
:10598000C5329B01AC01C801B7010E9489347B017B
:105990008C016091500270915102882777FD8095AB
:1059A000982F0E94C5325B016C016B857C858D85CB
:1059B0009E85A20191010E94A709FDCD80917B02E5
:1059C00090917C02009751F4809177029091780237
:1059D000009721F4809131039091320380917B02F2
:1059E00090917C028130910571F4809177029091C1
:1059F0007802009741F4809131039091320321E0C5
:105A000030E0009711F020E030E080917B0290912F
:105A10007C028130910579F480917702909178022F
:105A20008130910541F480913103909132030097C8
:105A300011F422E030E080917B0290917C0200978B
:105A400079F480917702909178028130910541F448
:105A50008091310390913203009711F423E030E0FC
:105A600080917B0290917C02009781F48091770273
:105A7000909178028130910549F4809131039091A1
:105A800032038130910511F424E030E080917B02F3
:105A900090917C02009779F480917702909178023E
:105AA000009749F480913103909132038130910540
:105AB00011F425E030E080917B0290917C028130EE
:105AC000910581F48091770290917802813091055F
:105AD00049F480913103909132038130910511F4A2
